:400000000040002011000000D10F0000D10F000008B500F0DFFFC04608B512222A4B1A60302001F061F9294A294B1A60C0229200284B1A60284B294A1A60BC22920128497F
:400040000A602849196028490A602849196028490A60284A1A60E822520127490A602749196088208001264908602649196026490A60264A1A6082221206254B1A6080228D
:40008000D202244B1A604022234B1A600632234B1A60013A224B1A60013A224B1A60033A214B1A600232214B1A60013A204B1A600720204901F054F8072001F02BF800224E
:4000C0001D4B1A6008BDC046300010400600008004010B40000301400000014040FF00801803014046FF00801403014045FF00801003014044FF00800403014041FF00805D
:400100000C03014043FF00800803014042FF008008010B4000010B404C010140300101402C01014028010140100101400C01014008010140611500000C020B4010B572B682
:400140000122484B1A70002410E0474863001A195200821891881B195B001A5AC31858880004104300F0BCFF0134E4B2012CECD93D49081C0C30343100F07AFF80225200DC
:400180003A4B1A8001233A4A13703A493A4A11603A493B4A1160EE223A490A603A490A609922120439490A60C020000338490860384839490860AA200004384908603849EF
:4001C0000A6038490A6080218904374A116080218900364A11603649364A1160364A1360364A1360364B197802220A431A70354802783C218A4328390A4302701978162202
:400200000A431A702222304B1A60304A304B1A602022304B1A6080232F4A13602F49304A1160304A1360713B2F4A1360902109022E4A11602E4A136030222E4B1A602E4A44
:400240002E4B1A6003232E4A136024212D4A11602D4A13602D4A2E4B1A60FFF7DDFE00F021FF10BD1C700F400C7D000000600F4002600F40300090000000024000EE020095
:4002800000030240000402400005024000500F4008500F400400990010500F4014500F4020500F4030500F4038500F403C500F401EEE0E00200120402000104000800F400D
:4002C00000700F4001700F4000000440B60D03000800044018000440000104404E020000080104401801044000020440080204401802044000030440802D03000803044056
:40030000000404400804044000050440240C03000805044010B5064C2378002B07D1054B002B02D0044800E000BF0123237010BDC006002000000000F47C000008B5084B81
:40034000002B03D00748084900E000BF07480368002B00D108BD064B002BFBD09847F9E700000000F47C0000C4060020C80000200000000008B501F041FE430702D501224C
:40038000034B1A70030702D50122014B5A7008BDDC06002008B500F071FB08BD08B501F039FE404208BDC04608B5002001F02CFE064B00229A601A610A215960D9609A617C
:4003C0001A625961D9619A84DA8408BDDC06002008B5024801F04AFE08BDC04675030000F8B5FFF7D7FF2E4CA062FFF7D7FFE06200F016FC236BC01A6063FA284ED900F05E
:400400000FFC274C2063A36AA26B9B1AE363E36A226C9B1A6364FFF7BDFFA063FFF7BEFF2064FA27BF00E06B7843666B311C04F01BFC85B24823E552606C7843311C04F0B3
:4004400013FC4A26A05328B207F00EFA154A164B06F0C0FB251C143507F0D0F9011C281C00F048FCA084A05F07F0FEF90D4A0E4B06F0B0FB251C1C3507F0C0F9011C281CDC
:4004800000F038FCE084FFF789FF00F0EFFAA05F00F01AFB2623E05E00F01CFBF8BDC046DC060020C7711CC7719C0A40024B9A8C0280DB8C0B807047DC060020014B26206A
:4004C000185E7047DC06002008B5FFF767FF08BD38B5051C0C1CFFF75DFF2860FFF75EFF206038BD08B5002001F08EFD08BDC046F0B583B0051C0191002600240BE0FFF73D
:40050000E3FF071C019800F063FEFFF7DDFFC01B36180134E4B2AC42F1D3301C291C04F0A3FBC317C0185840FA239B005843019904F09AFB00B203B0F0BDC04610B5012073
:4005400001F03EF9002308E00D4A990050180D4C44800120404288520133312BF4DDC7230AE05A000849515A064A914203D0482206498B5402E0013B002BF2DC10BDC04653
:4005800028070020DC050000CC000020A8070020D0B5041C07F068F91C4A1D4B06F01AFB061C0F1C0022002304F066FC00280AD0604207F059F9154A154B06F00BFB07F0F3
:4005C0001DF980B204E0301C391C07F017F980B2021C00B2002800DA002212B248230D49CB5C934200DD131C9BB2002C07DA1BB25B00094A985A094B181A80B203E01BB245
:400600005B00054A985A01F00DF8D0BD2B31DC1C763DD33FA8070020CC000020B80B000008B5002001F0CCF801F050F80020FFF7AFFF08BDF0B5474680B482B0002304E011
:4006400059004A484A4A88520133C62BF8DDFA24A400201C00F0E6FF201C00F0B9FD01256D4225E0201C00F0DDFFFA20800000F0AFFD05206421FFF73BFF4A233D4AD0526A
:40068000431E9BB2C62B11D8002D04DBAB003A4AD35E984206D00135374AAB009852D3185C8003E0AB00344AD3185C800A34A4B2324B9C42D6D92D4C201C00F0B3FF2E4B42
:4006C000AA0099184C800021D15219884823294AD15445E0284AA900545A6B1E98469B00D75A51184D88D31859882B1C8D4200D20B1C9BB22A1C8D4200D90A1C90B2181ADC
:40070000231CBC4200D23B1C9BB2221CBC4200D93A1C92B29E1A05F067FA0190301C05F063FA011C019804F09DFD061C281C05F0A3FA051C11E0281C05F036FA62000C4BAA
:40074000D052281C311C05F0B1F807F0C9F801F031FF07F019F9051C0134A742EBDA4546002DB7DA02B004BC9046F0BDDC050000CC000020A807002028070020DB05000039
:4007800038B5FFF7AFFE0024142514E06A000E4BD05A00F047FFFA20800000F019FD0220FA21FFF7A5FE6300084AD3184C2298520134E4B20A354823044AD35CAB42E5DA29
:4007C000034800F02FFF38BDCC000020A8070020DC050000034B03604823034AD35C01330B807047CC000020A807002008B500F017FA084B5860074B9B78002B06D100F016
:400800000FFA044B5B68C01A0928F4D9014B9878C0B208BD1C08002038B5051C8900064BCC580020A0470120A047281C00F09CFD0020A04738BDC046F87C000010B513496F
:400840000301CB185A890B889BB29A4201D20A8892B20E490301CB185A811B890A8892B2934201D90B889BB2084A000111180C1C0B81118889B21018103000F03BFAE06056
:400880003A2104F061F980B210BDC0461C08002010B5002423E00022124B9A70201C00F059FF0A20211CFFF7B7FFFFF79FFF002813D0201CFFF7C2FF011C201C00F0F4F873
:4008C00000F0AEF9074B9B6CC01AFA239B00984203D900F0A5F9034B98640134E4B2032CD9D910BD1C080020F0B583B0041C0191081C616904F03AFB051C60612668802377
:400900001B06F718391C04F0F1FA002801D0676106E0281C311C04F0FDFA002800D06661019E301C216904F0C1FF051C60680196311C04F089FE071CA068616904F084FE95
:40094000061CE068291C04F07FFE051C381C311C04F00CFB291C04F009FBA061019B236103B0F0BD034B044A1A60044A5A60044A9A607047680800209A99993ECDCC4C3F01
:40098000CDCC4C3E70B582B06B46981D00F068F800F046F9114BDB68C01A32281BD900F03FF90E4CE060FFF789FD6B469D1D06229B5E181A0A4E05F017F9011C301CFFF759
:4009C00093FFB06905F0F0F82B88C01880B2208200B2FFF7DDFD02B070BDC046680800205C020020094B00221A605A609A60DA601A615A619A61DA611A625A629A62DA62E1
:400A00001A863221002058549A8670477C08002008B5092001F002F833202B21034A01F009F800F08BFF01F0C5F908BD7C080020024B188800221A807047C0467C08002031
:400A4000024A938E18439086108170477C080020024A938E83439386138170477C080020014B5B88038070477C080020024B5881000C98817047C0467C08002010B584B0BF
:400A8000082001A90C22002301F03AFA0A2400E0013C01F0FDF9C30701D4002CF8D101F00FFA002004B010BD10304000014B1818C18070477C080020024B1818283081712E
:400AC0007047C0467C080020014B18827047C0467C080020014BD8817047C0467C08002010B5094C6082000CA082E182090C21836283120CA283E3831B0C2384029B638422
:400B00001B0CA38410BDC0467C080020014BD8807047C0467C080020014BD8887047C0467C0800207047C0467047C04610B5FFF77FFF041C830701D5FFF7D4FC630701D5A5
:400B400000F0FCF9230701D500F018FAE30601D500F006FAA30601D500F02AFA10BDC04608B562B600F0D6F800F0DEF800F024FA00F024FAFFF7D6FF00F032F8FFF732FFF8
:400B8000FFF712FC00F0D4F8FFF7D8FC00F0CEF9FFF7CAFF00F02AF8FFF73AFFFFF7E2FEFFF716FC00F0D4F8FFF73AFD00F0C0F9FFF7BCFFFFF714FC00F068F9FFF7E2FEA6
:400BC00000F034F8FFF764FE00F0FAF9F0E7C046024A1368013313607047C046B80800200022014B1A607047B808002010B500F039FC094800F0D6FB00240AE0201C00F001
:400C000049FC002804D1201C044900F03BFC02E00134042CF2D910BD80BB0000D10B0000014B18687047C046B808002010B500F05DFD012000F064FD002844D0FFF7F0FFC1
:400C4000214B1B68C01A64283DD9FFF7E9FF1E4B1860002434E060B200F066FD80B21B4BC3189BB21A4A934208D9031C4822FF32904201D2174B1B8898B200E0164806F0F1
:400C8000F3FD0022154B05F0A5FF0022144B05F0A1FF06F079FE06F023FE124A124B01F02FFD124A124B05F095FF06F06DFEE4B204F044F9C1B2201CFFF7FEFE0134E4B2E3
:400CC00063B2032BC7DD10BDBC08002035F8FFFF34F80000087D0000CB070000000014400000303F666666666666F2BF5C8FC2F528DC3B4070B5051C43685C180668181CAE
:400D0000311C03F0B1FF201A6860311C03F0ACFF70BDC04608B5034800218022520006F00BFF08BD4809002008B500F071FD08BD064B00221A605A6000229A60DA601A61F8
:400D40005A619A61DA611A627047C046C40800207047C046F0B557464E46C0B48BB00E2304AA944663449A4607AB99465046191CFFF79CFB09A808A9FFF7AAFB3C4C099BC9
:400D8000626A9E1A089BA26A9D1A201C2430211C2831FFF79DFBA81B06F066FD354A364B05F018FF06F0F0FDA16804F0DFF8071CA060701906F058FD0022304B05F00AFF24
:400DC0002F4A304B05F006FF06F0DEFD06F088FD029003910497381C06F082FD061C0F1C01F09AFB021C0B1C0298039905F0F2FE06F0CAFD051C301C391C01F031FC021C41
:400E00000B1C0298039905F0E5FE06F0BDFD061C281CE16804F0AAF8071CE060301C216904F0A4F80590206148460026865F50460025455F7319D80FC018401004F0D4FE50
:400E400002906061701B06F00FFD00220E4B05F083FA06F099FDA0610090381C0599049A029BFFF73DFE0BB00CBC91469A46F0BDC4080020578A081582E7803F0000E03F12
:400E8000C7711CC7719C0A400030794008B5FFF7C7FE064BDB6AC01A642805D9FFF7C0FE024BD862FFF756FF08BDC046C408002070B5061C0D1CFF200002FFF727FEFFF7A6
:400EC0002BFE0028FBD1002408E06300F05AFFF71DFEFFF721FE0028FBD10134A542F4DC0348FFF713FEFFF717FE0028FBD170BDFFFF000070B5051C0E1CFFF70DFEFF2307
:400F00001B029842F9D103E00020FFF7FFFD2C80FFF702FE041E044B9C42F5D10020FFF7F5FD0123338070BDFFFF00007047C04608B50220FFF784FD08BDC04608B502207D
:400F4000FFF786FD0420FFF77BFDFFF773FBFFF717FC0420FFF77CFD0220FFF771FD08BD10B582B06B469C1C01A8211CFFF732FC21880198FFF79CFF02B010BD00B583B077
:400F80000220FFF765FD0420FFF75AFD01A86B46991CFFF71FFC01986B46991CFFF7AAFF0420FFF755FD0220FFF74AFD03B000BD08B5FFF7E5FB08BD7047C0467047C0467B
:400FC00008B501F06DF8C043C0B201F05DF808BDFEE7C04670B50F4E0F4D13E029686B68AC68002202E001C901C30432A242FAD1E868002202E0002102C304328242FAD1B4
:401000001035013E002EE9D106F072FDFFF7A8FDFEE7C046010000005883000008B50F4A136801218B43136000230AE0032B03D89A000B49505800E00A4899000A4A8850E6
:4010400001332F2BF2D9FFF779F80022074B1A60024A116801230B43136008BD0000104000000000D10F000000000020C0000020F0B50025002711E0BB00C658F3B2FF22A2
:40108000964308E06A008A181478A419527822700135013BDBB2002BF4D10137092FEBD9F0BDC0460323084A1360084A136080221205074B1A600F23064A1360064A1360FB
:4010C0000022064B1A607047300030403000314000003A4000033A4040033A40000E3F4008B50A1C002106F027FD08BD024A1168024B0B401360704700002240FFFFFFBF42
:40110000034B18688023DB05184000D001207047000022401F2318401E3B8340181C014B1860704700E100E01F2318401E3B8340181C014B1860704780E100E001BE7047BA
:4011400038B5041C0D1C0F2802D90020FFF7F6FFA40080239B059C4664442068256038BD38B5041C0D1C1F2802D90020FFF7E6FFA400034B9C4664442068256038BDC046D2
:401180004000002070B5041C0E1E032E02D90020FFF7D4FF1F2C02D90020FFF7CFFF03252540ED00063500F08CFFA408A400074B9C46644423680322AA409343AE40351C54
:4011C0001D43256000F081FF70BDC04600E400E010B5041C06E0084B186800F069FF074B9C46644480231B029C42F4D8024B5868604300F05DFF10BD780200200080FFFF86
:4012000030B583B000F056F9002856D000F059FF041C00230AE02A4A11683F220A402949C95C8A4201D1033303E001332D2BF2D90323254A1268D20606D1234802681F2184
:401240008A4313390A430260204A1168204A1140204A5A438020C00184466244D20B013A5205520D0A43A02149031143192B02D819490A430BE0194A9A1812781148C31829
:401280009B7DD218FF2A00D9FF2292050A430F4B1A60134D2B680193302000F019FF114A13688021C9050B4313601420FFF790FF019B2B60201C00F008FF03B030BDC046B3
:4012C0002CFF0B40787F000034FF0B400800224000F800C040420F000000D43FCDF1FF0F300010400000224030B587B0041C00F0E8FE051CFFF704FF002803D0FFF7F6FE7E
:40130000012100E00021104B1B6800930F4B1B680193033C0E4B1B5D02930E4B1B68039304AA0D4B04936B4605930C4B1A600C480C4A10601B68012901D1FFF761FF281CA7
:4013400000F0C3FE07B030BD08010B4000010B40787F000030001040B6EA000008001040170000800400104008B5034B1B7A584300F09EFE08BDC04678020020024A11682D
:4013800002230B431360704710E000E008B5FFF7F5FF034A116801230B43136008BDC04610E000E00002000A014B18607047C04614E000E0012805D1054A116804230B4336
:4013C000136004E0024A136804218B431360704710E000E0024B1868C003C00F7047C04610E000E010B5FFF7F5FF01280BD107E0A300054A9B58002B00D09847013400E087
:401400000024042CF4D910BDF40800200022014B1A60704718E000E008B5002304E0990000200D4A88500133042BF8D90F200B49FFF786FE0120FFF7BDFF094BD868FA21CC
:40144000890003F081FBFFF7ADFFFFF7DFFF0F20FFF760FE08BDC046F4080020E51300007802002008B5064B5B69002B04D1FFF7D3FF0122024B5A61FFF788FF08BDC046F5
:40148000F4080020024A8300985899507047C046F40800208000014BC0587047F4080020034B1868C0231B02184000D00120704700010B40034B1B68002B01DA012000E0E6
:4014C000002070470000224008B500F0FAFD044A1368C02109020B43136000F0F6FD08BD00010B4010B500F0ECFD08490A68084B1A408024E40122430A600A6813408022D8
:40150000120213430B6000F0E0FD10BD00010B40FF3FFFFF70B5061C00F0D3FD041CFFF7BFFF002803D0FFF7DDFF012500E000250848331C0340084A106808490840184341
:4015400010601368012D01D1FFF7BEFF201C00F0BCFD70BD0404040010020B40FBFBFBFF10B5244B1B685B0715D5234B1B685B070ED5224B9969042001401F4C22688A4393
:4015800022609A6982439A61DB68002B00D098470420FFF7BFFF174B1B685B0518D5164B1B685B0510D5154B99698022D2001140114802688A4302609969114A0A409A61DB
:4015C0001B69002B00D098478020C000FFF7A2FF084B1B685B030CD5074B1B685B0304D5064B5B69002B00D098478020C002FFF791FF10BD10020B40880200200C09002095
:40160000FFFBFFFF0004000C014B18607047C046480120400004000C014B18607047C046540120400004000C014B18607047C0464C01204038B5041C0D1C00F042FDAC40A3
:40164000024B1C6000F041FD38BDC0460800204008B500F036FD064A116802230B43136000F033FD02201821FFF7E4FF08BDC04600002040014B18607047C04678012040A8
:4016800010B50D4C8023DB042360236823600020FFF7B8FF236823600C22084B1A600120FFF7E8FF3122064B1A600648FFF7B2FF0548FFF7B7FF10BD4001204064012040E6
:4016C00068012040204E0000DC05000008B5064B1B78002B04D1FFF7D3FF0122024B1A70FFF7B6FF08BDC04628090020034A1368802149020B4313607047C04604003A40F8
:40170000021C83070CD0074B1B680120184001D19307F8D4002804D00122024B1A6000E00020704710023A4010B5041E032C02D90020FFF703FD032C07D8A400044B9C468C
:40174000644420680004000C00E0002000B210BD80013A40014B18707047C04672000F4004490A68F7231A40C000EF3B18401043086070470005044004490A68FB231A40F6
:401780008000F73B18401043086070470000044004490A68F7231A40C000EF3B18401043086070470000044004490A68DF231A404001BF3B184010430860704700050440D5
:4017C00004490A68DF231A404001BF3B18401043086070470003044008B50920FFF79AFC08BDC04608B500F085F808BD08B500F01FF808BD08B5054A1368802109060B4348
:401800001360FFF7E9FFFFF7EDFF08BD0000254008B5064B1B78002B04D1FFF7E7FF0122024B1A70FFF7E6FF08BDC0462C09002010B51B4A1B4B1A6000241B4B1C600123A5
:401840001A4A136007221A490A601A490A601A4A14601A4A13601A4A1A4B1A601A4B1C6004221A4B1A600920FFF75EFC09200321FFF788FC09201649FFF772FC154B1C60EE
:40188000154B1C60154B1C60154B1C60154B1C60154B1C60154B1C60154B1C6010BDC0460B0000020000254040002540480025400003254004032540100325404400254098
:4018C0000700008000022540040225405000254025210000880E2540C80E2540480F2540080F2540C80F2540880F2540800B00207C0B0020044A1168044B0B40902109047D
:401900000B4313607047C04600000240FFFF0FFF08B50820FFF7FEFB08BDC04608B500F01DF808BD08B5044A1368802109060B431360FFF7EDFF08BD0000244008B5064BA5
:401940001B78002B04D1FFF7E9FF0122024B1A70FFF7E8FF08BDC0463409002010B50024194B1C60194A1A4B1A601A4B1A4A13601A4A14601A491B4A11601B4A13601B4B61
:401980001C600820FFF7D0FB08200321FFF7FAFB08201749FFF7E4FB164B1C60164B1C605222FF32154B1A60154B1C60154B1C60154B1C60154B1C70154B1C70154B1C808D
:4019C000154B00221A7010BD0000244000080040600024400701008000032440040324401200FE00100324400002244004022440651A0000C80E2440880E2440480F24407F
:401A0000080F2440C80F2440880F2440520A0020580A0020500A0020480A0020044A1368FF218B4340000840184310607047C0461003244070B5061C0D1C141E0BD0082028
:401A4000FFF772FB044B1C60044B1E80044B1D800820FFF75FFB70BD4C0A0020560A0020540A002070B5A94B1B68002B00D09847A74B1C88A74B1D68A74B1E680223FF33F4
:401A80001D4235D0A54A13685B005B081360A44B1A7820218A431A70197810220A431A70A04B1B68DB060BD49F4B1A78984B1B889A420AD09A4A117808230B43137004E041
:401AC000974A117802230B431370984A1168984B0B4013600023974A1360924A1360964A13708E4A1368802109060B43136009E1F30602D50022914B1A600A23334200D1F8
:401B000092E08F4B1B685B0758D58E4B1A688A4B1B78002B17D0012B49D18B4B1B88002B0DD00121894B1960894B1B681B19D2B21A700134844A1388013B13803AE00222F8
:401B4000824B1A6036E0834B1B8893422BD901217E4B1960804B1B88934202D99B1A9BB200E0002378490B80072B03D80121724B197014E0082B09D16C490B68A02000028B
:401B800003430B6000216B4B196008E067490B688020800103430B600821664B1960624B1A70141C06E00222684B1A6002E00020FFF7C4FA0422694B1A6035E05B4B1B680E
:401BC0009B0431D5B3070DD5654B1B681F211940564A1068564B03401360012014E00821012011E0584B1988083989B219800829F5D8002008E0564B1B681B19514A12684D
:401C0000D2B21A70013401390029F4D1002808D1464A1368802109020B4313600022454B1A600C224D4B1A60B3074AD5EB0615D50023404A13603B4A13603B4B1B78A3428A
:401C400001D1022300E00A232B40354A11780B4320218B4313700022374B1A706B062ED52F4A117820230B4313702F4B1B781C1C3C4A1268D20612D5364A1288D31A324ACE
:401C80001380394B1A68802149020A431A601968364A0A401A601022224B1A6002E00422244B1A600122324B1A603249194B196031490868102303430B60244B1A60154B80
:401CC0001D60154B1B685B071CD51F4B1B88002B0CD01F4B1B681B191B78DBB2274A13600134194A1388013B138002E0FF22234B1A60234B1B681F221340082BE5D10F3A54
:401D0000204B1A60024B1C8070BDC04638090020500A0020400F2440000E244000002440580A0020880F2440480A002060002440FF5FFFFFC80F2440520A0020880E24407E
:401D4000CC0F2440400324403C0900206C0024404C0A0020560A0020540A0020C00F2440080324406400244004022440FFFFFEFF800E2440FF0F0000480F244040022440A4
:401D800008022440800F244008B50A20FFF7C2F908BDC04608B500F01DF808BD08B5044A1368802109060B431360FFF7EDFF08BD0000264008B5064B1B78002B04D1FFF73D
:401DC000E9FF0122024B1A70FFF7E8FF08BDC0464009002010B50024194B1C60194A1A4B1A601A4B1A4A13601A4A14601A4A14601A4A13601A4B1C600A20FFF795F90A2069
:401E00000321FFF7BFF90A201649FFF7A9F9164B1C60164B1C60164B1C601422FF32154B1A60154B1C60154B1C60043AFF3A144B1A70144B1C80144B1C60144B1C6010BD41
:401E4000000026407708008060002640070100800003264004032640100326400002264004022640A5210000C80E2640880E2640480F2640080F2640C80F2640880F26401A
:401E8000590A0020760A0020600A0020640A002010B50A20FFF748F9074B1B889BB21C1C064A1278920601D504241C430A20FFF731F9201C10BDC046760A0020590A0020FC
:401EC00010B50A20FFF730F9044B1C88A4B200221A800A20FFF71EF9201C10BD760A0020054B1B682022134000D0082301221343024A13607047C0466400264068002640FF
:401F0000F0B583B001900C1C171C1D1C002919D02D4B1B78102B0AD10A20FFF705F92B4B1B68DB0701D508260FE000260DE0264B1B78602B08D1264A138808218B43138075
:401F4000002602E0042600E00426002E35D129221D4B1A7000221F4B1A601F4A17601F4B1C60EBB21E490B70019B5C00FF231C400120044316490B8883430B8019491A4B81
:401F800019601368072B03D80422184B1A6008E0174A1368802149000B4313600822134B1A60EB0704D5FFF79BFF124B1C6004E0104B1C600222104B1A600A20FFF7AAF802
:401FC000301C03B0F0BDC046590A002064002640760A0020600A0020780A0020700A0020740A002017030000000F2640C80F2640600026404002264068002640014B1878FA
:40200000C0B2704763000F40014B18607047C04600200F40024B1B78024B18687047C04600000F4000210F40014B18647047C0460000002010B5041C00F043F8044A13682E
:40204000C0218B43A4011C43146000F03EF810BD00E400E00122014B1A60704700E100E00122014B1A60704780E100E010B5041CFFF7F6FF201CFFF7D7FF0320FFF7DAFF76
:40208000FFF7E8FF10BDC046031C04490868FE2202400120184010430860704700000440024B1868012318407047C046040004400230800803D00138FDD1C046C046C0460F
:4020C0007047EFF3108072B6704780F31088704738B5041CFFF7F5FF051C102C05D8104A136803218B43136016E0202C07D80C490B6803229343023A13430B600CE0302C82
:4021000007D807490B6803229343013A13430B6002E00020FFF712F8281CFFF7D6FF38BD3000104008B5164B1B68002B00D09847144B1B689B0721D5134B1A68134B1B68CA
:402140009A4213D0114B1B685A1CFF2B00D100220F4B9B5CDBB20F490B600C4B1A600E4B1B681F221340082BE6D104E00B4A136802218B4313600222094B1A6008BDC0468D
:40218000300900208C0F2540800B00207C0B00207C0A00204002254008022540880F2540800F254010B5B94B1B68002B00D09847B74B1B68DB0702D50022B64B1A60B64BC6
:4021C0001B789B0628D5B54B1B68DB0507D5B44A1188C0239B000B431380012300E00023AE4A1268D20706D5AD4A118890239B000B4313800123002B0FD0A74A1278D207EB
:4022000001D5012200E00222A549088802430A800021A14A117000E000239F4A1278920600D417E19D4A1268D20611D510229D4B1A60994B1B78DB0701D5012300E00223E2
:40224000974A11880B4313801022934B1A701BE1914A1278120720D5904A126892070AD50222904B1A608E4A118888239B000B431380012311E0884A1278D20703D52521B5
:40228000854A117009E02421834A1170864A1268002A02D01439854A11607F4A1278520700D4AEE07C4A1278D20749D5804A1268120727D57F4A12687F4909681F240C40C6
:4022C0007E4909686418141B082C09D8002C16D17B4A11687B4B0B401360012308340EE008240CE0754A116877480068411877480068C0B20870116801311160013C002C5D
:40230000F0D119E06A4A1268520715D56B4A11686D48006841186D480068C0B208701168013111601168634A1268914203D20421674A116000E001236649674A116060E007
:40234000564A1268920726D50222564B1A60634A13681F211940136880221202134000D00123CB185E4A1168CB1A136012685D4B1A604B4A118884239B000B4313805A4B49
:402380001A68802149020A431A601968574A0A401A60012335E0564A1268D2061ED427E04F4A1168404A126891421DD23E4A1268013A4B4909688A4204D140224D490A60C1
:4023C0003A490A60464A11684B48006841180978C9B24A4801601168013111603F4A12681F210A40082ADBD11021424A116008E03F4A1268520604D5394B1A68394B1A60CF
:402400000123002B40D02E4A11682E4B0B40136000233B4A1360254A13603A4B1B789B070ED51D4B1B78DB0701D5092300E00A231B4A11880B4313806022174B1A7023E03F
:40244000314B1B689B0601D5182200E01022204B1A6019E0104B1B78DB0615D42B4A13685B005B08136010210B4B1970144B186827490140196018682649014019601368A6
:40248000802109060B43136010BDC046440900208C0E2640880E2640590A00200C0F2640760A0020000F2640680A0020880F2640CC0F2640780A002008032640600A0020E9
:4024C00060002640FFFEFFFF700A00204003264068002640ED0F0000C00F2640080226405C0A0020640A002004022640FFFFFEFF8C0F2640800F26406C0A002040022640BA
:40250000C80F2640740A00206400264000002640FF5FFFFFFFFCFFFF30B5244A4B0087B0051C0C1C5B0893421CDD214A934205DD2A1C231C04F0E8FD07B030BD02AA00F02C
:40254000D3FF0323184001281CD002280FD0002824D002980399049A059B0124009402F033F8E9E70022002301F0CCFAE4E7049A059B0298039901F0C5FA80231B069C4626
:402580006144D9E7049A059B00900298039902F01BF880231B069C466144CDE702980399049A059B01F0AEFAC6E7C046FB21E93FFFFFEF7FF8B5254A4B005B0D9A18071C9A
:4025C0000C1C132A15DC002A37DB214B051C13411C1C0C4004430E1C002C07D0802424031441002064189C43051C261C281C311CF8BD332A0EDD8023051C0E1CDB009A423F
:40260000F4D1381C211C3A1C231C03F07DFB051C0E1CEBE70F4A0E1C9D1801225242EA40051C0242E2D00C4DEB1A01259D402818874200D94C1C9043D6E7C90FCC070020F1
:40264000531CD1D1054B1C43CEE7C04601FCFFFFFFFF0F00EDFBFFFF320400000000F03F30B5254A4B0087B0051C0C1C5B0893421EDD224A934205DD2A1C231C04F044FD5D
:4026800007B030BD02AA00F02FFF03231840012822D0022813D0002825D0049A059B0298039901F02FFA80231B069C466144E7E7002300220093002301F086FFE0E70124E5
:4026C000049A059B02980399009401F07DFF80231B069C466144D3E7049A059B0298039901F010FACCE7012402980399049A059B009401F069FFC3E7FB21E93FFFFFEF7F5E
:40270000F0B546465746C0B48FB01F1C02900391161C00F0A3F9041C0D1CC84B0094019598461B785BB2013305D0301C391C02F0AFF8002806D1009801990FB00CBC904624
:402740009A46F0BD0298039902F0A2F88246002831D1301C391C0022002302F087FB0028E9D001230493B64B04AD6B60534600222B62029B039CAB60EC60B24B2E616F616E
:40278000AA61EB6143461B785BB25A1C0ED0022B0CD0281C02F0AAF8002800D180E02B6A002B03D005F09EF92B6A0360AB69EC6900930194BFE7029803990022002302F050
:4027C00055FB002822D0301C391C0022002302F04DFB041E2CD001230493994B04AD6B6000232B62029B039CAB60EC6000230024AB61EC6143461B782E616F615BB2002B80
:40280000C7D000228F4BAA61EB61CFE7201C291C01F08EFF8246002847D0201C291C0022002302F023FB002866D10094019582E7301C391C01F07CFF002800D17BE7301C76
:40284000391C0022002302F017FB002800D172E7012304937A4B04AD6B602C62029B039CAB60EC6043461B782E616F61002B75D100230024AB61EC61281C02F037F8002832
:4028800072D02B6A002B91D08CE700200021021C0B1C03F061FDA861E961022C00D078E705F020F92123036079E70298039901F03FFF0028B1D0301C391C01F039FF0028A6
:4028C000ABD0291C201C01F0E3FF04AD002850D1012304935A4B28626B60029B039CAB60EC6043461C782E616F61002CCDD100230024AB61EC614CE70298039901F018FF70
:4029000000940195002800D115E7301C391C01F00FFF00940195002800D10CE704230493474B04AD6B6000232B62029B039CAB60EC6000230024AB61EC6143461B782E6168
:402940006F615BB2022B04D0281C01F0CFFF002897D105F0C7F82223036092E700203A49A861E961022B87D105F0BCF82123036087E703230493324B2E616F616B605346DB
:402980002B62029B039CAB60EC6043461B785BB2002B1CD102980399E0222C4B1206AA61EB610022002302F067FA002830D143461B785BB2022B05D0281C01F097FF0028B9
:4029C00000D0ECE605F08EF822230360E7E60022029803991E4BAA61EB610022002302F04BFA0028E3D000221A4B301C391C04F0F1F8061C0F1C01F081FF321C3B1C02F07C
:402A000035FA0028D3D100220F4BAA61EB61CEE70022104B301C391C04F0DCF8061C0F1C01F06CFF321C3B1C02F020FA0028BED1E022094B1206AA61EB61B8E78C0200200A
:402A4000C07F00000000F03F0000F0FFFFFFEF470000F07F0000E03FFFFFEFC7F0B556464D4644465F46F0B41C1C131C67008DB07F0800930194061C0D1C80468946A2465A
:402A80003B4331D0614B6C0064089C4228DC25D09F4225DC5D4B9F4200D176E000239B464B46002B00DA74E0002A2CD1574B9F4200D18AE0564B9F425FD08023DB059A45C4
:402AC00001D100F0D1FB534B9A451CD14B46002B19DB301C291C00F01FFF07E000280CD04D4BE01830430AD1002049490DB03CBC90469946A246AB46F0BDA742CADD474805
:402B000001F0F6FEF2E7301C291C01F00DFE0B1C4146021C00291ED0E90F0139884659464046014366D03E498F4200DC88E03D498F4201DC00F0E0FB3B4B9C4200DC82E388
:402B40005346002B00DC82E338483949021C0B1C04F040F8CAE7002C04D02D48A90089088142D9D15146002900DABBE34946002900DA6FE3101C191CB8E75346002B01DA55
:402B800000F020FC301C291CB0E7002A00D185E7A6E7284B9F422ADC234B9F4200DC83E725493815884201DC00F027FC234B00991B1AD940081C9840904200D074E7012317
:402BC000194001335B1A9B466EE7134BE018064300D189E7144B9C4200DC75E35346002B00DA34E3009B019C181C211C7EE702239B4659E7301C291C321C2B1C04F084FAAB
:402C0000021C0B1C03F0A8FB70E7C0460000F07F0000F03F0000E03F000010C0F87F00000000E0410000F043FFFFEF3F9C7500883CE4377EFFFF3F4313040000330400009C
:402C4000E94900208C4209DC101C191C0022E74B03F0C0FF021C35200C1C4042E44D2115AC4661448A462403E24DE349240B824425438C4200DC3CE3E0498C4201DC00F091
:402C800021FC01218C46DE49E2448C46002400216544CB009946161C2F1CDA4B301C4B441A685B68291C069607970892099304F02BFA089A099B061C0F1C0698079903F0F8
:402CC00023F8021C0B1C0020CA4903F045FB021C0B1C301C391C0A920B9303F07BFF0A1C011C131C0491059200220292039380236D109B051D43802300201B03EB18191961
:402D00000D1C041C02980399221C2B1C03F062FF021C0B1C301C391C04F0F6F9089A099B061C0F1C201C291C04F0EEF9021C0B1C0698079904F0E8F9021C0B1C02980399B0
:402D400003F048FF021C0B1C301C391C04F0DCF90A9A0B9B03F03EFF049A059B06900791101C191C03F036FF041C0D1C221C2B1C03F030FFA44A061C0F1C201C291CA34B61
:402D800003F028FFA24AA34B02F0BEFF221C2B1C03F020FFA04AA14B02F0B6FF221C2B1C03F018FF9E4A9F4B02F0AEFF221C2B1C03F010FF9C4A9D4B02F0A6FF221C2B1CEB
:402DC00003F008FF9A4A9B4B02F09EFF021C0B1C301C391C03F0FEFE049A059B041C0D1C0298039902F090FF069A079B03F0F2FE221C2B1C02F088FF029B039C061C0F1CC1
:402E00001A1C181C211C231C03F0E4FE0A1C011C894B08910992111C002202F075FF321C3B1C02F071FF00240D1C02980399221C2B1C03F0CFFE221C2B1C029003910698BF
:402E4000079903F0C7FE0022069007917A4B201C291C04F059F9089A099B04F055F9021C0B1C301C391C04F04FF9049A059B03F0B1FE021C0B1C0698079902F045FF061CB9
:402E80000F1C02980399321C3B1C02F03DFF0024E022201C1206694B0D1C03F09BFE684A06900791674B201C291C03F093FE029A039B04900591201C291C04F025F9021C4F
:402EC0000B1C301C391C04F01FF95F4A5B4B03F081FE021C0B1C0498059902F015FF5B4B4B441A685B6802F00FFF061C50460F1C04F0BAFC041C0D1C06980799544B4B44FC
:402F00001A685B6804920593321C3B1C02F0FCFE049A059B02F0F8FE221C2B1C02F0F4FE0020221C2B1C0290039104F0EDF8049A059B04F0E9F8069A079B04F0E5F8021C16
:402F40000B1C301C391C04F0DFF8049005915B464246013B134300D0B1E100233D4C06930794009B019C0026181C211C231C321C04F0CAF8029A039B03F02CFE049A059BF0
:402F80000D1C271C041C0098019903F023FE021C0B1C201C291C02F0B7FE029A039B00900191301C391C03F015FE041C0D1C009801992B1C221C02F0A7FE274B824689462F
:402FC000994200DC58E1254B4B44034300D001E200980199224A234B02F096FE221C061C0F1C2B1C40E0C046FFFF0F000000404301FCFFFF0000F03F8E98030079B60B0042
:403000000000F0FFE87F0000EF4E454A287ECA3F65DBC9934A86CD3F01411DA96074D13F4D268F515555D53FFFAB6FDBB66DDB3F033333333333E33F0000084009C7EE3FB0
:40304000F5015B14E02F3EBEFD033ADCD87F0000C87F00000000F0BFFFFF8F40000070BFFE822B654715973C5046494604F04CF8021C0B1C301C391C01F012FF4E46002841
:4030800000D0A7E1E74B3615F11880235B0398460B41191CE448494484464F007F0DBC446646E248002230410E1C864340460903090B08434946331CCE0FDD49C91B084119
:4030C000011C704241408946201C291C04F01CF8041C0D1C009801992B1CB144221C02F013FE4B461B05984600200022D14B061C0F1C03F06FFD221C029003912B1C301CA0
:40310000391C04F001F8021C0B1C0098019903F0FBFFC94AC94B03F05DFDC94A041C0D1C301C391CC74B03F055FD021C0B1C201C291C02F0E9FD041C0D1C02980399221CC6
:403140002B1C02F0E1FD029A039B061C0F1C03F0DBFF021C0B1C201C291C03F0D5FF321C009001913B1C301C391C03F033FD041C0D1CB54AB54B03F02DFDB54AB54B03F075
:40318000C3FF221C2B1C03F025FDB34AB34B02F0BBFD221C2B1C03F01DFDB14AB14B03F0B3FF221C2B1C03F015FDAF4AAF4B02F0ABFD221C2B1C03F00DFD021C0B1C301CB6
:4031C000391C03F0A1FF041C0D1C221C2B1C301C391C03F0FFFC8023029003910022201C291CDB0503F090FF021C0B1C0298039903F0B2F8009A019B041C0D1C301C391C84
:4032000003F0E8FC009A019B02F07EFD021C0B1C201C291C03F078FF321C3B1C03F074FF0B1C021C9249002003F06EFF43465C182315002B00DC4FE1021C231C0698079932
:4032400003F0C8FC52E45346002B00DA7CE4002000214BE487498C46594664440C4300D0C4E0101C191CC9E4301C291C321C2B1C03F0B0FCFFF73AFC7F4B4E0076089E42D2
:4032800000DC17E17D4B4B4403430CD1221C2B1C03F03AFF021C0B1C0098019901F0F6FD002800D1EEE606980799754A754B03F091FC734A734B03F08DFCFFF717FC002387
:4032C0006B4C069307944CE65346002BBFDA009B019C80221206181C9446231C6344191CFFF704FC0020624903F036F8021C0B1C3CE400240021CCE463498C42A3DD5C495E
:403300008C4201DDFFF71CFC101C191C0022584B03F0FAFEC0225D4BD205041C0D1C03F059FC5B4A061C0F1C201C291C594B03F051FC221C029003912B1C201C291C03F05A
:4033400049FC002204900591534B201C291C03F041FC021C0B1C5148514903F0D5FE221C2B1C03F037FC021C0B1C00204D4903F0CBFE021C0B1C0498059903F02BFC4A4AA0
:40338000424B03F027FC021C0B1C0298039903F0BBFE041C0D1C221C2B1C301C391C02F0B3FC0022101C3B1C321C0290039103F0ABFE021C0B1C201C291C03F0A5FE04908E
:4033C0000591C4E5321C2B1C0020294902F0C4FFFFF78CFB06980799344A354B03F0FAFB324A334B03F0F6FBFFF780FB5946101C01296CD0191CFFF779FB002A01D0FFF701
:4034000082FB3A1C091A0A41131C8B40BB4201D0FFF750FB012313400222D31A9B46FFF749FBC04602FCFFFF01FCFFFFFFFF0F0013040000432EE63FEF39FAFE422EE63F33
:40344000396CA80C615C20BED0A4BE726937663EF16BD2C541BDBB3E2CDE25AF6A56113F93BDBE166CC1663F3E5555555555C53F0000F03F000010C0FFCB904000346F3F3C
:4034800059F3F8C21F6EA501FEFFEF3F4715F73F44DF5DF80BAE543E0000D03F555555555555D53F0000E03FFE822B659C7500883CE4377E0B4B9E4200DDE3E500239846B9
:4034C000994611E680240121E402FFF7E2FB802109065918FFF70AFB4A4601F0B1FA021C0B1CABE60000E03FF0B556465F464D46E0B44B005E08D44B90B08A469E4200DC91
:4035000089E0D24B91460C1C051C9E4222DCD04A002C00DCBEE1CF4B03F0F6FDCD4B041C0D1C9E4200D190E0CB4ACC4B03F0ECFD021C0B1C4946201C0A604B60291C03F05F
:40354000E3FDC64BC44A03F0DFFD4B469860D960012069E0C24B9E4200DC93E0C14B9E4268DCC14932158B4693445B461B05F51A291C041C04F042F904F076F9021C0B1CE0
:40358000201C291C0A920B9303F0BEFD0022B74B03F020FB0F1C061C04F030F904F064F9041C0D1C221C2B1C301C391C0C940D9503F0AAFD0022AD4B03F00CFB0022002311
:4035C0000E900F9101F052FC002800D181E100230022201C291C01F049FC0222431E9841131A02220092A24A0AA8019249465A4600F0A2FB5346002B16DA80224B461206CA
:4036000094464A465B68404263445360D3684A466344D36008E0041C0D1C002000219060D16000201460556010B01CBC91469A46A346F0BD53462A1C03F066FD4B4698605D
:40364000D960186059600020EEE7D322834B520503F05AFD874A884B041C0D1C03F054FD021C0B1C4946201C0A604B60291C03F04BFD814B7F4A03F047FD4B469860D96023
:403680000120D1E701F050F87C4A7D4B041C0D1C03F0A0FA00227B4B02F036FB04F0AEF8071C04F0E1F86A4A6A4B0490059103F091FA021C0B1C201C291C03F025FD664A63
:4036C0000290039104980599644B03F083FA06900791029803991F2F33DC7B1E6A4A9B009B58B3422DD0069A079B03F00DFD0B1C0C1C021C4946051C0A604B600298039916
:403700002A1C231C03F000FD069A079B03F0FCFC061C0B1C4846321C8260C3605346381C002B00DB80E74B461D6080231B069C464B4664445C609E604B466144D960784293
:4037400072E7069A079B03F0DFFC0B1C0C1C021C49460A604B60630036155B0D051CF31A102BCBDD04980599D3223C4B520503F031FA041C0D1C02980399221C2B1C03F086
:40378000C3FC021C0B1C029803990892099303F0BBFC221C2B1C03F0B7FC041C0D1C04980599344A344B03F015FA221C2B1C03F0ABFC031C0C1C08980999069307941A1C30
:4037C000231C03F0A1FC021C0B1C051C4846026043604B005B0D0C1C0899099AF31A02910392312B8ADD04980599B822224B920503F0F0F9041C0D1C02980399221C2B1CF2
:4038000003F082FC021C0B1C089809990292039303F07AFC221C2B1C03F076FC041C0D1C04980599194A1A4B03F0D4F9221C2B1C03F06AFC031C0C1C029803990693079479
:403840001A1C231C51E7C046FB21E93F7BD9024000004054FB21F93F3163621A61B4D03DFB213941FFFFEF7FEAFBFFFF000070417C8000007370032E8A19A33B83C8C96DF9
:40388000305FE43F0000E03FFC7F0000C14920259A837B391B4B02F037FA1A4B041C0D1C9E4218D0184A194B02F02EFA021C0B1C4946201C0A604B60291C03F025FC124AE3
:4038C000124B02F021FA4B469860D96001204042AAE6032385E6D3220C4B520502F014FA0B4A0C4B041C0D1C02F00EFA021C0B1C4946201C0A604B60291C03F005FC044A9A
:40390000044BDEE7FB21F93F3163621A61B4D03D7370032E8A19A33BF0B556464D4644465F46754BF0B40A1C0E1C191C83B0051C041C3140994200D1B7E0002E00DC93E0C7
:40394000311500D1A0E06D4B1203CE188023120B5B031A43F30700D577E0731052009846E30FD318802216210027002564009203A818984202DC85181B1ABF18E00F5B0043
:4039800001391B18640052080029F1D1002201929446802212062020924609E0AB4247D0E10F5B0001385B186400520800281ED0614689189D42F1DA8E18B446CE0FF6076C
:4039C000A94656452ED05B1B8C42AD416D425B1B641A01995B008B469344594601380191E10F4D465B18640052080028E0D1234330D1019B5B0842497A108C466244F907E3
:403A000002D5802109060B4341460E05B1181D1C0E1C281C311C03B03CBC90469946A246AB46F0BD6646002ECDDB6E1CB146CAE7A14208D88E18B446CE0FF607564541D0D7
:403A400099460023C4E71D1CAAE7E30F5200D218640082E7019B01333AD0019A01239446134063445B08C6E773005B080343D0D00021002E33D1E20A15396405002AFAD0B1
:403A800080235B031A4226D1802000234003520001330242FBD001252020ED1AC01A4919251CC5409C402A434DE72A1C331C281C311C03F08FF82A1C331C02F025F9051C45
:403AC0000E1CA6E76646002EAFDA0023A9467FE7013700238FE7202001250023DFE72A1C331C281C311C03F00FFB021C0B1C02F033FC051C0E1C8CE70000F07F01FCFFFF63
:403B00000000E03FF0B54F464646C0B487B000920193754B4F00814688467F089F4263DC03F06CFE002800D1DAE04A4643464846414603F04FF8041C0D1C6C4A6C4B03F063
:403B400049F86C4A6C4B02F0DFF8221C2B1C03F041F86A4A6A4B03F0D7FA221C2B1C03F039F8684A684B02F0CFF8221C2B1C03F031F8664A664B03F0C7FA221C2B1C03F0FB
:403B800029F8644A644B02F0BFF8221C2B1C03F021F802900391201C291C00225F4B03F019F8029A039B061C0F1C201C291C03F011F8009A019B041C0D1C4846414603F04B
:403BC00009F8021C0B1C201C291C03F09DFA021C0B1C301C391C03F097FA021C0B1C00204F4903F091FA70E04A46434602F0F2FF041C0D1C3D4A3E4B02F0ECFF3D4A3E4BFD
:403C000002F082F8221C2B1C02F0E4FF3B4A3C4B03F07AFA221C2B1C02F0DCFF394A3A4B02F072F8221C2B1C02F0D4FF374A384B03F06AFA221C2B1C02F0CCFF354A364BAE
:403C400002F062F82B1C221C02F0C4FF354B029003919F429FDD344B00229F423ADC334900207B182E49161C1F1C03F04DFA04900591201C291C0022284B02F0ABFF321CAC
:403C80003B1C03F041FA029A039B061C0F1C201C291C02F09FFF009A019B041C0D1C4846414602F097FF021C0B1C201C291C03F02BFA021C0B1C301C391C03F025FA021CD7
:403CC0000B1C0498059903F01FFA07B00CBC90469946F0BD164B002604920593154FC8E700200F49F1E7C046FFFF3F3ED43888BEE9FAA8BDC4B1B4BD9EEE213EAD529C8057
:403D00004F7E923E9015CB19A001FA3E7751C1166CC1563F4C5555555555A53F0000E03F0000F03F3233D33F0000E93F0000E0FF0000E73F0000D23FF0B556464D464446E9
:403D40005F46F0B48E4CA5440891191C141CA69A09938C4B9200D2580B1C0290013BE01E18211D1C161C0792009300F07DFFC343021CDB171A40D343111C0C925A00D31805
:403D8000DB001B1904934C1BAE1918D4A79BA5009C46A61924AF6544013607E0286803F063FD013403C70435B44208D0002CF5DA00200021013403C70435B442F6D1079B65
:403DC000002B01DA00F0ECFB0022079B91460133DB009A46099B74AADB00069208229C465242624493460393009B002B00DA90E224AB9C465C464B46E046002600274C4479
:403E0000083B029D644498442268636803CD02F0E1FE021C0B1C301C391C01F075FF083C061C0F1C4445EFD1069B4B441E605F6008239C46E144D145D6D1079A5249131C3A
:403E40008C4663449B0010A8191C844691460433614463440B910D934B46DB001A1C06990A9394460B1C63441E685F684B46002B32DD884610AB9A46444B4B44DB00984405
:403E800072AB9B460022424B301C391C02F0A2FE03F0B4FC03F0E8FC00223E4B041C0D1C02F098FE021C0B1C301C391C03F02CF903F0A4FC534601C39A464346201C1A6817
:403EC0005B68291C01F020FF08235B429C46E044061C0F1CD845D5D1049B301C1A1C391C984600F0ADFDFF2300229B05041C0D1C02F070FE00F026FC0022274B02F06AFE51
:403F0000021C0B1C201C291C03F0FEF80D1C041C03F074FC824603F0A7FC021C0B1C201C291C03F0F1F8061C40460F1C002800DCCFE14B465A1E920010AB9B581825191CE4
:403F40002D1A29418A44A94017255B1A2D1A10A98B502B410593059B002B4CDD01239C464B46E244002B00DC18E380250E960F9710AB0021002409486D044E4619E0C04652
:403F80008CFDFFFF84810000FEFFFF3FFFFFFF1F0000703E0000704100002040FFFFFF00002A02D0AA1A1A600134013104338E4209DD1A68002CF3D0821A01311A600124F6
:403FC00004338E42F5DCB1460E9E0F9F049B002B0EDD012B00D187E1022B09D14B465A1E920010AB9B5810A90E939B029B0A8B50059B022B7AD0301C391C0022002300F0CA
:4040000035FF002800D192E04B46591E079B8B420FDC10AA94460022CE4B0D984B449B0063441C68043B22438342FAD1002A00D0E5E1079B10AA013B9B00D358002B00D069
:40404000AAE201220B9B043B596801320029FAD04B464A4401330592934241DCA7990C9A8A469A18920092440A9A06999146009A8B469446099A63449B1A24AA9046DB003C
:404080009844059BD944DB009B44039B43441C1C5346186803F0E8FB009B20606160002B21DB00260027029D2268636803CD02F091FD021C0B1C301C391C01F025FE083C8F
:4040C000061C0F1C4445EFD14B469E60DF6004239C460433E2449C46E144E044D945D4D1059B9946B8E600260027EDE7321C3B1C0020994903F008F8061C0F1C002C00D1E6
:4041000079E7049A0020944900F09AFC021C0B1C301C391C02F0F8FF061C0F1C301C391C0022002300F0A2FE002800D06CE753460993049B301C5A42391C00F081FC002281
:40414000864B041C0D1C00F0B5FE002800D12DE20022834B201C291C02F03CFD03F04EFB4B46061C9F0003F07FFB00227B4B02F031FD021C0B1C201C291C02F0C5FF03F06C
:404180003DFB10ABD85101234B449846049B10AA1833049343469B00D65000206E49049A00F04EFC4346041C0D1C002B00DAC8E09F0010AB9C464346DB0067449C460393DC
:4041C00072AB9946069E66440096386803F04CFB221C2B1C02F0FEFC002230607160604B201C291C02F0F6FC083E041C0D1C043F4E45EAD143460133029300239B464CAB94
:404200009946079B9A46434604935346002B00DA94E05B46002B00DA90E0524B009D984600260027002405E008239C460835E0445C4511DC4346186859682A686B6802F04A
:40424000C9FC021C0B1C301C391C01F05DFD0134061C0F1CA245E7DA5B46DB004B441E605F6001239C46009BE344083B0093029B9B45CAD1049B9846A69B022B00DD00E177
:40428000002B00DDD7E018D1039B00204B441C1C002145462268636801F036FD083C013DF8D2059B002B03D080231B069C4661440B1C021C08990A604B600720099B184059
:4042C0009D239B009D443CBC90469946A246AB46F0BD049B002B12D14B46013B9B0010AAD558EB15059336E64B465A1E920010AB9B5810A90E935B025B0A8B5078E6301CB5
:404300000022194B00F0D6FD002805D10023059371E60026002787E501239C46013305934B46E244002B00DD1FE6321C3B1C0020094902F0E9FE061C0F1C5CE60026002709
:404340008AE7A69B022B39DC002B0FDCB5D100200021A6E7FFFFFF3F0000F03F000070410000703E988100000000E03F059900220023002973D0802108980906591802606B
:4043800041604C984D9902F0BFFE4346002B0BDD012446464EAD0CCD013401F0B5FCA642F9DA059B002B03D080231B069C4661440B1C021C08998A60CB607EE74CAB994611
:4043C000A69B032B00D078E7059B00200021002B00D1D0E08024089A4C9B240613604B46A4465B686144634453604B469B68106193604B46DB6851616344D3605DE7534656
:4044000088460993434604999B0010AAD35818390491002B00D0C0E694464246684B43449B006344043B5868013A18390028F9D090460491B1E6039B00224B441C1C0023DF
:404440004AAD101C191C2268636801F05DFC083C021C0B1CAC42F4D1059900298BD1191C101C089C206061604C984D9902F04CFE4346002B8CDC0B1C021C08998A60CB6083
:404480001BE7A69B032B00D017E74346002B9BDD039B4B441E685F684A4B43449B46DB004B449A465346301C5C681B68391C009301941A1C231C01F027FC041C0D1C0098BD
:4044C0000199221C2B1C02F01FFE0B1C021C391C301C01F019FC53469860D9601C605D6008235B429C464AABE244261C2F1C9A45D8D14346012B00DC66E7039BCA464B44AA
:404500001E685F685B46DB009846C2445346321C5C681B6800930194181C211C3B1C01F0F3FB041C0D1C00980199221C2B1C02F0EBFD3B1C321C01F0E7FB53469860D960B5
:404540001C605D6008235B429C46E244261C2F1CD145DBD144460020002108344C444EAD22686368083C01F0CFFBAC42F8D1059B002B00D02EE74C9A4D9B089C22606360DF
:404580004B469A68DB6800920193A260E360021C0B1C2261636190E6012259E5002415E5099BDB00039374AB069346E44B46201C291C9E0003F022F910AB9851C846ECE501
:4045C000FFFFFF3FFFFFFF1FF0B54F464646C0B487B000920193464A4B00814688465B08934207DC4146484603F008F94146031E484664D04A4643464846414602F0EAFACA
:404600004A464346041C0D1C02F0E4FA394A3A4B061C0F1C201C291C02F0DCFA374A384B02F072FD221C2B1C02F0D4FA354A364B01F06AFB221C2B1C02F0CCFA334A344B71
:4046400002F062FD221C2B1C02F0C4FA314B324A01F05AFB0E9B02900391002B34D00098019900222D4B02F0B5FA029A039B04900591301C391C02F0ADFA021C0B1C04988C
:40468000059902F041FD221C2B1C02F0A3FA009A019B02F039FD224A041C0D1C214B301C391C02F097FA021C0B1C201C291C01F02BFB021C0B1C4846414602F025FD07B073
:4046C0000CBC90469946F0BD029A039B201C291C02F080FA124A134B02F016FD321C3B1C02F078FA4A46434601F00EFBE7E7C046FFFF3F3E7CD5CF5A3AD9E53DEB9C2B8A54
:40470000E6E55A3E7DFEB157E31DC73ED561C119A0012A3F1111813FA6F810110000E03F495555555555C53F49004B08191C7047034B48009C4640086044C00F7047C04646
:4047400000001080F0B55F464D4644465646F0B4484B4D006D0DEF1883B0061C0C1C88468B468146132F27DC002F54DB424D41463D4129400143021C231C002913D03F4AE8
:404780003F4B211C01F0C0FA0022002300F088FB002806D0002C4EDB5B46AB4398460023994643464A46101C191C03B03CBC90469946A246AB46F0BD332F0CDD0B1C80219A
:4047C000021CC9008F42EED1321C211C01F09CFA021C0B1CE7E701222A4B5242EB18DA40111C0192231C021C0142DCD0234A244B211C01F089FA0022002300F051FB002892
:40480000CFD0002C1CDB4B46019AD8469343994643464A46C7E7194A194B01F075FA0022002300F03DFB0028BBD0002C15DB002399469846B5E780235B033B419B44ABE723
:40484000142F13D0104B5D1B0123AB409946B144B1459B415B429B44D5E7002364006408264399469DD0094B98469AE701239C46E344C8E701FCFFFFFFFF0F009C7500887A
:404880003CE4377EEDFBFFFF330400000000F0BF0A1C031C024330B50220002A00D130BD80221206914216D00C4A04208C180C4A9442F4D90B4C0C199442F0D90A4A49009C
:4048C000490803209142EAD9064A00209142E6D158425841E3E7002BE1D0EFE70000F0FFFFFFDF7F0000F07FFFFF0F0000207047002001497047C0460000F87FF0B5474697
:4049000080B44B004A4A5B0D9D1882B0071C0C1CCE0F132D39DC002D59DB464F021C2F413B1C0B4003439C46B84667460B1C002F25D043465B081A1C0A4010430027002846
:4049400008D0132D00D16FE099438023DB022B4119430C1C3849F6008E19231C346875683A1C201C291C01F0CFF90090019100980199221C2B1C02F0C7FB021C0B1C101C4F
:40498000191C02B004BC9046F0BD332D0BDD0B1C8021021CC9008D42F1D1211C01F0B4F9021C0B1CEBE7254A9D1801235B42EB409C460B1C6146021C0142E0D04B080342EA
:4049C000C8D08027FF052F4198430743C2E74C0064080443021C0B1C002CD0D00903090B01434A4211438022090B12035B0C11405B04021C194310480B1CF10041180C6849
:404A00004D68201C291C01F07FF90090019100980199221C2B1C02F077FB4B005B08F6071E43021C331CAAE780273F068CE7C04601FCFFFFFFFF0F00D8810000EDFBFFFFE4
:404A4000F8B5314F161C3B1C0B40041C0D1C0A1C1B1520D14B005B0803431BD000222B4B02F0B8F82A4B041C0D1C0A1C9E4222DB0F403F153B1C2749363B9B198B4211DD81
:404A8000221C2B1C2448254900F056F8224A234B02F0A0F8F8BD22498B4222D01D499B198B42EDDC002B0BDD1E491B050A401343201C191CEEE71C4A1C4B02F08BF8E9E7D4
:404AC000191C353113DA1A4B9E42D9DC221C2B1C1548164900F030F8134A144B02F07AF8D8E7291C221C2B1C01F00EF9D2E70D4936330A401B051343201C191C00220D4B17
:404B000002F068F8C6E7C0460000F07F00005043B03CFFFFFE0700009C7500883CE4377EFF070000FFFF0F8059F3F8C21F6EA50150C300000000903C30B54A00DB0F5208F3
:404B4000DB071343191C30BD002243088B4274D303098B425FD3030A8B4244D3030B8B4228D3030C8B420DD3FF22090212BA030C8B4202D31212090265D0030B8B4219D3F8
:404B800000E0090AC30B8B4201D3CB03C01A5241830B8B4201D38B03C01A5241430B8B4201D34B03C01A5241030B8B4201D30B03C01A5241C30A8B4201D3CB02C01A5241B2
:404BC000830A8B4201D38B02C01A5241430A8B4201D34B02C01A5241030A8B4201D30B02C01A5241CDD2C3098B4201D3CB01C01A524183098B4201D38B01C01A5241430906
:404C00008B4201D34B01C01A524103098B4201D30B01C01A5241C3088B4201D3CB00C01A524183088B4201D38B00C01A524143088B4201D34B00C01A5241411A00D2014614
:404C4000524110467047FFE701B5002000F0FCF802BDC0460029F7D003B5FFF775FF0EBC4243891A1847C04603460B437FD4002243088B4274D303098B425FD3030A8B4276
:404C800044D3030B8B4228D3030C8B420DD3FF22090212BA030C8B4202D31212090265D0030B8B4219D300E0090AC30B8B4201D3CB03C01A5241830B8B4201D38B03C01A43
:404CC0005241430B8B4201D34B03C01A5241030B8B4201D30B03C01A5241C30A8B4201D3CB02C01A5241830A8B4201D38B02C01A5241430A8B4201D34B02C01A5241030AC8
:404D00008B4201D30B02C01A5241CDD2C3098B4201D3CB01C01A524183098B4201D38B01C01A524143098B4201D34B01C01A524103098B4201D30B01C01A5241C3088B4289
:404D400001D3CB00C01A524183088B4201D38B00C01A524143088B4201D34B00C01A5241411A00D201465241104670475DE0CA0F00D04942031000D34042534000229C46DB
:404D800003098B422DD3030A8B4212D3FC22890112BA030A8B420CD3890192118B4208D3890192118B4204D389013AD0921100E08909C3098B4201D3CB01C01A52418309AD
:404DC0008B4201D38B01C01A524143098B4201D34B01C01A524103098B4201D30B01C01A5241C3088B4201D3CB00C01A524183088B4201D38B00C01A5241D9D243088B42C2
:404E000001D34B00C01A5241411A00D20146634652415B10104601D34042002B00D54942704763465B1000D3404201B5002000F00BF802BD0029F8D003B5FFF715FF0EBC6F
:404E40004243891A1847C0467047C0468446101C62468C46191C634600E0C0461FB501F053FE002801D40021C8421FBD10B501F097FD4042013010BD10B501F045FE0028AF
:404E800001DB002010BD012010BDC04610B501F03BFE002801DD002010BD012010BDC04610B501F0C1FD002801DC002010BD012010BDC04610B501F0B7FD002801DA002078
:404EC00010BD012010BDC0468446081C6146FFE71FB500F073FB002801D40021C8421FBD10B500F0F7FA4042013010BD10B500F065FB002801DB002010BD012010BDC04620
:404F000010B500F05BFB002801DD002010BD012010BDC04610B500F007FB002801DC002010BD012010BDC04610B500F0FDFA002801DA002010BD012010BDC0469E2110B5CE
:404F4000C905041CFFF7F0FF002803D1201C00F02BFE10BD9E21201CC90500F0A7FC00F023FE80231B069C466044F2E7F8B54A00430244004E02C50F240E281C9B09120ED2
:404F8000C90FB7098D4240D0A01A002800DC84E0002A1CD1002F5CD15A0704D00F221A40042A00D004338022D2041A40281C002A24D00134FF2C00D17BE09B015B0AE4B299
:404FC0005B02E4055B0A2343C0071843F8BDFF2CE2D08022D204174301261B2808DC391C20223E1CC140101A8640771EBE410E439B1B5A0133D4281C5A07CFD1DB08FF2C9A
:405000001ED05B025B0AE4B2DAE7A11A002957DD002A3AD0FF2CBFD08022D204174301261B2972DD9B195A01E5D50134FF2C00D187E001218A4A194013405B080B43ABE791
:40504000002B36D08022D20313435B025B0AFF24B6E7013800283FD1DB1B5A01CBD59B019E09301C02F020FD05388640844223DC001B1F24321C431C201ADA408640131C94
:40508000741EA6410024334386E7002F00D183E70139002950D1DB19C5E7002820D1621CD2B2012A5EDDDE1B720128D5FE1A0D1CD7E7FF24002383E7694B241A33406BE792
:4050C000002958D1621CD1B201293CDDFF2A37D0FB185B08141C5FE7FF2C00D07CE75BE7002C1ED0FF2A23D08024E404404223431B285BDD0123FB1A141C0D1CADE7002EE5
:40510000AFD100230020002478E73A1CCA40944620223E1C511A8E406246771EBE41164380E7002B3ED0C0430028E4D0FF2ADFD13B1CFF240D1C2FE7FF2C00D06FE72BE711
:40514000FF2400235AE7002C5AD1002B7FD0002F00D121E7DB195A0100D44CE7404A0134134019E7002C15D1002B2FD1002F5DD03B1C0D1C10E7002C21D1002B53D0C943DF
:40518000002904D0FF2A4BD01B2957DD0123DB19141C48E7002B22D1002F4AD03B1C0D1CFF24F9E63B1C141C0D1CF5E61D1C2024C540201A8340581E83412B439BE7FF2A79
:4051C0002ED08024E40449422343DDE7002F00D1E2E6DA1B50013CD5FB1A0D1CDCE6FF24002F00D1D8E68022DB08D203134204D0FE08164201D1331C0D1CDB00FF24CBE696
:40520000002B0DD0FF24002F00D1C5E68022DB08D2031342F1D0FE081642EED1331CECE73B1CFF24B8E63B1C141CB5E6231C0020E4E6802300209B04FF24DFE61E1C2024BE
:40524000CE40611A8B40591E8B4133439FE73B1CA2E6131E00D0CEE600230020CEE6C046FFFFFFFBF0B556464D465F464446F0B443024500C70F83B08A465C0A2E0EB94667
:4052800041D0FF2E26D080231B042343DC00002398469B467F3E53465B025D0A53465A00DB0F120E9A4639D0FF2A33D080231B042B43DD0000237F3A5146B21A4646794017
:4052C000081C01921E430F2E00D976E07E4AB6009659B746002C30D108239846063B9B46D9E780230021DB03FF245B02E4055B0AC90723430B43181C03B03CBC9046994620
:40530000A246AB46F0BD002C28D104239846033B9B46C0E7002D1FD1022302E0002D11D10123B21A50464646784001921E430F2E27D86649B60089598F460C239846093B5D
:405340009B46A8E7281C02F0AFFB7622431F52429D40121A0023AFE70323ADE7201C02F0A3FB431F9C4076235B421E1A002398469B4690E70025D1469B465B464846022B89
:405380006FD10121FF2401400023AEE77E23019A5B429B1A1B2B6DDD01214B46194000240023A2E78023DB031C4249D18023DB0323435B025B0A391C96E763016D01AB4242
:4053C00037D389461A2001215B1B01241E1C49005B00002E01DBAB4201D35B1B214301380028F3D1581E83410B431D1C019C7F34002CCBDD6B0704D00F232B40042B00D06E
:4054000004352B0104D5019A314B8032141C1D40FE2C07DD4B460121FF241940002364E7251CAAE701214A46AB015B0AE4B211405BE7019A8946013A01921B200021C4E730
:405440001D4207D023435B025B0A391C4CE700256302ABD58023DB032B435B025B0A514642E7032B25D0012BC0D101210024014000233AE7291CD9402B1C019A9E3293403D
:405480005D1EAB410B435A0704D00F221A40042A00D004335A0105D54B46012101241940002322E701214A469B015B0A114000241BE7802301214A46DB032B435B020A403E
:4054C0005B0A111C10E7C046E881000028820000FFFFFFF7430270B542004C005D0AC30F4802120E460A240EC90FFF2A05D0FF2C08D00120A2420BD070BD0120002DFBD1F9
:40550000FF2CF6D10120002EF6D10120A242F3D1B542F1D18B4205D0002AEDD1281C431E9841E9E70020E7E7F0B543024D024A0044005E0A240EC30F6D0A120EC90FFF2C4E
:405540000DD0FF2A31D0002C0DD177427741002A23D1002D21D10020002F0BD107E0002E28D1FF2A21D0002A05D08B4207D0584201231843F0BD002DF9D08B42F7D194424F
:40558000F5DC04DBAE42F2D80020AE42F2D25842434101205B421843ECE7002FE5D048424141012049420843E4E7002D02D1002CCBD0DAE702204042DCE7C0464302F0B512
:4055C00042004C005E0AC30F4802120E450A240EC90FFF2A0FD0FF2C1AD0002A10D177427741002C29D0002F17D0484241410120494208430BE00220002E08D1FF2C07D033
:40560000002C0AD1002D08D1584201231843F0BD0220002DFBD1002AE1D08B42F4D1A242F2DC04DBAE42EFD80020AE42EFD25842434101205B421843E9E7002DD3D10020FE
:40564000002FE4D1E0E7C046F0B55F4656464D464446F0B445024600C40F83B00F1C6D0A360EA34645D0FF2E25D080231B041D4300239A46ED007F3E01937B025B0A984616
:405680007800FB0F000E994640D0FF2838D0802342461B041343DB00984600237F384A46019F30186240411C1F430F2F69D87D4EBF00F659B746002D45D108230193063B98
:4056C0009A46DAE793465346022B2FD15B46012400251C40FF236D02DB056D0AE4071D432543281C03B03CBC90469946A246AB46F0BD002D2CD104230193033B9A46BCE7B8
:4057000043465A4253410322D31AC8E742460123002AC4D0404602F0C7F94246431F9A4076235B42181A90460023B8E7032B00D1ADE0012B00D08CE05B4654461C40E4B268
:4057400000230025C7E70C230193093B9A4694E7281C02F0A9F97626431F9D4000237642361A01939A4688E780250024ED03FF23B1E74546CB469A46A5E7454693469A4651
:40578000A1E743462C041B0C9C46230C444626041C1C360C2F0C7443351C66467D4373437743EB18260C9E19B54203D980235B029C46674424043304240C1B199D016C1EEC
:4057C000A5419B0E360C2B43BD19AD011D432B0104D5012368081D400543081C031C7F33002B2CDD690704D00F212940042900D00435290103D52C4B1D40031C8033FE2B3B
:4058000017DD0124FF231440002564E78020C003054209D04346034206D1454605436D026D0A4C46FF2356E705436D026D0AFF2351E70124AD016D0ADBB214404BE77E2311
:405840005B421B1A1B2B07DD012400231440002541E7081C5A46C1E79E30291C8540D940681E85410D436B0704D00F232B40042B00D004356B0104D5012401231440002528
:4058800029E70124AD016D0A1440002323E78023DB031D4301245B466D0223401C1C6D0AFF2318E768820000FFFFFFF7F8B54A00430244004D02C00F240E061C9B09120E30
:4058C000C90FAD09FF2A00D175E001277940884250D0A01A002800DC8FE0002A1ED1002D00D075E05A0704D00F221A40042A00D0043380220120D2041A403040002A32D0E4
:405900000134FF2C00D184E09B015B0AE4B25B02E4055B0A2343C0071843F8BDFF2CE1D08022D20415431B287ADD01255B1B5A015DD59B019F09381C02F0B6F805388740A8
:40594000844269DC001B1F243A1C431C201ADA408740131C7C1EA74100243B43C2E7131E45D100230020DB08FF2C28D05B025B0AE4B2CCE7A11A00295BDD002A2ED0FF2CE8
:40598000B0D08022D20415431B2974DC2F1C2022CF40511A8D40691E8D413D435B195A0125D50134FF2C74D001217E4A194013405B080B4396E7002D00D088E785E7002B26
:4059C00027D08022D20313435B025B0AFF249EE701380028AAD0FF2CA5D183E7002D00D180E701390029D9D0FF2CCDD17AE75A0700D079E701203040B5E7002825D1621C9E
:405A0000D2B2012A55DD5F1B7A012DD5EF1A0E1C91E7FF2400237AE7624B241A3B4061E7291C2022C140101A8540681E85410D437CE7002946D1621CD1B201292BDDFF2A7C
:405A400026D0EB185B08141C4CE7002C15D0FF2A1AD08024E404404223431B284DDD0123EB1A141C0E1C62E7002F00D063E700230020002477E7012590E7002B39D0C043B4
:405A80000028EDD0FF2AE8D12B1CFF240E1C29E7FF24002367E7002C5AD1002B7FD0002D00D11FE75B195A01A1D53E4A0134134018E7002C15D1002B2FD1002D5ED02B1CDF
:405AC0000E1C0FE7002C21D1002B54D0C943002904D0FF2A4CD01B2958DD01235B19141C5DE7002B23D1002D4BD02B1C0E1CFF24F8E62B1C141C0E1CF4E61E1C2024C6406E
:405B0000201A8340581E83413343A9E7FF2A2FD08024E40449422343DDE7002D00D1E1E65A1B500100D41AE7EB1A0E1CDAE6FF24002D00D1D6E68022DB08D203134204D010
:405B4000ED08154201D12B1C0E1CDB00FF24C9E6002B0DD0FF24002D00D1C3E68022DB08D2031342F1D0ED081542EED12B1CECE72B1CFF24B6E62B1C141CB3E6231C00200D
:405B8000F1E6802300209B04FF24ECE61F1C2024CF40611A8B40591E8B413B439EE72B1CA0E6C046FFFFFFFB4202510A4200C30F120E00207E2A0DDD9D2A0CDC80200004FA
:405BC0000143952A0ADC9620821AD1400A1C58424240D0187047034A9818FBE7963A91400A1CF4E7FFFFFF7F70B5041E39D0C50F00D04442201C01F057FF9E23261C1B1A46
:405C0000962B07DC082801DD083884406402640AD8B21EE0992B0ADD0522211C121AD1400A1C011C1B318E40711E8E411643052801DD421F96400F4C3440720704D00F2263
:405C40001640042E00D0043462010ED4A401640AD8B26402C005640AED0704432C43201C70BD002500200024F3E7024B1C409F231B1AEBE7FFFFFFFB10B5041E35D001F07C
:405C800013FF9E21091A962909DC082830DD021C231C083A93405B025B0AC8B220E099290CDD0522231C121AD3401A1C031C1B339C40231C5C1EA34113431C1C052801DD5C
:405CC000431F9C400F4B2340620704D00F221440042C00D004335A010ED49B015B0AC8B25B025B0AC005184310BD00200023F7E763025B0AC8B2F3E79F21024A091A134088
:405D0000EBE7C046FFFFFFFBF0B5454657464E4694464C000A03C90FE0B488460E1C1903470FC500480A6146490F01436046520A1743C0005A00640D520DDB0F84469845F8
:405D400000D1A7E0A01A002800DC01E1002A3DD163460B4300D0D4E06B0700D188E00F232B40042B00D183E02A1DAA42AD4180236D427F191B043B404646151C002B00D16F
:405D80007CE0CC4B01349C4200D1FDE03A1CCA4BED081A405007640552020543120B640D002112030B0D1B056405120B1A436308C24CF60714401C43640064083443281C06
:405DC000211C1CBC90469946A246F0BDB94B9C42C2D080231B041943382800DDECE01F2800DD21E120220E1C6346121A9640C340334366469640321C561EB24113430A1C40
:405E0000C240EB1A9D42B6411D1CBA1A7642971B3B0200D497E07A02560A002E00D1B6E0301C01F041FE031C083B1F2B00DDB7E09E40371C28262A1C361AF240161C9D4023
:405E40003E439C4200DDB2E01C1B621C1F2A00DDD8E01F23291C1C1B331CA540A340D1406C1EA541D64019430D43371C002473E780231B043B40464600D082E78D4BED0809
:405E800078070543FA089C4232D012036405120B640D85E7A31A002B00DC94E0002A3CD0844A944200D157E7802212041143382B00DC05E163461943481E81410022C8B2A6
:405EC0004019A8429B41051CD2195B42D7183B0239D5784B01349C4200D14CE10120764A6B083A4028401843D5070543570833E72B1C134348D080231B031A431203120B99
:405F00004EE70138002878D16346EE1AB5429B417A1A5B42D71A351C7AE7021C0A4300D11AE7013B002B00D0F2E04019A8429B41CA195B42D718051CC9E7131C334300D10F
:405F400018E1171C351C46466B0700D007E795E700287AD1621C5205520D012A00DCFBE06246AA1A9542B6419146781A7242861A320200D493E06246551BAC458041CF1BBD
:405F800040423E1A984648E70022002508E7281C01F08AFD2030031C083B1F2B00DC47E7283885402E1C00259C4200DC4CE7424AE41A1640371CCFE6634619434B1E994151
:405FC0000022CBB21DE7002B00D0F2E0601C43055B0D012B00DCA4E0364B984200D121E163465C19AC429B41CF195B42FA186408D50725435708041CAEE62E4B9C4200D0E2
:40600000EAE6A9E6211C331C1F39CB40191C202A00D182E03F231C1BA64035436E1EB54100270D4300248EE7031C0E1C203BDE40202874D040231B1A99400B1C62461343F3
:40604000591E8B4100223343DBE6002C50D0194CA24200D1A8E08024240440422743382800DDD9E01F2800DD39E120243E1C241AA640B0462E1CA146C640444626434C4636
:40608000A5406C1EA541C74035436046451BCF1BAC45894149427F1A141C9846B8E64B464D46334300D0B8E60026002700240025E4E6C046FF070000FFFF7FFFFFFF0F8014
:4060C0001F2B5BDC2022081CD21A9040814660469246D8404A4610438146524660469040021C501E8241484610430A1CDA40E7E63C1C2C4358D0C043002851D16046451B69
:40610000AC458041CF1B40423F1A141C98467FE68F4A944200D0CAE61EE600267DE700238CE73B1C2B43002C00D0BDE0002B00D1F5E063460B4300D10EE663465B19AB422D
:406140008041CA19404217183A0200D4FCE0814A1D1C17400134FFE53A1C2A43002C51D1002A00D085E062460A4303D00F1C65469846F1E50026002700257FE6181C0A1C77
:406180002038C240202B00D1A7E04020C01A8140081C63461843411E8841104300228FE66B4CA24200D05AE70F1C6546141C9846D2E5002C3AD1381C284371D0DB43002BE6
:4061C00018D0634882426BD0382B00DD9DE01F2B00DDA7E020203C1CC01A8440A1462C1C8246DC404846044350468540681E8541DF402543654465459B417F185B42FF18DC
:40620000141C64E6002A19D162460A4377D00F1C654698464E4C9FE53D436F1EBD410027EDB232E7041C0027002527E64848824236D0802000045B420743C5E762460A43D9
:4062400049D08024ED087807FA0824032843224209D0CE08264206D162464F07381CD20810439846321CD200470F1743C500384C72E562460A4300D16EE56246AE1AB542BA
:406280009241781A5242821A100200D455E66246551BAC458041CA1B4042171A98465BE50F1C6546141C57E5002B34D063460B4311D08024ED087807FA082403284322424F
:4062C000D1D0CB082342CED162464F07381CD20810431A1CC7E71E4C3EE5002059E7041C3E1C203CE640341C20282BD04026301A87403D436F1EBD4100272543C5E68027E4
:406300000026FF03124C0025B8E53D436F1EBD410027EDB26EE70F1C65460D4C1CE50F1C654619E51C1C381C203CE040041C202B0CD04020C31A9F403D436F1EBD4100274E
:40634000254357E70027D4E71D1CFCE50027F3E7FF070000FFFF7FFFF0B55F4656464D464446F0B40F0387B098464D003B0BCC0F061C924681469B466D0D01946BD0664B1F
:406380009D4235D080275B467F031F43F3009946624BFF00400F9C4607430023BB46002665440093424617035000D20F53463F0B400D904600D172E0574A904267D0802305
:4063C0005B031F435346554A5B0FFF001F43944653460021DB0060444246624092462D1A0E430F2E00D9A1E04D48B600805987465B461E4300D076E000239B469946023365
:4064000008260093CEE799464346BB4601930091009B022B6BD1019B9A46002153460122002789461A403C4B00213F030C0D24053F0B27433B4C1B0527401F437F00D20703
:406440007F0817434846391C07B03CBC90469946A246AB46F0BD03433ED05B46002B00D19CE1584601F020FB2823311C1B1A021C5F46D940083A97400B1C96403B439B4638
:40648000B1460023284D00262D1A00938AE7524603213A43A0D10027002302219CE752463A4315D0002F00D185E1381C01F0FCFA021C28215046891A131CC8405146083BF6
:4064C00099409F400B1C074317480021801A83E70027002301217FE700239B4699460133042600935EE703230C2600935AE7032B00D13CE2012B00D0BFE11A1C019B1A40F3
:4065000000210023002789468EE700238027994600223F03004B87E7FF07000001FCFFFFA8820000FFFF0F800DFCFFFFBB4500D951E100D14CE14A46039200225C4690465F
:40654000013D180E3F0238431B020193030C994603041B0C4946061C201C1F1C0093FEF7F3FA021C7A4302904946201C171CFEF771FB039B09041B0C19438F420CD9029B44
:406580008919013B8E4200D952E18F4200D84FE1029B8919023B0293CC1B201C4946FEF7D3FA009F834647434946201CFEF752FB039A0B041404240C23439F420DD95A4603
:4065C0009B19013A9E4200D930E19F4200D82DE10222524294469B19E344029ADB1B17045A463A439346019C170C220C101C04925A4611042204120C141C090C7C430592C7
:406600004A43414347436118100C09188C4203D980204002844667440C0C12040804120C3C198118A34200D2E5E000D1DFE01F1B43465C1AA04592415242BF1AB74200D18E
:406640000EE1381C4946FEF77FFA009B029043434946381C9846FEF7FDFA230C0F041F43B8450CD9029BBF19013BBE4200D9FBE0B84500D8F8E0029BBF19023B0293434612
:40668000FF1A4946381CFEF75FFA009B039043434946381C9846FEF7DDFA24040904240C214388450CD9039B8919013B8E4200D9DCE0884500D8D9E0039B8919023B039382
:4066C0004346C91A029B039A1B04059C1A43100C13049146221C049F1B0C5A4344437B437843E318170CDB199C4203D980246402A44660441C0C12041B04120C00199B187D
:40670000814200D296E000D1FCE04A4601231A4391469B4BEB18002B00DC99E04A4652070AD00F2249460A40042A05D00431494592418946524293445A46D20106D55A46C2
:40674000904B1A4080239346DB00EB188E4A934200DD62E64A465946D208490711435A4689465702514601225B053F0B5B0D0A405AE680205A460003024208D0074206D16E
:4067800007433F0399463F0B4246804B4CE65F4607433F033F0B221C7C4B45E601F084F9031C2030272800DC5EE6083B9E400023B346994665E6504601F076F9021C2032DB
:4067C000272A00DC75E657460838874000237BE6994500D2AFE65A46594654084A46C8075208024303924A46D2079046A9E60027884500D31CE7019F5A46BC46E044B8457B
:40680000BF417F42BF19FF18013ABE4206D2BC425FD800D19FE03F1B934609E7B742FAD1019B4345F3D9371B934601E79346D4E60293B1E64A468919013A8E4218D9914662
:40684000814200D061E7019A9A4200D05DE760E74F4F7F1B382F13DD012253461A404FE601235B42994654E7029308E7039327E788423CD874D0914647E7019B9A4648E7BC
:406880001F2F44DC434B4A469C465B466544FA40AB4013434A46AA40151C6A1E95415A46FA402B43171C5A0709D00F221A40042A05D01A1D9A429B415B42FF18131C3A024B
:4068C0003ED55346012200211A40002701238946AAE502235B429C46019AE3449446E04490459B415B429B19DF193F1BA0E6019F4A467C00BC42BF417F42BF19023AC91906
:4069000001949CE7002B95D1002201929BE75A46214B5B1BDA40202F27D0204B9C465B466544AB4049460B43591E8B411343072200271A4007D00F2200271A40042AB8D1B3
:406940007A077F023F0BDB0813439946012253461A40002368E54145BBD89346002767E6019C9C42C3D391466DE70023DAE780275B463F031F433F033F0B019A034B53E50E
:40698000FF030000FFFFFFFEFE070000FF07000002FCFFFF1E040000E2FBFFFF3E040000F0B55F464D4644465646F0B41F035C00DB0F99461B4B0E034D00C90F8446360BFF
:4069C0006D0D8B4690463F0B640D9D420CD0154B9C4210D00123A54214D0181C3CBC90469946A246AB46F0BD311C01230143F4D10C4B9C42EED13A430123002AEDD1012371
:406A0000A542EAD1BE42E8D1C445E6D1CB4506D0002DE2D13043031C581E8341DDE70023DBE7C046FF070000F0B5574645464E46E0B40F034E00C90F8A4632491D035C0000
:406A400084463F0B760D90462D0B640DDB0F8E420FD08C4239D0002E10D13843414241418946002C27D12A4325D1002000290ED108E0391C01432ED1B44226D0002C0BD010
:406A80009A450DD05346594201231943081C1CBC90469946A246F0BD2A43F3D09A45F1D1A642EFDC1ADA504641424841012341421943081CEBE74A46002AE1D0584258416F
:406AC000012241421143081CE1E7291C114302D1002EC2D0D4E702204042D8E7AF42D1D809D00020AF42D2D2504641424841012340421843CBE7C445C4D80020C445F3D355
:406B0000C5E7C046FF070000F0B55F464D46444656468046F0B4061C0803000B84462C484C001F035D00C90F640D8B4691463F0B6D0DDB0F844212D0854225D0002C14D1DB
:406B400061460E4370424641002D35D0002E21D058425841012143420B43181C0EE06146022031430AD1A5420ED0002D12D13A4310D15B46594201231943081C3CBC904650
:406B80009946A246AB46F0BD391C02201143F5D1002CD5D09B45ECD1AC42EADC05DBBC45E7D80FD00020BC45E8D2584641424841414201200843E1E73A43C7D10020002E9F
:406BC000DCD1D6E7C845D4D80020C845EDD3D5E7FF070000F0B55F4656464D464446F0B4051C061C080387B099464F00030BCC0F92469B467F0D019467D06C4B9F4236D0D1
:406C000080205B4640031843C0006B0F1843684B83469C4600239846EE00674400934B4649461D03C90F5B0052462D0B5B0D894600D16EE05D498B4264D080205C4940038D
:406C40008C4600210543ED00500F0543D20063444846FF187B1C9A46009B604002900B430F2B00D9ACE053489B00C3589F465B461D4300D082E00823009300239B46023396
:406C800000269846CBE7029B01934346022B59D1012400250026019B1C40444B00212D030A0D12052D0B1543434A1B0515401D436D00E4076D082543301C291C07B03CBC30
:406CC00090469946A246AB46F0BD2B434ED05B46002B00D185E1584600F0E6FE021C2823291C9B1A161C5846D940083EB0400B1CB54003439B462E1C0023304F0093BF1A3B
:406D000098468CE7514629432ED10025002202219EE75146294323D0002D00D154E1281C00F0C2FE031C28215046C91A1A1CC8405146083A914095400A1C05431F48002160
:406D4000C31A85E7032B00D1C2E1012B00D06DE14446019B00251C40E4B2002300269DE700250022012173E7032171E70423009300239B4601330026984650E70C230093A6
:406D8000093B98464BE7802500242D030026074B84E74B46AB46161C0193884675E7029BAB46161C019388466FE7C046FF07000001FCFFFFE8820000FFFF0F800DFCFFFFB4
:406DC000330C3604360C9C46331C140C1204120C53439846634653439946634663430193331C41466343090C4B445B18994505D9802040028146019949440191190C039174
:406E000041460904090C1B045B1804932B0C9846331C2D04290C4B43604600934346654658435E43009B4D431B0C9946AE194E448446B54203D980235B029946CC44350C28
:406E40002B1C0398634484460593009B36041B041B0CF3189C446046039058460504060C280C84465043351C81466046654344434846000C8346724314195C44A24203D90C
:406E80008022520293465D44220CAD184A461204120C24044046A41862464A437143464360460096464670438046100C84468844E044414505D9802149028C460099614458
:406EC0000091019803998446614499429B415B4299460598434684461204120C1B049B1863449C46AB4683429B4140460A19CC44A2428941E344CC45B6415C46000C80460F
:406F0000494276425B426418334398448C428941AB459B4149425B4219430D1C009B4544EE187602E50D2E43B346049B56021E43731E9E415B46D20D324366021643DB013A
:406F40000AD50123334076081E435B46DB071E435B465B089B465746634BFB18002B5ADD720709D00F223240042A05D0321DB242B6417642B344161C5A46D20106D55A4632
:406F80005A4B1A4080239346DB00FB18584A934234DD0124029B00251C400026554B7DE680205B460003034208D0054206D105432D032D0B4C46161C4E4B6FE65D460543A8
:406FC0002D032D0B4B4B69E6504600F06DFD031C2033272B00DCA6E65546083885400022ACE6281C00F060FD021C2032272A00DC75E6083885400026AB467DE65A46F6082E
:40700000520716435A4601245502029A5B052D0B5B0D144042E6384DED1B382D0ADD0124029B00251C400026002337E6019B5746029391E71F2D25DC304B321C9C466744FF
:40704000BE405B46BB40371CEA407E1EB74113433B431E1C5B46EB401D1C730709D00F233340042B05D0331DB342B6417642AD191E1C2B0220D50124029B00251C400026D7
:4070800001230BE65A461E4BDB1BDA40131C202D1CD01C4A94465A466744BA40171C3E43721E96411E4307230025334007D00F2300253340042BD6D16B076D022D0B0124C2
:4070C000F6081E43029B1C400023E7E50027E6E780255B4601242D031D43019B2D0323401C1C2D0B034BD9E5FF030000FFFFFFFEFE070000FF07000002FCFFFF1E04000089
:40710000E2FBFFFF3E040000F0B54D4644465F465646F0B40E1C111C3203520A470F1743C5001A035800DB0F9946520A4B0F83B01A43CB000193CF4B7400F60F640DB04651
:40714000400D984200D1E8E00123494659400B1C9E4200D1B1E0261A002E00DC1CE1002842D1131C01990B4300D0E6E06B0700D18EE00F232B40042B00D189E02A1DAA4281
:40718000AD418023012641466D427F191B043B400E40151C002B00D183E0B64B01349C4200D116E13A1CB44BED081A405007640552020543120B640D002112030B0D1B05F9
:4071C0006405120B1A436308AC4CF60714401C43640064083443281C211C03B03CBC90469946A246AB46F0BDA24B9C42BED080231B041A43382E00DD03E11F2E00DD3FE102
:407200002020831B9946131C49468B409C46019B6046F34003430198F2408840011C481E81410B43EB1A9D4280411D1CBA1A4042171A3B0200D4A8E07A02560A002E00D16C
