:400000000040002011000000150600001506000008B500F019FBC04608B51222244B1A60302000F005FF234A234B1A60C0229200224B1A60224B234A1A60BC218901224A5D
:400040001160224A1A60A0214901214A1160214A1A6088218901204A1160204A1A60E82149011F4A11601F4A1A60822212061E4B1A608022D2021D4B1A6040221C4B1A6021
:4000800004321C4B1A60033A1B4B1A6002321B4B1A60013A1A4B1A6007201A4900F01AFE072000F0F1FD0022174B1A6008BDC046300010400600008004010B4000030140E4
:4000C0000000014040FF00801003014044FF00800403014041FF00800C03014043FF00800803014042FF008008010B4000010B404C0101402C010140280101401401014066
:4001000008010140951000000C020B4070B572B6002410E0424863001A195200821891881B195B001A5AC31858880004104300F0F3FA0134E4B2012CECD93949081C0C3060
:400140002C3100F0CFFA80225200364B1A800124354B1C70FD3A354B1A60EE210902344B1960EE21334B19605539334B196099231B0432490B60324832490860A820C003B2
:400180003149086031490B60802080023049086030490B6030483149086031490B60A0210903304B1960304B187802250221014319702E4E31783C208143283801433170E5
:4001C0001878162101431970FF2329490B60294829490860F02000022849086028490C600420284908607C302749086027490B6027490B60274B1A602749284B1960284B67
:400200001A60284A284B1A60284B1D603122284B1A60284B1D60FFF7FFFE00F093FA70BD401E000000600F4002600F400000024000030240000402400007024000500F40B5
:400240000000A8AA04500F4008500F4010500F4014500F4020500F4000004EE428500F4030500F4034500F4000700F4001700F400000044026494A00080004400C0004400E
:40028000000104400801044018010440000204401802044000030440A40D00000803044000040440240003000804044000070440080704401807044010B5064C2378002BC7
:4002C00007D1054B002B02D0044800E000BF0123237010BD4801002000000000841D000008B5084B002B03D00748084900E000BF07480368002B00D108BD064B002BFBD051
:400300009847F9E700000000841D00004C010020C800002000000000074A13789B00DBB24000081803210140194311700F200140024B58567047C04664010020881D000010
:4003400010B500F075FF83070ED000F069FF0124044000F065FF8107C90F201CFFF7DCFF024A5368C018506010BDC04664010020024B00225A601A727047C046640100208C
:4003800008B5024800F04CFC08BDC04641030000F0B585B000F02AF91B4BDB68C01AFA239B0098422DD900F021F9174FF8607C683B69E41A154D164B10331E1C00937C2327
:4003C00001930294281C80214900124A124B01F0C7F8281C00F0B0FF24B263011C1964000096802301930294281C802149000B4A094B01F0B5F8281C00F09EFF7B683B615E
:400400003C7205B0F0BDC0466401002014020020881D0000B41D0000EC1D0000001E000008B5FFF7B5FF024B0820185608BDC04664010020632806DC031C643001DA104B5E
:400440001B785BB200E06423002B05D09803C01A8000C01A80B200E0002003B2094A94466344094A934209DCC8229200934202DD604480B203E0C820800000E003487047AB
:400480003C1E0000DC05000097080000980800007047C04608B500F0B3FE08BD08B5FFF7C9FF00F059FE08BD08B5FFF7B9FF633003DBFFF7B5FF632805DCFFF7B1FF633030
:4004C00001DBFFF7ADFF08BD10B5041CFFF7ECFF00202056FFF7E2FFFFF7A2FF10BDC04608B503480021452201F031F808BDC0467801002008B500F057F945200421024A3B
:4005000000F0C2F908BDC04678010020032070470022014B1A807047C001002008B5FFF7F5FF064B1880830701D5FFF729FF034B1B88DB0701D5FFF7ADFF08BDC001002033
:4005400000B583B000226B46DA7162B6FFF7E0FF00F02CF8FFF7C4FFFFF70AFFFFF798FF00F04AF800F028F800F050F8FFF7C2FFFFF7D4FF9C230CE06B46D81D002303704E
:40058000FFF7A2FFFFF704FFFA20400000F0DAFB01235BB2642BEFDDECE7C046024A1368013313607047C046C40100200022014B1A607047C401002010B500F0EDFC0948A4
:4005C00000F08AFC00240AE0201C00F0FDFC002804D1201C044900F0EFFC02E00134042CF2D910BD80BB00009D050000014B18687047C046C401002008B5034800218022FC
:40060000520000F0A4FF08BD1402002008B500F02DFE08BDFEE7C04608B5031C084A1068C318084A9A1A802A02DC054A136005E000F058FF0C2303600120404208BDC04655
:40064000CC0000203003002070B50F4E0F4D13E029686B68AC68002202E001C901C30432A242FAD1E868002202E0002102C304328242FAD11035013E002EE9D100F038FFE9
:40068000FFF75EFFFEE7C046010000000020000008B50F4A136801218B43136000230AE0032B03D89A000B49505800E00A4899000A4A885001332F2BF2D9FFF727FD0022AF
:4006C000074B1A60024A116801230B43136008BD00001040000000001506000000000020C0000020F0B50025002711E0BB00C658F3B2FF22964308E06A008A181478A419BD
:40070000527822700135013BDBB2002BF4D10137072FEBD9F0BDC04608B50A1C002100F016FF08BD064B1B68002803D080221206134301E05B005B08014A13607047C046C2
:4007400080033A4008B50323074A1360074A1360FC33074A1360074A13600022064B1A600120FFF7DFFF08BD300030403000314000033A4040033A40000E3F4008B50820C6
:4007800000F082FA08BDC04608B500F01DF808BD08B5044A1368802109060B431360FFF7EDFF08BD0000244008B5064B1B78002B04D1FFF7E9FF0122024B1A70FFF7E8FF23
:4007C00008BDC046C801002010B50024194B1C60194A1A4B1A601A4B1A4A13601A4A14601A491B4A11601B4A13601B4B1C60082000F054FA0820032100F07EFA0820174991
:4008000000F068FA164B1C60164B1C605222FF32154B1A60154B1C60154B1C60154B1C60154B1C70154B1C70154B1C80154B00221A7010BD0000244000080040600024407C
:400840000701008000032440040324401000FE00100324400002244004022440B9080000C80E2440880E2440480F2440080F2440C80F2440880F2440180300201C030020EE
:40088000160300201403002070B5061C0D1C141E0BD0082000F002FA044B1C60044B1E80044B1D80082000F0EFF970BD20030020240300201A03002070B5A94B1B68002BD8
:4008C00000D09847A74B1C88A74B1D68A74B1E680223FF331D4235D0A54A13685B005B081360A44B1A7820218A431A70197810220A431A70A04B1B68DB060BD49F4B1A7811
:40090000984B1B889A420AD09A4A117808230B43137004E0974A117802230B431370984A1168984B0B4013600023974A1360924A1360964A13708E4A1368802109060B4358
:40094000136009E1F30602D50022914B1A600A23334200D192E08F4B1B685B0758D58E4B1A688A4B1B78002B17D0012B49D18B4B1B88002B0DD00121894B1960894B1B689F
:400980001B19D2B21A700134844A1388013B13803AE00222824B1A6036E0834B1B8893422BD901217E4B1960804B1B88934202D99B1A9BB200E0002378490B80072B03D8C3
:4009C0000121724B197014E0082B09D16C490B68A020000203430B6000216B4B196008E067490B688020800103430B600821664B1960624B1A70141C06E00222684B1A60D5
:400A000002E0002000F054F90422694B1A6035E05B4B1B689B0431D5B3070DD5654B1B681F211940564A1068564B03401360012014E00821012011E0584B1988083989B259
:400A400019800829F5D8002008E0564B1B681B19514A1268D2B21A70013401390029F4D1002808D1464A1368802109020B4313600022454B1A600C224D4B1A60B3074AD541
:400A8000EB0615D50023404A13603B4A13603B4B1B78A34201D1022300E00A232B40354A11780B4320218B4313700022374B1A706B062ED52F4A117820230B4313702F4BBC
:400AC0001B781C1C3C4A1268D20612D5364A1288D31A324A1380394B1A68802149020A431A601968364A0A401A601022224B1A6002E00422244B1A600122324B1A60324939
:400B0000194B196031490868102303430B60244B1A60154B1D60154B1B685B071CD51F4B1B88002B0CD01F4B1B681B191B78DBB2274A13600134194A1388013B138002E0F1
:400B4000FF22234B1A60234B1B681F221340082BE5D10F3A204B1A60024B1C8070BDC046CC01002016030020400F2440000E2440000024401C030020880F24401403002094
:400B800060002440FF5FFFFFC80F244018030020880E2440CC0F244040032440D00100206C00244020030020240300201A030020C00F244008032440640024400402244063
:400BC000FFFFFEFF800E2440FF0F0000480F24404002244008022440800F2440014B18647047C0460000002010B5041C00F031F8044A1368C0218B43A4011C43146000F0B5
:400C00002CF810BD00E400E00122014B1A60704700E100E00122014B1A60704780E100E010B5041CFFF7F6FF201CFFF7D7FF0320FFF7DAFFFFF7E8FF10BDC0460000000043
:400C40000230800803D00138FDD1C046C046C0467047EFF3108072B6704780F310887047034B18688023DB05184000D00120704700002240024A1168024B0B4013607047CA
:400C800000002240FFFFFFBF1F2318401E3B8340181C014B1860704700E100E01F2318401E3B8340181C014B1860704780E100E001BE704738B5041C0D1C0F2802D900206C
:400CC000FFF7F6FFA40080239B059C4664442068256038BD38B5041C0D1C1F2802D90020FFF7E6FFA400034B9C4664442068256038BDC0464000002070B5041C0E1E032EBD
:400D000002D90020FFF7D4FF1F2C02D90020FFF7CFFF03252540ED000635FFF79AFFA408A400074B9C46644423680322AA409343AE40351C1D432560FFF78FFF70BDC0462A
:400D400000E400E010B5041C06E0084B1868FFF777FF074B9C46644480231B029C42F4D8024B58686043FFF76BFF10BDD00000200080FFFF30B583B000F036F9002845D0A0
:400D8000FFF767FF041C00230AE0214A11683F220A402049C95C8A4201D1033303E001332D2BF2D903231C4A1268D20606D11A4802681F218A4313390A430260174801682E
:400DC000174A1140174A53438022D20194466344DB0B013B5B055B0D0B43A022520313430360114D2B680193302000F0B1FA0F4A13688021C9050B431360A0204000FFF7E2
:400E0000A1FF019B2B60201CFFF727FF03B030BD2CFF0B40741F000034FF0B400800224000F8C0FF40420F00300010400000224030B587B0041CFFF70CFF051CFFF710FF75
:400E4000002803D0FFF716FF012100E00021104B1B6800930F4B1B680193033C0E4B1B5D02930E4B1B68039304AA0D4B04936B4605930C4B1A600C480C4A10601B680129D2
:400E800001D1FFF777FF281CFFF7E7FE07B030BD08010B4000010B40741F000030001040B6EA0000080010401700008004001040024A116802230B431360704710E000E069
:400EC00008B5FFF7F5FF034A116801230B43136008BDC04610E000E00002000A014B18607047C04614E000E0012805D1054A116804230B43136004E0024A136804218B4357
:400F00001360704710E000E0024B1868C003C00F7047C04610E000E010B5FFF7F5FF01280BD107E0A300054A9B58002B00D09847013400E00024042CF4D910BDD401002079
:400F40000022014B1A60704718E000E008B5002304E0990000200D4A88500133042BF8D90F200B49FFF7A6FE0120FFF7BDFF094BD868FA21890000F023FAFFF7ADFFFFF74D
:400F8000DFFF0F20FFF780FE08BDC046D4010020190F0000D000002008B5064B5B69002B04D1FFF7D3FF0122024B5A61FFF788FF08BDC046D4010020024A8300985899502E
:400FC0007047C046D40100208000014BC0587047D4010020034B1868C0231B02184000D00120704700010B40034B1B68002B01DA012000E0002070470000224008B5FFF7D1
:4010000028FE044A1368C02109020B431360FFF724FE08BD00010B4010B5FFF71AFE08490A68084B1A408024E40122430A600A6813408022120213430B60FFF70EFE10BD45
:4010400000010B40FF3FFFFF70B5061CFFF701FE041CFFF7BFFF002803D0FFF7DDFF012500E000250848331C0340084A106808490840184310601368012D01D1FFF7BEFFA2
:40108000201CFFF7EAFD70BD0404040010020B40FBFBFBFF10B5244B1B685B0715D5234B1B685B070ED5224B9969042001401F4C22688A4322609A6982439A61DB68002B0F
:4010C00000D098470420FFF7BFFF174B1B685B0518D5164B1B685B0510D5154B99698022D2001140114802688A4302609969114A0A409A611B69002B00D098478020C00095
:40110000FFF7A2FF084B1B685B030CD5074B1B685B0304D5064B5B69002B00D098478020C002FFF791FF10BD10020B40E0000020EC010020FFFBFFFF0004000C014B18601D
:401140007047C046080120400004000C014B18607047C046140120400004000C014B18607047C0460C01204038B5041C0D1CFFF770FDAC40024B1C60FFF76FFD38BDC0469A
:401180000800204008B5FFF764FD064A116801230B431360FFF761FD01201821FFF7E4FF08BDC04600002040014B18607047C0463801204010B50D4C8023DB04236023688B
:4011C00023600020FFF7B8FF236823600C22084B1A600120FFF7E8FF3122064B1A600648FFF7B2FF0548FFF7B7FF10BD000120402401204028012040204E0000DC05000001
:4012000008B5064B1B78002B04D1FFF7D3FF0122024B1A70FFF7B6FF08BDC04608020020024B18680006800F7047C04604000440034A1068C0231840106080097047C0468E
:401240001000044008B500F06DF808BD08B500F01DF808BD08B5044A1368802109060B431360FFF7EFFF08BD0000274008B5064B1B78002B04D1FFF7E9FF0122024B1A703C
:40128000FFF7E8FF08BDC0460902002010B5134A134B1A600023134A13600121124A1160124A13480260072412480460124803601248016012490A60124A13600421124AF0
:4012C0001160124A1360124A1360124A1360124A1360124A1360124A136010BD0B000002000027404000274048002740070000800003274004032740100327404400274088
:40130000000227400402274050002740880E2740C80E2740480F2740080F2740C80F2740880F274003490B68F0229343603A13430B6070470007024038B5051C002402E058
:4013400000F030F80134285D0028F9D138BDC04638B5041CFFF77DFC051C102C05D8104A136803218B43136016E0202C07D80C490B6803229343023A13430B600CE0302C95
:4013800007D807490B6803229343013A13430B6002E00020FFF78CFC281CFFF75EFC38BD30001040044B1B681F221340082BF9D0024B18607047C04608022740400227400D
:4013C000002243088B4274D303098B425FD3030A8B4244D3030B8B4228D3030C8B420DD3FF22090212BA030C8B4202D31212090265D0030B8B4219D300E0090AC30B8B427C
:4014000001D3CB03C01A5241830B8B4201D38B03C01A5241430B8B4201D34B03C01A5241030B8B4201D30B03C01A5241C30A8B4201D3CB02C01A5241830A8B4201D38B023C
:40144000C01A5241430A8B4201D34B02C01A5241030A8B4201D30B02C01A5241CDD2C3098B4201D3CB01C01A524183098B4201D38B01C01A524143098B4201D34B01C01AB1
:40148000524103098B4201D30B01C01A5241C3088B4201D3CB00C01A524183088B4201D38B00C01A524143088B4201D34B00C01A5241411A00D20146524110467047FFE70D
:4014C00001B5002000F00CF802BDC0460029F7D003B5FFF775FF0EBC4243891A1847C0467047C046014B18687047C046440100200E4B70B500251E1C0D4CE41AA410A5427A
:4015000004D0AB00F35898470135F8E700F066FD084B00251E1C084CE41AA410A54204D0AB00F35898470135F8E770BDE81F0000E81F0000E81F0000F01F0000002310B504
:40154000934203D0CC5CC4540133F9E710BD031C8218934202D019700133FAE7704700000CB430B5174B9DB01D68002904DA8B2301202B6040421FE0822302AA9B00938132
:40158000002302901061994200D04B1E9360536101235B42D3810C1C21AB111C281C209A019300F071F8431C01DA8B232B60002C02D00023029A13701DB030BC08BC02B047
:4015C0001847C04644010020F0B58E6885B0071C0C1C03920193B34245D390238A89DB001A423DD003250969236801985B1A029363695D43EB0F5D19029B6D1001331B18A1
:401600009D4200D21D1C381C53050FD5291C00F01DFB061E13D0029A2169FFF78FFFA289184B134080221343A38111E02A1C00F065FB061E0CD1381C216900F0C1FA0C23F5
:40164000402201203B60A38940421343A38117E0029B2661F61826606561019EED1AA560019BB34200D2019E321C2068039900F092FA0020A3689B1BA36023689E19266068
:4016800005B0F0BD7FFBFFFFF0B59FB0029005938B890E1C171C1B0610D50B69002B0DD1402100F0D3FA30603061002804D10C23029A01381360D0E040237361002306ADCE
:4016C0006B6120336B761033AB763C1C2378002B03D1E31B049312D003E0252BF9D00134F4E7049B0298311C3A1CFFF76DFF431C00D1ACE06A69049B944663446B612378BD
:40170000002B00D1A3E00122002352426A6002A95432521801342B60EB60AB601370AB654F4F2178381C052200F02AFA002808D0C01B01278740381C2B68013418432860B3
:40174000EEE72B68DA0604D55322202102A8121811701A0704D553222B2102A81218117022782A2A01D0099B0EE0059A111D12680591002A01DB099204E05242EA60022278
:4017800013432B60013409E02278303A092A04D80A214B4301349B18F6E7099323782E2B18D163782A2B09D1059B02341A1D1B680592002B0DDA01235B420AE000230134DA
:4017C0002278303A092A04D80A214B4301349B18F6E70793234F2178381C032200F0D0F9002807D0C01B40278740381C2B6801341843286021781C480622671C297600F043
:40180000BFF9002812D0194B002B06D10722059B073393430833059314E005AB00930298291C321C124B00E000BF07E005AB00930298291C321C0E4B00F08AF80390039B21
:40184000013304D06B69039A9B186B613DE7B3890B985B0601D5012040421FB0F0BDC046A61F0000AC1F0000B01F000000000000C9150000F7B5171C01930A698B6800906B
:401880000C1C934200DA131C221C3B6043321278002A01D001333B6023689B0602D53B6802333B60062523681D401ED0231C43331B785A1E9341226892061CD53020E11819
:4018C0004031C870211C5A1C45310978A21840320233D1700FE0221C0123009801991932089EB047431C0ED00135E3683A689B1A9D42F0DBDAE7221C009801994332089D7E
:40190000A847431C02D10120404220E006232068E1683A6803400025042B03D18D1AEB43DB171D40A3682269934201DD9B1AED180027AF420ADA221C0123009801991A32D9
:40194000089EB047431CDED00137F2E70020FEBDF0B58BB006920A1C43320793059004920A7E0C1C109B6E2A00D1A8E011D8632A22D009D8002A00D1B2E0582A00D0C2E0E3
:4019800045310A707C4A4FE0642A1DD0692A1BD0B9E0732A00D1A7E009D86F2A29D0702A00D0B0E0202209680A43226037E0752A1FD0782A33D0A6E00E1C1A684236111DAA
:4019C000196013683370A1E021681A68080606D4490604D5111D19600023D55E02E0111D19601568002D3BDA2D23049A6D42137036E021681A68080606D4490604D51568A1
:401A0000111D1960ADB202E0111D196015685A4B227E03930A276F2A1DD108271BE0221C782145321170554A19680392081D226818600D68100602D4500600D5ADB2D3076D
:401A400002D520231A4322601027002D03D1202322689A432260231C002243331A7002E00A27454B03936368A360002B03DB0422216891432160002D02D1049E002B0ED0E9
:401A8000049E281C391CFFF721FD039B013E5B5C281C3370391CFFF793FC051EF1D1082F09D12368DB0706D563682269934202DC3023013E3370049B9B1B23612BE00968B1
:401AC0001A68080607D4490605D5111D19601368A28A1A8004E0111D1960136862691A600023049E236116E01A68111D196016680021301C626800F043F8002801D0801B43
:401B00006060636803E0261C42363270012323610023049A1370079B05980093211C069B09AAFFF7A7FE431C02D10120404221E0236905980699321C079DA847431CF4D04F
:401B400023689B0705D4099BE068984212DA181C10E00025E368099A9B1A9D42F3DA221C0123059806991932079EB047431CDCD00135EFE70BB0F0BDB71F0000C81F000054
:401B8000C9B28218904204D003788B4202D00130F8E70020704710B5814208D28B18984205D29B1A013A09D3995C8154FAE70023934203D0CC5CC4540133F9E710BD000050
:401BC00030B500293ED004390B68002B00DAC9181D4A1368141C002B02D14B60116031E099420DD208680A189A4203D11368C3180B6053684B60216024E08A4203D8131C78
:401C00005A68002AF9D11D685C198C420BD10968691858181960904214D110685268091819605A600EE08C4202D90C23036009E008680C18944203D114685268001908602B
:401C40004A60596030BDC04610020020032370B5CC1C9C430834051C0C2C01D20C2405E0002C03DA0C2300202B6042E08C42F9D3204A1368101C191C002913D00A68121BBD
:401C80000DD40B2A02D90A608B181FE08B4202D15A6802601BE04A685A600B1C17E00B1C4968E9E7144E3368002B03D1281C00F04BF83060281C211C00F046F8031C421C07
:401CC000D0D00322C61C964386420AD11C60181C07210B301A1D8843821A0AD05142995007E0311A281C00F02FF8431CBAD0331CECE770BD100200200C020020F8B5061CC6
:401D00000C1C151C002904D1111CFFF79FFF041C18E0002A03D1FFF753FF2C1C12E000F025F8A8420ED2301C291CFFF78FFF071E07D0211C2A1CFFF701FC301C211CFFF716
:401D40003FFF3C1C201CF8BD38B50023064C051C081C2360FEF760FC431C03D12368002B00D02B6038BDC046280300200B1F1A68101F002A04DA891804390B68D01804387F
:401D8000704700000000000000FF0100010000FFFF0000010001FF00456E636F6465725F43616C63756C61746556656C6F636974790000005B46494C45203A2025732C2097
:401DC00046554E43203A2025732C204C494E45203A2025645D3A2044656C746120436F756E743A20256C640A0D0000002E2E5C736F757263655C656E636F6465722E6300E8
:401E00005B46494C45203A2025732C2046554E43203A2025732C204C494E45203A2025645D3A204D657465727320706572205365636F6E643A20256C640A0D009C00000008
:401E400000300F40000400400F40000436300F4027310F4008330F4002400F4002410F400E420F400B430F4002600F400107040A06051505170219041A0F1B03200822074D
:401E8000240626092F073008310432043302340235013601580459045F018404860887088B01900192029304941096209702980299089A019F08A308A408A604AC20AE1017
:401EC000B108B301B43FB504B63FB702B8A0BE50D804D904DB04DF010220071009200EA81108130215401704184019081A081B401D601F80202021122482250C267027125C
:401F000029402F80310832203664370138023D286D606E086F0589088C40C024C272C4ACCA88CCF6CE61A902AB40AC10AD10B204B440E280E80F5304D4208B0497085108CA
:401F40005420560258245C086208661088088D08D407D607D803E001E40819088908A820AA08AC04AE10B020B602C608E201E80310011101030405060708090A0B0C0E0F07
:401F8000101112131415161718191B1C1D1E1F2021222325262728292A2B2E2F30313233343500004300232D302B2000686C4C006566674546470030313233343536373893
:401FC00039414243444546003031323334353637383961626364656600000000F8B5C046F8BC08BC9E467047E102000091060000F8B5C046F8BC08BC9E467047B9020000F0
:4020000010200000C800002080000000E801000000000000300300200000C05D80BB000030000000006CDC02040404000000000000000000000000000000000000000000EE
:40204000000000000000000000000000A41F00000000000000000000000000000000000000000000000000000000000000000000000000000000000000000000000000009D
:40208000000000000000000000000000E40000200000000000000000000000000000000000000000000000000000000000000000000000000000000000000000000000001C
:4020C00000000000000000000000000000000000000000000000000000000000000000000000000000000000000000000000000000000000000000000000000000000000E0
:40210000000000000000000000000000000000000000000000000000000000000000000000000000000000000000000000000000000000000000000000000000000000009F
:40214000000000000000000000000000000000000000000000000000000000000000000000000000000000000000000000000000000000000000000000000000000000005F
:40218000000000000000000000000000000000000000000000000000000000000000000000000000000000000000000000000000000000000000000000000000000000001F
:020000040001F9
:0200000490303A
:020000000C26CC
:0200000490402A
:4000000000000000000000000000000000000000000000000000000000000000000000000000000000000000000000000000000000000000000000000000000000000000C0
:400040000000000000000000000000000000000000000000000000000000000000000000000000000000000000000000000000000000000000000000000000000000000080
:0200000490501A
:0C000000000211E611A1000111F01DC763
:0200000490600A
:0100000001FE
:00000001FF