:400000000040002011000000950900009509000008B500F0DBFCC04608B51222224B1A60302001F0C5F8214A214B1A60BC229201204B1A60204B2149196021490A60214980
:40004000196021490A60214A1A6088218901204A1160204A1A60E82149011F4A11601F4A1A60822212061E4B1A608022D2021D4B1A6044221C4B1A60013A1C4B1A60013AB7
:400080001B4B1A60013A1B4B1A60013A1A4B1A6007201A4900F0DEFF072000F0B5FF0022174B1A6008BDC046300010400600008004010B40100301400000014044FF008092
:4000C0000C03014043FF00800803014042FF00800403014041FF00800003014040FF008008010B4000010B40300101402C010140280101400C010140080101402914000017
:400100000C020B4010B572B6002410E0454863001A195200821891881B195B001A5AC31858880004104300F0D7FC0134E4B2012CECD93C49081C0C30283100F095FCC02207
:400140009204394B1A60394A394B1A60EE22394B1A6099221204384B1A60384B38490B60AA2000043749086037490A60A0210905364A116080218905354A1160354A1360AE
:4001800080239B04344A1360344A136080229200334B1A60334A344B1A60344B197802220A431A70324802783C218A4328390A430270197816220A431A70C0222D4B1A70AC
:4001C000D82212012C4B1A6080232C4A13602C492C4A11602C4A13607F222C4B1A60C92252032B4B1A60F02212012A4B1A600F22294B1A601332294B1A60294A294B1A60A7
:40020000294B02221A600132284B1A602132284B1A60C3229202274B1A60FFF7FDFE00F03DFC10BD709000000002024090EE0200000302400004024000500F400400990075
:4002400010500F4014500F4020500F4024500F4028500F4030500F4034500F4038500F403C500F401EEE0E002001204000700F4001700F40D8320F4008000440000104407B
:400280004E020000080104401801044000020440080204400C0204401802044000030440B03D0300080304401803044000040440080404400805044010B5064C2378002B55
:4002C00007D1054B002B02D0044800E000BF0123237010BDA0090020000000002090000008B5084B002B03D00748084900E000BF07480368002B00D108BD064B002BFBD0E2
:400300009847F9E70000000020900000A4090020C800002000000000074A13789B00DBB24000081803210140194311700F200140024B58567047C046BC0900203090000026
:4003400010B501F03FF983070ED001F033F90124044001F02FF98107C90F201CFFF7DCFF024A5368C018506010BDC046BC090020034B00225A601A81DA601A617047C0469D
:40038000BC09002008B5024800F00CFE08BDC04641030000014B188900B27047BC09002010B500F07FFA144BDB68C01A282822D900F078FA104CE06063682069181AFA2377
:4003C0009B005843282102F063FC00B202F0F0FD04F054FC094A0A4B03F098FD04F0AAFB80B2208163682361606800F0CFF9208900B200F0D7F910BDBC090020C7711CC705
:40040000719CFA3F08B5012001F050F908BDC04608B5002001F04AF901F0BCF808BDC04608B5FA239B005843FA21C90002F030FC80B20B4BC3189BB20A4A93420CD90A4BED
:400440009C46604480B2031CC8229200904201D2064B1B8898B200E0054801F047F808BD44FDFFFF67F70000DC05000040900000980800007047C04608B500F013FA084B6C
:400480005860074B9B78002B06D100F00BFA044B5B68C01A0928F4D9014B9878C0B208BDD009002038B5051C8900064BCC580020A0470120A047281C00F0BAFE0020A047A4
:4004C00038BDC0464490000010B513490301CB185A890B889BB29A4201D20A8892B20E490301CB185A811B890A8892B2934201D90B889BB2084A000111180C1C0B811188F2
:4005000089B21018103000F027FAE0603A2102F02FFB80B210BDC046D009002010B5002423E00022124B9A70201C01F089F80A20211CFFF7B7FFFFF79FFF002813D0201C41
:40054000FFF7C2FF011C201C00F034F900F0AAF9074B9B6CC01AFA239B00984203D900F0A1F9034B98640134E4B2032CD9D910BDD0090020F0B587B0061C00920193101C84
:40058000191C0C9A0D9B03F0C1FCB26AF36A02F057FD041C0D1CB462F562336802937768802212069446BC4462460492029A634602F076FC002804D0029A049BB262F36269
:4005C0000CE0201C291C029C221C3B1C02F07CFC002803D0221C3B1CB262F362009C019D201C291C326A736A03F02AFF0C9A0D9B03F04EF802900391B068F1680094019560
:40060000221C2B1C03F082FC041C0D1C30697169B26AF36A03F07AFC04900591B069F169029A039B03F072FC02900391201C291C049A059B02F004FD029A039B02F000FDED
:4006400030637163009B019C3362746207B0F0BD044BFD2292051A60FC2292055A60024A9A6070471C0A00200AD7A33BF0B54F464646C0B4C7B08720400002AB9C46604451
:4006800000F07AF800F00EF9274BDB68C41A322C44D900F007F9244B9846D860FFF77AFE814687256D0002AB9C4665440023E85E4B46C01A1D4E04F073FA02900391201CD6
:4006C00004F0AAFA00900191301C029A039BFFF751FF776B366B484604F062FA321C3B1C02F0AEFC04F026FA80B24346188200B2FFF796FE8024640005A80021221C04F025
:40070000D7FD0022AB5E4A46009242461021525E019205A8211C064A04F010FE47B00CBC90469946F0BDC0461C0A0020D000002054900000044B00221A605A609A60DA6046
:400740001A615A611A767047300A002008B5092000F04EFA00F0DCF919200621014A00F053FA08BD300A0020024B587800021B7818437047300A0020034AD3781B029278DB
:40078000134303807047C046300A0020020E044B1A72020C5A72020A9A72D8727047C046300A0020024B1873001258737047C046300A002010B54000C0B2021C0E32034B1C
:4007C0000C0A9C540F30195410BDC046300A002008B500F067F8014B186008BD500A002008B5FFF7C1FF08BD10B5FFF7BDFF041C00F058F8E30702D5FFF70AFE01E0FFF766
:4008000039FE10BD08B562B600F0B6F800F0BEF8FFF7DEFF00F026F8FFF78CFFFFF7A8FDFFF7F0FD00F024F8FFF790FFFFF710FFFFF7A8FDFFF7ECFDFFF7D2FFFFF716FFD9
:40084000FFF7AEFD00F034F8FFF768FEFFF7CCFFF4E7C046024A1368013313607047C046540A00200022014B1A607047540A002010B500F05BFD094800F0F8FC00240AE0A7
:40088000201C00F06BFD002804D1201C044900F05DFD02E00134042CF2D910BD80BB000055080000014B18687047C046540A002010B500F091FE012000F098FE002837D03C
:4008C000FFF7F0FF1B4B1B68C01A642830D9FFF7E9FF184B1860002427E060B200F09AFE80B2154BC3189BB2144A934208D9031C4822FF32904201D2114B1B8898B200E0E7
:40090000104804F04DF900220F4B03F0FFFA00220E4B03F0FBFA04F005FA04F0AFF90C4A0C4B00F0D1FF0134E4B263B2032BD4DD10BDC046580A002035F8FFFF34F80000F3
:400940006E900000CB070000000014400000303F666666666666F2BF70B5051C43685C180668181C311C02F003F9201A6860311C02F0FEF870BDC04608B503480021802258
:40098000520004F095FC08BDE00A002008B500F0B5FE08BDFEE7C04608B5031C094A1068C318094A9A1A802149018A4202DC054A136005E004F014FC0C2303600120404283
:4009C00008BDC04608010020000D002070B50F4E0F4D13E029686B68AC68002202E001C901C30432A242FAD1E868002202E0002102C304328242FAD11035013E002EE9D1AB
:400A000004F0F4FBFFF7FEFEFEE7C046010000003095000008B50F4A136801218B43136000230AE0032B03D89A000B49505800E00A4899000A4A885001332F2BF2D9FFF74A
:400A400061FB0022074B1A60024A116801230B43136008BD00001040000000009509000000000020C0000020F0B50025002711E0BB00C658F3B2FF22964308E06A008A1881
:400A80001478A419527822700135013BDBB2002BF4D10137062FEBD9F0BDC0460323084A1360084A136080221205074B1A600F23064A1360064A13600022064B1A6070472D
:400AC000300030403000314000003A4000033A4040033A40000E3F4008B50A1C002104F0E7FB08BD08B5082000F08EFA08BDC04608B500F01DF808BD08B5044A13688021FF
:400B000009060B431360FFF7EDFF08BD0000244008B5064B1B78002B04D1FFF7E9FF0122024B1A70FFF7E8FF08BDC046600A002010B50024194B1C60194A1A4B1A601A4BBF
:400B40001A4A13601A4A14601A491B4A11601B4A13601B4B1C60082000F060FA0820032100F08AFA0820174900F074FA164B1C60164B1C605222FF32154B1A60154B1C60A6
:400B8000154B1C60154B1C60154B1C70154B1C70154B1C80154B00221A7010BD0000244000080040600024400701008000032440040324401200FE00100324400002244019
:400BC00004022440390C0000C80E2440880E2440480F2440080F2440C80F2440880F2440E40B0020E80B0020E20B0020E00B0020044A1368FF218B43400008401843106062
:400C00007047C0461003244070B5061C0D1C141E0BD0082000F002FA044B1C60044B1E80044B1D80082000F0EFF970BDEC0B0020F00B0020E60B002070B5A94B1B68002B14
:400C400000D09847A74B1C88A74B1D68A74B1E680223FF331D4235D0A54A13685B005B081360A44B1A7820218A431A70197810220A431A70A04B1B68DB060BD49F4B1A788D
:400C8000984B1B889A420AD09A4A117808230B43137004E0974A117802230B431370984A1168984B0B4013600023974A1360924A1360964A13708E4A1368802109060B43D5
:400CC000136009E1F30602D50022914B1A600A23334200D192E08F4B1B685B0758D58E4B1A688A4B1B78002B17D0012B49D18B4B1B88002B0DD00121894B1960894B1B681C
:400D00001B19D2B21A700134844A1388013B13803AE00222824B1A6036E0834B1B8893422BD901217E4B1960804B1B88934202D99B1A9BB200E0002378490B80072B03D83F
:400D40000121724B197014E0082B09D16C490B68A020000203430B6000216B4B196008E067490B688020800103430B600821664B1960624B1A70141C06E00222684B1A6051
:400D800002E0002000F054F90422694B1A6035E05B4B1B689B0431D5B3070DD5654B1B681F211940564A1068564B03401360012014E00821012011E0584B1988083989B2D6
:400DC00019800829F5D8002008E0564B1B681B19514A1268D2B21A70013401390029F4D1002808D1464A1368802109020B4313600022454B1A600C224D4B1A60B3074AD5BE
:400E0000EB0615D50023404A13603B4A13603B4B1B78A34201D1022300E00A232B40354A11780B4320218B4313700022374B1A706B062ED52F4A117820230B4313702F4B38
:400E40001B781C1C3C4A1268D20612D5364A1288D31A324A1380394B1A68802149020A431A601968364A0A401A601022224B1A6002E00422244B1A600122324B1A603249B5
:400E8000194B196031490868102303430B60244B1A60154B1D60154B1B685B071CD51F4B1B88002B0CD01F4B1B681B191B78DBB2274A13600134194A1388013B138002E06E
:400EC000FF22234B1A60234B1B681F221340082BE5D10F3A204B1A60024B1C8070BDC046640A0020E20B0020400F2440000E244000002440E80B0020880F2440E00B0020F4
:400F000060002440FF5FFFFFC80F2440E40B0020880E2440CC0F244040032440680A00206C002440EC0B0020F00B0020E60B0020C00F2440080324406400244004022440EE
:400F4000FFFFFEFF800E2440FF0F0000480F24404002244008022440800F2440014B98647047C0460000002010B5041C00F031F8044A1168044B0B40A4051C43146000F0C4
:400F80002CF810BD00E400E0FFFF3FFF0422014B1A60704700E100E00422014B1A60704780E100E010B5041CFFF7F6FF201CFFF7D5FF0320FFF7D8FFFFF7E8FF10BDC04682
:400FC0000230800803D00138FDD1C046C046C0467047EFF3108072B6704780F310887047034B18688023DB05184000D00120704700002240024A1168024B0B401360704747
:4010000000002240FFFFFFBF1F2318401E3B8340181C014B1860704700E100E01F2318401E3B8340181C014B1860704780E100E001BE704738B5041C0D1C0F2802D90020E8
:40104000FFF7F6FFA40080239B059C4664442068256038BD38B5041C0D1C1F2802D90020FFF7E6FFA400034B9C4664442068256038BDC0464000002070B5041C0E1E032E39
:4010800002D90020FFF7D4FF1F2C02D90020FFF7CFFF03252540ED000635FFF79AFFA408A400074B9C46644423680322AA409343AE40351C1D432560FFF78FFF70BDC046A7
:4010C00000E400E010B5041C06E0084B1868FFF777FF074B9C46644480231B029C42F4D8024B58686043FFF76BFF10BD0C0100200080FFFF30B583B000F040F9002845D0D6
:40110000FFF767FF041C00230AE0214A11683F220A402049C95C8A4201D1033303E001332D2BF2D903231C4A1268D20606D11A4802681F218A4313390A43026017480168AA
:40114000174A1140174A53438022D20194466344DB0B013B5B055B0D0B43A022520313430360114D2B680193302000F043FB0F4A13688021C9050B431360A0204000FFF7CB
:40118000A1FF019B2B60201CFFF727FF03B030BD2CFF0B402891000034FF0B400800224000F8C0FF40420F00300010400000224030B587B0041CFFF70CFF051CFFF710FFCC
:4011C000002803D0FFF716FF012100E00021104B1B6800930F4B1B680193033C0E4B1B5D02930E4B1B68039304AA0D4B04936B4605930C4B1A600C480C4A10601B6801294F
:4012000001D1FFF777FF281CFFF7E7FE07B030BD08010B4000010B402891000030001040B6EA000008001040170000800400104008B5034B1B7A5843FFF7C2FE08BDC04635
:401240000C010020024A116802230B431360704710E000E008B5FFF7F5FF034A116801230B43136008BDC04610E000E00002000A014B18607047C04614E000E0012805D1C2
:40128000054A116804230B43136004E0024A136804218B431360704710E000E0024B1868C003C00F7047C04610E000E010B5FFF7F5FF01280BD107E0A300054A9B58002B4F
:4012C00000D09847013400E00024042CF4D910BD6C0A00200022014B1A60704718E000E008B5002304E0990000200D4A88500133042BF8D90F200B49FFF79CFE0120FFF725
:40130000BDFF094BD868FA21890001F031FCFFF7ADFFFFF7DFFF0F20FFF776FE08BDC0466C0A0020AD1200000C01002008B5064B5B69002B04D1FFF7D3FF0122024B5A617A
:40134000FFF788FF08BDC0466C0A0020024A8300985899507047C0466C0A00208000014BC05870476C0A0020034B1868C0231B02184000D00120704700010B40034B1B6878
:40138000002B01DA012000E0002070470000224008B5FFF71EFE044A1368C02109020B431360FFF71AFE08BD00010B4010B5FFF710FE08490A68084B1A408024E401224362
:4013C0000A600A6813408022120213430B60FFF704FE10BD00010B40FF3FFFFF70B5061CFFF7F7FD041CFFF7BFFF002803D0FFF7DDFF012500E000250848331C0340084AC9
:40140000106808490840184310601368012D01D1FFF7BEFF201CFFF7E0FD70BD0404040010020B40FBFBFBFF10B5244B1B685B0715D5234B1B685B070ED5224B9969042041
:4014400001401F4C22688A4322609A6982439A61DB68002B00D098470420FFF7BFFF174B1B685B0518D5164B1B685B0510D5154B99698022D2001140114802688A430260BB
:401480009969114A0A409A611B69002B00D098478020C000FFF7A2FF084B1B685B030CD5074B1B685B0304D5064B5B69002B00D098478020C002FFF791FF10BD10020B4013
:4014C0001C010020840A0020FFFBFFFF0004000C014B18607047C046480120400004000C014B18607047C046540120400004000C014B18607047C0464C01204038B5041C3E
:401500000D1CFFF766FDAC40024B1C60FFF765FD38BDC0460800204008B5FFF75AFD064A116802230B431360FFF757FD02201821FFF7E4FF08BDC04600002040014B186093
:401540007047C0467801204010B50D4C8023DB042360236823600020FFF7B8FF236823600C22084B1A600120FFF7E8FF3122064B1A600648FFF7B2FF0548FFF7B7FF10BDF7
:40158000400120406401204068012040204E0000DC05000008B5064B1B78002B04D1FFF7D3FF0122024B1A70FFF7B6FF08BDC046A00A0020024B18688006800F7047C0466B
:4015C00004020440034A106830231840106000097047C04610020440034A1368802149020B4313607047C04604003A40021C83070CD0074B1B680120184001D19307F8D4EB
:40160000002804D00122024B1A6000E00020704710023A4010B5041E032C02D90020FFF707FD032C07D8A400044B9C46644420680004000C00E0002000B210BD80013A40D9
:40164000014B18707047C04672000F4004490A68F7231A40C000EF3B18401043086070470005044004490A68FB231A408000F73B18401043086070470000044004490A6832
:40168000F7231A40C000EF3B18401043086070470000044004490A68DF231A404001BF3B18401043086070470005044004490A68DF231A404001BF3B184010430860704735
:4016C0000003044008B50920FFF79EFC08BDC04608B500F085F808BD08B500F01FF808BD08B5054A1368802109060B431360FFF7E9FFFFF7EDFF08BD0000254008B5064BFA
:401700001B78002B04D1FFF7E7FF0122024B1A70FFF7E6FF08BDC046A40A002010B51B4A1B4B1A6000241B4B1C6001231A4A136007221A490A601A490A601A4A14601A4AC2
:4017400013601A4A1A4B1A601A4B1C6004221A4B1A600920FFF762FC09200321FFF78CFC09201649FFF776FC154B1C60154B1C60154B1C60154B1C60154B1C60154B1C606D
:40178000154B1C60154B1C6010BDC0460B00000200002540400025404800254000032540040325401003254044002540070000800002254004022540500025404918000076
:4017C000880E2540C80E2540480F2540080F2540C80F2540880F2540F80C0020F40C002003490B68F0229343603A13430B6070470003024038B5041CFFF7EBFB051C102CBB
:4018000005D8104A136803218B43136016E0202C07D80C490B6803229343023A13430B600CE0302C07D807490B6803229343013A13430B6002E00020FFF7FAFB281CFFF7A8
:40184000CCFB38BD3000104008B5164B1B68002B00D09847144B1B689B0721D5134B1A68134B1B689A4213D0114B1B685A1CFF2B00D100220F4B9B5CDBB20F490B600C4B4D
:401880001A600E4B1B681F221340082BE6D104E00B4A136802218B4313600222094B1A6008BDC046A80A00208C0F2540F80C0020F40C0020F40B0020400225400802254034
:4018C000880F2540800F2540F0B546465746C0B48FB01F1C02900391161C00F0A3F9041C0D1CC84B0094019598461B785BB2013305D0301C391C00F0DFFF002806D1009845
:4019000001990FB00CBC90469A46F0BD0298039900F0D2FF8246002831D1301C391C0022002301F0B7FA0028E9D001230493B64B04AD6B60534600222B62029B039CAB600A
:40194000EC60B24B2E616F61AA61EB6143461B785BB25A1C0ED0022B0CD0281C00F0DAFF002800D180E02B6A002B03D003F038FC2B6A0360AB69EC6900930194BFE70298F9
:4019800003990022002301F085FA002822D0301C391C0022002301F07DFA041E2CD001230493994B04AD6B6000232B62029B039CAB60EC6000230024AB61EC6143461B7836
:4019C0002E616F615BB2002BC7D000228F4BAA61EB61CFE7201C291C00F064FF8246002847D0201C291C0022002301F053FA002866D10094019582E7301C391C00F052FFFD
:401A0000002800D17BE7301C391C0022002301F047FA002800D172E7012304937A4B04AD6B602C62029B039CAB60EC6043461B782E616F61002B75D100230024AB61EC6138
:401A4000281C00F067FF002872D02B6A002B91D08CE700200021021C0B1C01F019FEA861E961022C00D078E703F0BAFB2123036079E70298039900F015FF0028B1D0301CB2
:401A8000391C00F00FFF0028ABD0291C201C00F013FF04AD002850D1012304935A4B28626B60029B039CAB60EC6043461C782E616F61002CCDD100230024AB61EC614CE752
:401AC0000298039900F0EEFE00940195002800D115E7301C391C00F0E5FE00940195002800D10CE704230493474B04AD6B6000232B62029B039CAB60EC6000230024AB61C9
:401B0000EC6143461B782E616F615BB2022B04D0281C00F0FFFE002897D103F061FB2223036092E700203A49A861E961022B87D103F056FB2123036087E703230493324B90
:401B40002E616F616B6053462B62029B039CAB60EC6043461B785BB2002B1CD102980399E0222C4B1206AA61EB610022002301F097F9002830D143461B785BB2022B05D009
:401B8000281C00F0C7FE002800D0ECE603F028FB22230360E7E60022029803991E4BAA61EB610022002301F07BF90028E3D000221A4B301C391C02F0A9F9061C0F1C00F041
:401BC000B1FE321C3B1C01F065F90028D3D100220F4BAA61EB61CEE70022104B301C391C02F094F9061C0F1C00F09CFE321C3B1C01F050F90028BED1E022094B1206AA616B
:401C0000EB61B8E720010020589100000000F03F0000F0FFFFFFEF470000F07F0000E03FFFFFEFC7F0B556464D4644465F46F0B41C1C131C67008DB07F0800930194061C78
:401C40000D1C80468946A2463B4331D0614B6C0064089C4228DC25D09F4225DC5D4B9F4200D176E000239B464B46002B00DA74E0002A2CD1574B9F4200D18AE0564B9F42FD
:401C80005FD08023DB059A4501D100F0D1FB534B9A451CD14B46002B19DB301C291C00F007FD07E000280CD04D4BE01830430AD1002049490DB03CBC90469946A246AB46A8
:401CC000F0BDA742CADD474800F026FEF2E7301C291C00F0E3FD0B1C4146021C00291ED0E90F0139884659464046014366D03E498F4200DC88E03D498F4201DC00F0E0FBAD
:401D00003B4B9C4200DC82E35346002B00DC82E338483949021C0B1C02F0F8F8CAE7002C04D02D48A90089088142D9D15146002900DABBE34946002900DA6FE3101C191C86
:401D4000B8E75346002B01DA00F020FC301C291CB0E7002A00D185E7A6E7284B9F422ADC234B9F4200DC83E725493815884201DC00F027FC234B00991B1AD940081C984048
:401D8000904200D074E70123194001335B1A9B466EE7134BE018064300D189E7144B9C4200DC75E35346002B00DA34E3009B019C181C211C7EE702239B4659E7301C291CDF
:401DC000321C2B1C02F03CFB021C0B1C01F060FC70E7C0460000F07F0000F03F0000E03F000010C0BC9300000000E0410000F043FFFFEF3F9C7500883CE4377EFFFF3F43EC
:401E00001304000033040000E94900208C4209DC101C191C0022E74B02F078F8021C35200C1C4042E44D2115AC4661448A462403E24DE349240B824425438C4200DC3CE3A5
:401E4000E0498C4201DC00F021FC01218C46DE49E2448C46002400216544CB009946161C2F1CDA4B301C4B441A685B68291C069607970892099302F0E3FA089A099B061C28
:401E80000F1C0698079901F0DBF8021C0B1C0020CA4901F0FDFB021C0B1C301C391C0A920B9302F033F80A1C011C131C0491059200220292039380236D109B051D438023AA
:401EC00000201B03EB1819190D1C041C02980399221C2B1C02F01AF8021C0B1C301C391C02F0AEFA089A099B061C0F1C201C291C02F0A6FA021C0B1C0698079902F0A0FA32
:401F0000021C0B1C0298039902F000F8021C0B1C301C391C02F094FA0A9A0B9B01F0F6FF049A059B06900791101C191C01F0EEFF041C0D1C221C2B1C01F0E8FFA44A061C45
:401F40000F1C201C291CA34B01F0E0FFA24AA34B01F076F8221C2B1C01F0D8FFA04AA14B01F06EF8221C2B1C01F0D0FF9E4A9F4B01F066F8221C2B1C01F0C8FF9C4A9D4BD3
:401F800001F05EF8221C2B1C01F0C0FF9A4A9B4B01F056F8021C0B1C301C391C01F0B6FF049A059B041C0D1C0298039901F048F8069A079B01F0AAFF221C2B1C01F040F898
:401FC000029B039C061C0F1C1A1C181C211C231C01F09CFF0A1C011C894B08910992111C002201F02DF8321C3B1C01F029F800240D1C02980399221C2B1C01F087FF221CC2
:402000002B1C029003910698079901F07FFF0022069007917A4B201C291C02F011FA089A099B02F00DFA021C0B1C301C391C02F007FA049A059B01F069FF021C0B1C069861
:40204000079900F0FDFF061C0F1C02980399321C3B1C00F0F5FF0024E022201C1206694B0D1C01F053FF684A06900791674B201C291C01F04BFF029A039B04900591201C40
:40208000291C02F0DDF9021C0B1C301C391C02F0D7F95F4A5B4B01F039FF021C0B1C0498059900F0CDFF5B4B4B441A685B6800F0C7FF061C50460F1C02F072FD041C0D1CFB
:4020C00006980799544B4B441A685B6804920593321C3B1C00F0B4FF049A059B00F0B0FF221C2B1C00F0ACFF0020221C2B1C0290039102F0A5F9049A059B02F0A1F9069AF7
:40210000079B02F09DF9021C0B1C301C391C02F097F9049005915B464246013B134300D0B1E100233D4C06930794009B019C0026181C211C231C321C02F082F9029A039BE3
:4021400001F0E4FE049A059B0D1C271C041C0098019901F0DBFE021C0B1C201C291C00F06FFF029A039B00900191301C391C01F0CDFE041C0D1C009801992B1C221C00F0F9
:402180005FFF274B82468946994200DC58E1254B4B44034300D001E200980199224A234B00F04EFF221C061C0F1C2B1C40E0C046FFFF0F000000404301FCFFFF0000F03FD5
:4021C0008E98030079B60B000000F0FF80910000EF4E454A287ECA3F65DBC9934A86CD3F01411DA96074D13F4D268F515555D53FFFAB6FDBB66DDB3F033333333333E33F37
:402200000000084009C7EE3FF5015B14E02F3EBEFD033ADC70910000609100000000F0BFFFFF8F40000070BFFE822B654715973C5046494602F004F9021C0B1C301C391CFD
:4022400000F042FE4E46002800D0A7E1E74B3615F11880235B0398460B41191CE448494484464F007F0DBC446646E248002230410E1C864340460903090B08434946331CAB
:40228000CE0FDD49C91B0841011C704241408946201C291C02F0D4F8041C0D1C009801992B1CB144221C00F0CBFE4B461B05984600200022D14B061C0F1C01F027FE221C54
:4022C000029003912B1C301C391C02F0B9F8021C0B1C0098019902F0B3F8C94AC94B01F015FEC94A041C0D1C301C391CC74B01F00DFE021C0B1C201C291C00F0A1FE041C6E
:402300000D1C02980399221C2B1C00F099FE029A039B061C0F1C02F093F8021C0B1C201C291C02F08DF8321C009001913B1C301C391C01F0EBFD041C0D1CB54AB54B01F077
:40234000E5FDB54AB54B02F07BF8221C2B1C01F0DDFDB34AB34B00F073FE221C2B1C01F0D5FDB14AB14B02F06BF8221C2B1C01F0CDFDAF4AAF4B00F063FE221C2B1C01F0DD
:40238000C5FD021C0B1C301C391C02F059F8041C0D1C221C2B1C301C391C01F0B7FD8023029003910022201C291CDB0502F048F8021C0B1C0298039901F06AF9009A019B9B
:4023C000041C0D1C301C391C01F0A0FD009A019B00F036FE021C0B1C201C291C02F030F8321C3B1C02F02CF80B1C021C9249002002F026F843465C182315002B00DC4FE1B4
:40240000021C231C0698079901F080FD52E45346002B00DA7CE4002000214BE487498C46594664440C4300D0C4E0101C191CC9E4301C291C321C2B1C01F068FDFFF73AFC8D
:402440007F4B4E0076089E4200DC17E17D4B4B4403430CD1221C2B1C01F0F2FF021C0B1C0098019900F026FD002800D1EEE606980799754A754B01F049FD734A734B01F07A
:4024800045FDFFF717FC00236B4C069307944CE65346002BBFDA009B019C80221206181C9446231C6344191CFFF704FC0020624901F0EEF8021C0B1C3CE400240021CCE427
:4024C00063498C42A3DD5C498C4201DDFFF71CFC101C191C0022584B01F0B2FFC0225D4BD205041C0D1C01F011FD5B4A061C0F1C201C291C594B01F009FD221C02900391A0
:402500002B1C201C291C01F001FD002204900591534B201C291C01F0F9FC021C0B1C5148514901F08DFF221C2B1C01F0EFFC021C0B1C00204D4901F083FF021C0B1C0498EE
:40254000059901F0E3FC4A4A424B01F0DFFC021C0B1C0298039901F073FF041C0D1C221C2B1C301C391C00F06BFD0022101C3B1C321C0290039101F063FF021C0B1C201C6E
:40258000291C01F05DFF04900591C4E5321C2B1C0020294901F07CF8FFF78CFB06980799344A354B01F0B2FC324A334B01F0AEFCFFF780FB5946101C01296CD0191CFFF770
:4025C00079FB002A01D0FFF782FB3A1C091A0A41131C8B40BB4201D0FFF750FB012313400222D31A9B46FFF749FBC04602FCFFFF01FCFFFFFFFF0F0013040000432EE63FD2
:40260000EF39FAFE422EE63F396CA80C615C20BED0A4BE726937663EF16BD2C541BDBB3E2CDE25AF6A56113F93BDBE166CC1663F3E5555555555C53F0000F03F000010C051
:40264000FFCB904000346F3F59F3F8C21F6EA501FEFFEF3F4715F73F44DF5DF80BAE543E0000D03F555555555555D53F0000E03FFE822B659C7500883CE4377E0B4B9E4231
:4026800000DDE3E500239846994611E680240121E402FFF7E2FB802109065918FFF70AFB4A4600F0E1F9021C0B1CABE60000E03FF0B556464D4644465F46754BF0B40A1C27
:4026C0000E1C191C83B0051C041C3140994200D1B7E0002E00DC93E0311500D1A0E06D4B1203CE188023120B5B031A43F30700D577E0731052009846E30FD3188022162182
:402700000027002564009203A818984202DC85181B1ABF18E00F5B0001391B18640052080029F1D1002201929446802212062020924609E0AB4247D0E10F5B0001385B188E
:402740006400520800281ED0614689189D42F1DA8E18B446CE0FF607A94656452ED05B1B8C42AD416D425B1B641A01995B008B469344594601380191E10F4D465B1864005B
:4027800052080028E0D1234330D1019B5B0842497A108C466244F90702D5802109060B4341460E05B1181D1C0E1C281C311C03B03CBC90469946A246AB46F0BD6646002E07
:4027C000CDDB6E1CB146CAE7A14208D88E18B446CE0FF607564541D099460023C4E71D1CAAE7E30F5200D218640082E7019B01333AD0019A01239446134063445B08C6E727
:4028000073005B080343D0D00021002E33D1E20A15396405002AFAD080235B031A4226D1802000234003520001330242FBD001252020ED1AC01A4919251CC5409C402A43CB
:402840004DE72A1C331C281C311C01F05FFB2A1C331C00F0F5FB051C0E1CA6E76646002EAFDA0023A9467FE7013700238FE7202001250023DFE72A1C331C281C311C01F054
:40288000DFFD021C0B1C00F003FF051C0E1C8CE70000F07F01FCFFFF0000E03F49004B08191C7047034B48009C4640086044C00F7047C046000010800A1C031C024330B547
:4028C0000220002A00D130BD80221206914216D00C4A04208C180C4A9442F4D90B4C0C199442F0D90A4A4900490803209142EAD9064A00209142E6D158425841E3E7002B60
:40290000E1D0EFE70000F0FFFFFFDF7F0000F07FFFFF0F0000207047002001497047C0460000F87FF0B5474680B44B004A4A5B0D9D1882B0071C0C1CCE0F132D39DC002D96
:4029400059DB464F021C2F413B1C0B4003439C46B84667460B1C002F25D043465B081A1C0A4010430027002808D0132D00D16FE099438023DB022B4119430C1C3849F60037
:402980008E19231C346875683A1C201C291C00F057FB0090019100980199221C2B1C01F04FFD021C0B1C101C191C02B004BC9046F0BD332D0BDD0B1C8021021CC9008D4228
:4029C000F1D1211C00F03CFB021C0B1CEBE7254A9D1801235B42EB409C460B1C6146021C0142E0D04B080342C8D08027FF052F4198430743C2E74C0064080443021C0B1C6C
:402A0000002CD0D00903090B01434A4211438022090B12035B0C11405B04021C194310480B1CF10041180C684D68201C291C00F007FB0090019100980199221C2B1C01F0FB
:402A4000FFFC4B005B08F6071E43021C331CAAE780273F068CE7C04601FCFFFFFFFF0F0090910000EDFBFFFFF8B5314F161C3B1C0B40041C0D1C0A1C1B1520D14B005B089E
:402A800003431BD000222B4B01F040FA2A4B041C0D1C0A1C9E4222DB0F403F153B1C2749363B9B198B4211DD221C2B1C2448254900F056F8224A234B01F028FAF8BD22496D
:402AC0008B4222D01D499B198B42EDDC002B0BDD1E491B050A401343201C191CEEE71C4A1C4B01F013FAE9E7191C353113DA1A4B9E42D9DC221C2B1C1548164900F030F871
:402B0000134A144B01F002FAD8E7291C221C2B1C00F096FAD2E70D4936330A401B051343201C191C00220D4B01F0F0F9C6E7C0460000F07F00005043B03CFFFFFE07000042
:402B40009C7500883CE4377EFF070000FFFF0F8059F3F8C21F6EA50150C300000000903C30B54A00DB0F5208DB071343191C30BD002243088B4274D303098B425FD3030AD6
:402B80008B4244D3030B8B4228D3030C8B420DD3FF22090212BA030C8B4202D31212090265D0030B8B4219D300E0090AC30B8B4201D3CB03C01A5241830B8B4201D38B0371
:402BC000C01A5241430B8B4201D34B03C01A5241030B8B4201D30B03C01A5241C30A8B4201D3CB02C01A5241830A8B4201D38B02C01A5241430A8B4201D34B02C01A52411C
:402C0000030A8B4201D30B02C01A5241CDD2C3098B4201D3CB01C01A524183098B4201D38B01C01A524143098B4201D34B01C01A524103098B4201D30B01C01A5241C3086A
:402C40008B4201D3CB00C01A524183088B4201D38B00C01A524143088B4201D34B00C01A5241411A00D20146524110467047FFE701B5002000F0FCF802BDC0460029F7D04A
:402C800003B5FFF775FF0EBC4243891A1847C04603460B437FD4002243088B4274D303098B425FD3030A8B4244D3030B8B4228D3030C8B420DD3FF22090212BA030C8B42CE
:402CC00002D31212090265D0030B8B4219D300E0090AC30B8B4201D3CB03C01A5241830B8B4201D38B03C01A5241430B8B4201D34B03C01A5241030B8B4201D30B03C01ACC
:402D00005241C30A8B4201D3CB02C01A5241830A8B4201D38B02C01A5241430A8B4201D34B02C01A5241030A8B4201D30B02C01A5241CDD2C3098B4201D3CB01C01A52411B
:402D400083098B4201D38B01C01A524143098B4201D34B01C01A524103098B4201D30B01C01A5241C3088B4201D3CB00C01A524183088B4201D38B00C01A524143088B4281
:402D800001D34B00C01A5241411A00D201465241104670475DE0CA0F00D04942031000D34042534000229C4603098B422DD3030A8B4212D3FC22890112BA030A8B420CD33E
:402DC000890192118B4208D3890192118B4204D389013AD0921100E08909C3098B4201D3CB01C01A524183098B4201D38B01C01A524143098B4201D34B01C01A5241030906
:402E00008B4201D30B01C01A5241C3088B4201D3CB00C01A524183088B4201D38B00C01A5241D9D243088B4201D34B00C01A5241411A00D20146634652415B10104601D31C
:402E40004042002B00D54942704763465B1000D3404201B5002000F00BF802BD0029F8D003B5FFF715FF0EBC4243891A1847C0467047C0468446101C62468C46191C634688
:402E800000E0C0461FB500F0DBFF002801D40021C8421FBD10B500F01FFF4042013010BD10B500F0CDFF002801DB002010BD012010BDC04610B500F0C3FF002801DD002034
:402EC00010BD012010BDC04610B500F049FF002801DC002010BD012010BDC04610B500F03FFF002801DA002010BD012010BDC046F0B54F46464605042D0C2C1CC0B4170478
:402F0000160C3F0C9946030C7C4375435F4373437D19260CAD199C46AF4203D980235B029846C4444B465143434324042E0C240C2D0466442C1959188919201C0CBC9046FA
:402F40009946F0BDF0B583B0161C1F1C0090019101F096FF041C0D1C221C2B1C301C391CFFF7C6FF009A019B121A8B410899201C0A604B60291C03B0F0BDC046F0B5141C0E
:402F800083B01D1C0090019102F072F8221C2B1C061C0F1CFFF7ACFF009A019B121A8B410899301C0A604B60391C03B0F0BDC04670B5041E39D0C50F00D04442201C01F022
:402FC00041FF9E23261C1B1A962B07DC082801DD083884406402640AD8B21EE0992B0ADD0522211C121AD1400A1C011C1B318E40711E8E411643052801DD421F96400F4C4A
:403000003440720704D00F221640042E00D0043462010ED4A401640AD8B26402C005640AED0704432C43201C70BD002500200024F3E7024B1C409F231B1AEBE7FFFFFFFBD3
:40304000F0B5454657464E4694464C000A03C90FE0B488460E1C1903470FC500480A6146490F01436046520A1743C0005A00640D520DDB0F8446984500D1A7E0A01A00287B
:4030800000DC01E1002A3DD163460B4300D0D4E06B0700D188E00F232B40042B00D183E02A1DAA42AD4180236D427F191B043B404646151C002B00D17CE0CC4B01349C4210
:4030C00000D1FDE03A1CCA4BED081A405007640552020543120B640D002112030B0D1B056405120B1A436308C24CF60714401C43640064083443281C211C1CBC90469946AF
:40310000A246F0BDB94B9C42C2D080231B041943382800DDECE01F2800DD21E120220E1C6346121A9640C340334366469640321C561EB24113430A1CC240EB1A9D42B64119
:403140001D1CBA1A7642971B3B0200D497E07A02560A002E00D1B6E0301C01F073FE031C083B1F2B00DDB7E09E40371C28262A1C361AF240161C9D403E439C4200DDB2E0ED
:403180001C1B621C1F2A00DDD8E01F23291C1C1B331CA540A340D1406C1EA541D64019430D43371C002473E780231B043B40464600D082E78D4BED0878070543FA089C421D
:4031C00032D012036405120B640D85E7A31A002B00DC94E0002A3CD0844A944200D157E7802212041143382B00DC05E163461943481E81410022C8B24019A8429B41051CFA
:40320000D2195B42D7183B0239D5784B01349C4200D14CE10120764A6B083A4028401843D5070543570833E72B1C134348D080231B031A431203120B4EE70138002878D1E6
:403240006346EE1AB5429B417A1A5B42D71A351C7AE7021C0A4300D11AE7013B002B00D0F2E04019A8429B41CA195B42D718051CC9E7131C334300D118E1171C351C4646D2
:403280006B0700D007E795E700287AD1621C5205520D012A00DCFBE06246AA1A9542B6419146781A7242861A320200D493E06246551BAC458041CF1B40423E1A984648E7CC
:4032C0000022002508E7281C01F0BCFD2030031C083B1F2B00DC47E7283885402E1C00259C4200DC4CE7424AE41A1640371CCFE6634619434B1E99410022CBB21DE7002B25
:4033000000D0F2E0601C43055B0D012B00DCA4E0364B984200D121E163465C19AC429B41CF195B42FA186408D50725435708041CAEE62E4B9C4200D0EAE6A9E6211C331CB1
:403340001F39CB40191C202A00D182E03F231C1BA64035436E1EB54100270D4300248EE7031C0E1C203BDE40202874D040231B1A99400B1C62461343591E8B4100223343F0
:40338000DBE6002C50D0194CA24200D1A8E08024240440422743382800DDD9E01F2800DD39E120243E1C241AA640B0462E1CA146C640444626434C46A5406C1EA541C740A2
:4033C00035436046451BCF1BAC45894149427F1A141C9846B8E64B464D46334300D0B8E60026002700240025E4E6C046FF070000FFFF7FFFFFFF0F801F2B5BDC2022081C76
:40340000D21A9040814660469246D8404A4610438146524660469040021C501E8241484610430A1CDA40E7E63C1C2C4358D0C043002851D16046451BAC458041CF1B40421E
:403440003F1A141C98467FE68F4A944200D0CAE61EE600267DE700238CE73B1C2B43002C00D0BDE0002B00D1F5E063460B4300D10EE663465B19AB428041CA1940421718E3
:403480003A0200D4FCE0814A1D1C17400134FFE53A1C2A43002C51D1002A00D085E062460A4303D00F1C65469846F1E50026002700257FE6181C0A1C2038C240202B00D143
:4034C000A7E04020C01A8140081C63461843411E8841104300228FE66B4CA24200D05AE70F1C6546141C9846D2E5002C3AD1381C284371D0DB43002B18D0634882426BD0B7
:40350000382B00DD9DE01F2B00DDA7E020203C1CC01A8440A1462C1C8246DC404846044350468540681E8541DF402543654465459B417F185B42FF18141C64E6002A19D1CC
:4035400062460A4377D00F1C654698464E4C9FE53D436F1EBD410027EDB232E7041C0027002527E64848824236D0802000045B420743C5E762460A4349D08024ED08780723
:40358000FA0824032843224209D0CE08264206D162464F07381CD20810439846321CD200470F1743C500384C72E562460A4300D16EE56246AE1AB5429241781A5242821A43
:4035C000100200D455E66246551BAC458041CA1B4042171A98465BE50F1C6546141C57E5002B34D063460B4311D08024ED087807FA08240328432242D1D0CB082342CED159
:4036000062464F07381CD20810431A1CC7E71E4C3EE5002059E7041C3E1C203CE640341C20282BD04026301A87403D436F1EBD4100272543C5E680270026FF03124C00259D
:40364000B8E53D436F1EBD410027EDB26EE70F1C65460D4C1CE50F1C654619E51C1C381C203CE040041C202B0CD04020C31A9F403D436F1EBD410027254357E70027D4E75E
:403680001D1CFCE50027F3E7FF070000FFFF7FFFF0B55F4656464D464446F0B40F0387B098464D003B0BCC0F061C924681469B466D0D01946BD0664B9D4235D080275B4668
:4036C0007F031F43F3009946624BFF00400F9C4607430023BB46002665440093424617035000D20F53463F0B400D904600D172E0574A904267D080235B031F435346554A26
:403700005B0FFF001F43944653460021DB0060444246624092462D1A0E430F2E00D9A1E04D48B600805987465B461E4300D076E000239B469946023308260093CEE79946F4
:403740004346BB4601930091009B022B6BD1019B9A46002153460122002789461A403C4B00213F030C0D24053F0B27433B4C1B0527401F437F00D2077F0817434846391C81
:4037800007B03CBC90469946A246AB46F0BD03433ED05B46002B00D19CE1584601F052FB2823311C1B1A021C5F46D940083A97400B1C96403B439B46B1460023284D002602
:4037C0002D1A00938AE7524603213A43A0D10027002302219CE752463A4315D0002F00D185E1381C01F02EFB021C28215046891A131CC8405146083B99409F400B1C07433C
:4038000017480021801A83E70027002301217FE700239B4699460133042600935EE703230C2600935AE7032B00D13CE2012B00D0BFE11A1C019B1A400021002300278946CE
:403840008EE700238027994600223F03004B87E7FF07000001FCFFFFA0910000FFFF0F800DFCFFFFBB4500D951E100D14CE14A46039200225C469046013D180E3F0238435F
:403880001B020193030C994603041B0C4946061C201C1F1C0093FFF76BF9021C7A4302904946201C171CFFF7E9F9039B09041B0C19438F420CD9029B8919013B8E4200D9DB
:4038C00052E18F4200D84FE1029B8919023B0293CC1B201C4946FFF74BF9009F834647434946201CFFF7CAF9039A0B041404240C23439F420DD95A469B19013A9E4200D9E0
:4039000030E19F4200D82DE10222524294469B19E344029ADB1B17045A463A439346019C170C220C101C04925A4611042204120C141C090C7C4305924A4341434743611847
:40394000100C09188C4203D980204002844667440C0C12040804120C3C198118A34200D2E5E000D1DFE01F1B43465C1AA04592415242BF1AB74200D10EE1381C4946FFF7C7
:40398000F7F8009B029043434946381C9846FFF775F9230C0F041F43B8450CD9029BBF19013BBE4200D9FBE0B84500D8F8E0029BBF19023B02934346FF1A4946381CFFF7E6
:4039C000D7F8009B039043434946381C9846FFF755F924040904240C214388450CD9039B8919013B8E4200D9DCE0884500D8D9E0039B8919023B03934346C91A029B039ACC
:403A00001B04059C1A43100C13049146221C049F1B0C5A4344437B437843E318170CDB199C4203D980246402A44660441C0C12041B04120C00199B18814200D296E000D133
:403A4000FCE04A4601231A4391469B4BEB18002B00DC99E04A4652070AD00F2249460A40042A05D00431494592418946524293445A46D20106D55A46904B1A4080239346DA
:403A8000DB00EB188E4A934200DD62E64A465946D208490711435A4689465702514601225B053F0B5B0D0A405AE680205A460003024208D0074206D107433F0399463F0B57
:403AC0004246804B4CE65F4607433F033F0B221C7C4B45E601F0B6F9031C2030272800DC5EE6083B9E400023B346994665E6504601F0A8F9021C2032272A00DC75E65746F4
:403B00000838874000237BE6994500D2AFE65A46594654084A46C8075208024303924A46D2079046A9E60027884500D31CE7019F5A46BC46E044B845BF417F42BF19FF18DC
:403B4000013ABE4206D2BC425FD800D19FE03F1B934609E7B742FAD1019B4345F3D9371B934601E79346D4E60293B1E64A468919013A8E4218D99146814200D061E7019A89
:403B80009A4200D05DE760E74F4F7F1B382F13DD012253461A404FE601235B42994654E7029308E7039327E788423CD874D0914647E7019B9A4648E71F2F44DC434B4A4693
:403BC0009C465B466544FA40AB4013434A46AA40151C6A1E95415A46FA402B43171C5A0709D00F221A40042A05D01A1D9A429B415B42FF18131C3A023ED5534601220021D4
:403C00001A40002701238946AAE502235B429C46019AE3449446E04490459B415B429B19DF193F1BA0E6019F4A467C00BC42BF417F42BF19023AC91901949CE7002B95D139
:403C4000002201929BE75A46214B5B1BDA40202F27D0204B9C465B466544AB4049460B43591E8B411343072200271A4007D00F2200271A40042AB8D17A077F023F0BDB081A
:403C800013439946012253461A40002368E54145BBD89346002767E6019C9C42C3D391466DE70023DAE780275B463F031F433F033F0B019A034B53E5FF030000FFFFFFFE2D
:403CC000FE070000FF07000002FCFFFF1E040000E2FBFFFF3E040000F0B55F464D4644465646F0B41F035C00DB0F99461B4B0E034D00C90F8446360B6D0D8B4690463F0B7E
:403D0000640D9D420CD0154B9C4210D00123A54214D0181C3CBC90469946A246AB46F0BD311C01230143F4D10C4B9C42EED13A430123002AEDD10123A542EAD1BE42E8D16D
:403D4000C445E6D1CB4506D0002DE2D13043031C581E8341DDE70023DBE7C046FF070000F0B5574645464E46E0B40F034E00C90F8A4632491D035C0084463F0B760D9046DB
:403D80002D0B640DDB0F8E420FD08C4239D0002E10D13843414241418946002C27D12A4325D1002000290ED108E0391C01432ED1B44226D0002C0BD09A450DD0534659427A
:403DC00001231943081C1CBC90469946A246F0BD2A43F3D09A45F1D1A642EFDC1ADA504641424841012341421943081CEBE74A46002AE1D058425841012241421143081C2E
:403E0000E1E7291C114302D1002EC2D0D4E702204042D8E7AF42D1D809D00020AF42D2D2504641424841012340421843CBE7C445C4D80020C445F3D3C5E7C046FF070000A7
:403E4000F0B55F464D46444656468046F0B4061C0803000B84462C484C001F035D00C90F640D8B4691463F0B6D0DDB0F844212D0854225D0002C14D161460E43704246414F
:403E8000002D35D0002E21D058425841012143420B43181C0EE06146022031430AD1A5420ED0002D12D13A4310D15B46594201231943081C3CBC90469946A246AB46F0BD09
:403EC000391C02201143F5D1002CD5D09B45ECD1AC42EADC05DBBC45E7D80FD00020BC45E8D2584641424841414201200843E1E73A43C7D10020002EDCD1D6E7C845D4D8CE
:403F00000020C845EDD3D5E7FF070000F0B55F4656464D464446F0B4051C061C080387B099464F00030BCC0F92469B467F0D019467D06C4B9F4236D080205B464003184301
:403F4000C0006B0F1843684B83469C4600239846EE00674400934B4649461D03C90F5B0052462D0B5B0D894600D16EE05D498B4264D080205C4940038C4600210543ED0031
:403F8000500F0543D20063444846FF187B1C9A46009B604002900B430F2B00D9ACE053489B00C3589F465B461D4300D082E00823009300239B46023300269846CBE7029B58
:403FC00001934346022B59D1012400250026019B1C40444B00212D030A0D12052D0B1543434A1B0515401D436D00E4076D082543301C291C07B03CBC90469946A246AB46E2
:40400000F0BD2B434ED05B46002B00D185E1584600F018FF021C2823291C9B1A161C5846D940083EB0400B1CB54003439B462E1C0023304F0093BF1A98468CE7514629432E
:404040002ED10025002202219EE75146294323D0002D00D154E1281C00F0F4FE031C28215046C91A1A1CC8405146083A914095400A1C05431F480021C31A85E7032B00D127
:40408000C2E1012B00D06DE14446019B00251C40E4B2002300269DE700250022012173E7032171E70423009300239B4601330026984650E70C230093093B98464BE78025E2
:4040C00000242D030026074B84E74B46AB46161C0193884675E7029BAB46161C019388466FE7C046FF07000001FCFFFFE0910000FFFF0F800DFCFFFF330C3604360C9C46F6
:40410000331C140C1204120C53439846634653439946634663430193331C41466343090C4B445B18994505D9802040028146019949440191190C039141460904090C1B0435
:404140005B1804932B0C9846331C2D04290C4B43604600934346654658435E43009B4D431B0C9946AE194E448446B54203D980235B029946CC44350C2B1C0398634484468A
:404180000593009B36041B041B0CF3189C446046039058460504060C280C84465043351C81466046654344434846000C8346724314195C44A24203D98022520293465D44DC
:4041C000220CAD184A461204120C24044046A41862464A437143464360460096464670438046100C84468844E044414505D9802149028C4600996144009101980399844625
:40420000614499429B415B4299460598434684461204120C1B049B1863449C46AB4683429B4140460A19CC44A2428941E344CC45B6415C46000C8046494276425B4264182F
:40424000334398448C428941AB459B4149425B4219430D1C009B4544EE187602E50D2E43B346049B56021E43731E9E415B46D20D324366021643DB010AD50123334076088F
:404280001E435B46DB071E435B465B089B465746634BFB18002B5ADD720709D00F223240042A05D0321DB242B6417642B344161C5A46D20106D55A465A4B1A408023934698
:4042C000DB00FB18584A934234DD0124029B00251C400026554B7DE680205B460003034208D0054206D105432D032D0B4C46161C4E4B6FE65D4605432D032D0B4B4B69E6C3
:40430000504600F09FFD031C2033272B00DCA6E65546083885400022ACE6281C00F092FD021C2032272A00DC75E6083885400026AB467DE65A46F608520716435A4601248C
:404340005502029A5B052D0B5B0D144042E6384DED1B382D0ADD0124029B00251C400026002337E6019B5746029391E71F2D25DC304B321C9C466744BE405B46BB40371C76
:40438000EA407E1EB74113433B431E1C5B46EB401D1C730709D00F233340042B05D0331DB342B6417642AD191E1C2B0220D50124029B00251C40002601230BE65A461E4B93
:4043C000DB1BDA40131C202D1CD01C4A94465A466744BA40171C3E43721E96411E4307230025334007D00F2300253340042BD6D16B076D022D0B0124F6081E43029B1C4075
:404400000023E7E50027E6E780255B4601242D031D43019B2D0323401C1C2D0B034BD9E5FF030000FFFFFFFEFE070000FF07000002FCFFFF1E040000E2FBFFFF3E040000B0
:40444000F0B54D4644465F465646F0B40E1C111C3203520A470F1743C5001A035800DB0F9946520A4B0F83B01A43CB000193CF4B7400F60F640DB046400D984200D1E8E09B
:404480000123494659400B1C9E4200D1B1E0261A002E00DC1CE1002842D1131C01990B4300D0E6E06B0700D18EE00F232B40042B00D189E02A1DAA42AD41802301264146EF
:4044C0006D427F191B043B400E40151C002B00D183E0B64B01349C4200D116E13A1CB44BED081A405007640552020543120B640D002112030B0D1B056405120B1A436308D7
:40450000AC4CF60714401C43640064083443281C211C03B03CBC90469946A246AB46F0BDA24B9C42BED080231B041A43382E00DD03E11F2E00DD3FE12020831B9946131C50
:4045400049468B409C46019B6046F34003430198F2408840011C481E81410B43EB1A9D4280411D1CBA1A4042171A3B0200D4A8E07A02560A002E00D1CAE0301C00F062FC01
:40458000031C083B1F2B00DDCBE02822291C121AD1409E400A1C9D4032439C4200DDC8E01C1B671C1F2F00DDEDE01F23291C1C1B131CA540A340F9406C1EA541FA4019439C
:4045C0000D43171C00246DE78023012642461B043B401640002B00D07BE7744BED0878070543FA089C423BD012036405120B640D7EE7231A9A46002B00DCA5E0002844D065
:404600006A48844200D14DE78020000402435346382B00DC1CE1019B1A43511E8A41D1B200224919A94280410D1CD219404217183B0246D55D4B01349C4200D169E1012045
:404640005B4A6B083A4028401843D5070543570828E7131C01990B4300D111E74B4613E72B1C134351D080231B031A431203120B3EE7013E002E00D080E0691A8D429B41EA
:40468000BA1A5B42D71A0D1C6FE7101C019B184300D107E701235B429C46E2445346002B00D002E1019BD2195919A9429B415B42D7180D1CBCE76346034300D128E1071CF3
:4046C00065466B0700D0F0E6012643461E4084E7002E00D081E0601C4005400D012800DC07E10199681A84466545B641B81A7642861B300200D4A1E08C464D1BAC458941F6
:40470000D21B4942561A984634E700220025EFE6281C00F097FB2030031C083B1F2B00DC33E7021C283A95402A1C00259C4200DC36E71F4FE41A1740B4E6019B1A43511E68
:404740008A41D3B2002209E7002B00D001E1601C43055B0D012B00DCB0E0144B984200D11EE1019BD2195919A9429B415B42D2184908D5070D435708041C93E60B4B9C423D
:4047800000D0D3E68EE6211C131C1F39CB40191C202F00D18EE03F231C1BA24015436A1E954100270D4300248BE7C046FF070000FFFF7FFFFFFF0F80331C101C203BD84029
:4047C000202E79D040239B1B9A40131C019A1343591E8B4100220343C0E6002C53D0C74CA04200D1B0E0802471428946240427434946382900DDCDE01F2900DD59E1202444
:404800003E1C611A8E408A46B04649462E1CCE405146B4468D4064464646494626436C1EA541CF4035430199D71B8C464D1BAC4592415242BF1A041C984696E663466546E0
:40484000334300D096E60026002700240025C4E61F2B61DC2020C31A9B46131C59468B4051469946019BCB409C464B46604603439C465B46019999406346481E8141194379
:404880005346DA40CDE63C1C2C435DD0F1438946002955D10199D21B8C464D1BAC4589414942571A041C98465FE69448844200D0ADE6F7E5002271E7002387E73B1C2B43E0
:4048C000002C00D0DAE0002B00D113E1131C01990B4300D1E6E54919A9429B41D2195B42D7183B0200D421E1854B0D1C1F40041CD8E5381C2843002C40D1002800D083E020
:40490000101C0199084303D0171C0D1C9846C9E500260027002560E65046131C2038C340181C5346202B00D1C1E0402351465B1A9A40019911434A1E91410022014370E61C
:404940006E4CA04200D053E7171C019D041C9846A8E5002C28D13C1C2C4300D18AE0DB439A46002B00D082E0019BD2199C4665449D42894149425718041C59E600285BD14B
:40498000101C0199084300D1A4E0171C0D1C98465A4C87E53D436F1EBD410027EDB242E7041C0027002518E6544CA04262D0534680245B429A46240427435346382B00DD08
:4049C0008EE01F2B00DD9DE02024E31A9B463B1C59468B40514699462B1CCB409C464B46644623439C465B469D4063466C1EA541CF401D43019BBF189C4665449D429241DF
:404A00005242BF18041C13E6101C0199084300D148E5681A844685428041BE1A4042301A060200D447E68C464D1BAC458941D21B4942571A984635E5101C0199084334D077
:404A400080247807ED08FF0824032843274208D0D608264205D1C90852070A43101C371C9846FF00420F1743C500244C1AE5234CA042A2D1171C019D041C13E5002B35D099
:404A8000131C01990B4310D080247807ED08FF08240328432742E4D0D3082342E1D1C90852070A43101C1F1CDBE7144CFAE400223FE74C463E1C203CE6404946341C202983
:404AC00032D04026761AB7403D436F1EBD4100272543A8E680270026FF03084C00257CE53D436F1EBD410027EDB283E7171C019D024CD7E4171C019DD4E4C046FF0700004C
:404B0000FFFF7FFF54463B1C203CE3401C1C5346202B0DD0402351465B1A9F403D436F1EBD410027254365E70027CDE70D1CC8E50027F3E70B0330B5134C1A0B4B00051CC7
:404B40005B0DC90F0020A34210DD104883420EDC80200F4C40030243E41A1F2C0ADD0D48C31ADA40131C48424340581830BD0A4BC818FBE7281CE040084CA44663449A402A
:404B8000131C0343EFE7C046FE0300001D0400003304000013040000FFFFFF7FEDFBFFFF38B5041E16D0C50F00D04442201C00F049F9174B1B1A0A2821DC021C211C1532DD
:404BC00091400A1C0B21081AC4405B052403240B5B0D03E000250023002400220021101C24030A0D1205240B14430A4A1B0514401C436400ED0764082C43211C38BD0B38E6
:404C000084405B052403240B5B0D0022E6E7C0461E040000FFFF0F8010B5041E10D000F011F9144A121A0A281ADC0B23211C1B1AD94015300B03520584401B0B520D01E0EE
:404C40000022002300211B03201C1C0B0B0D1B052343094C1205234013435B00590810BD031C0B3B9C40520523031B0B520D0024E8E7C0461E040000FFFF0F804200120EB4
:404C8000511C38B5C9B243025D0AC40F012915DDE02189008C466D071B0B62440021281C0D0D2D052B431C4D52052B40520813435B00E4075B082343191C38BD002A15D1A5
:404CC000002D1FD0281C00F0BDF80A281DDC0B232A1C1B1ADA40131C021C153295400F4A1B03121A52051B0B520DD7E7002D06D080221B0B120313436D07094ACEE7084A17
:404D00000023CBE700220023C8E7031C0B3B9D402B1C0025E3E7C046FFFF0F8089030000FF07000070B50B034D00440F6D0D5B0A23436C1C6405C90FC200640D012C2ADDC5
:404D40003B4C2C19FE2C1ADC002C35DD8001451EA841DB000343520F13435A0704D00F221A40042A00D004338022D2041A4027D00134FF2C03D09B015B0AE4B201E0FF24D8
:404D800000235B02E4055B0A23435B00C9075B080B43181C70BD002D06D113430ED100245B025B0AE4B2ECE71A43E8D08020DB0080040343FF24D0E717340CDA0523002449
:404DC000DB08FF2CECD1002B2DD08022D20313435B025B0AD5E78024164824042343401B1F280DDC144CA4466544AB401C1C131CAB405D1EAB41C240234313430024ACE74E
:404E00001E1C0E4C641BE640341C20280DD00C4884466544AB401D1C2A43531E9A41131C2343002499E70023ABE70025F4E7C04680FCFFFF9E03000082FCFFFF7E03000014
:404E4000A2FCFFFF1C2101231B04984201D3000C10391B0A984201D3000A08391B09984201D30009043902A2105C40187047C04604030202010101010000000000000000A9
:404E8000F0B544465F4656464D46F0B41C1C85B0002900DAA9E00F1C0021061C8846101C191C002C00DA97E0341C3D1C82468946B94273D870D04946504600F085F9834616
:404EC000391C301C00F080F95B46181A031C8346203B9C4600D59CE00023002251460092019363469940019151468140019B0091BB4200D983E000D17EE0009A019B341CD6
:404F00003D1CA41A9D416346002B00DA9AE0002600270296039701369E400396012686400296002800D171E00099019AD30799464B464E081E435708002301220CE0AF42A1
:404F400001D1A6420AD8A41BBD4124196D410138A4185D41002806D0AF42F0D9013824196D410028F8D12022029E039F5B46524236196F4199185AD4281CC8402C1C5B46C1
:404F8000DC40002968DB041C8C40231C59468840021CB61A9F4103E0B0428CD90026002741464B1E9941002300910193009A019B002554429D41331C6340181C3B1C6B4079
:404FC000191C009B019CC018614105B03CBC90469946A246AB46F0BD4346DB430C1C9846131C00215842A1415EE7002746428F4101214942884652E7B14200D87DE700269C
:40500000002702960397002800D08DE7029E039FC6E720215346091ACB400022191C0023009201934B4683400B4301935CE75A4620239B1A2A1C9A40201C131C5A46D040C8
:4050400018439BE720260027331A0026029603970127DF40039761E75B4620215D46C91A031CAC40CB40191C231C0B438EE7C046F0B545464E465746E0B4041C82B00D1CED
:40508000914698468B4262D85FD04146484600F09BF8291C061C201C00F096F82023311A5B428A46C81865D44B4683401F1C4B468B401E1CAF4258D855D0A41BBD410028E8
:4050C00000DA77E0002200230092019301328240019201238B40009300293CD0FB079846404672087B080243012600270CE0AB4201D1A2420AD8A41A9D4124196D410139AD
:40510000A4197D41002906D0AB42F0D9013924196D410029F8D120220098019953465242001969419E183AD42F1CF7405346DD40002E29DB3C1CB440231C5446A7403A1C34
:40514000801A99410090019105E082429DD900230024009301940098019902B01CBC90469946A246F0BDA342A7D90022002300920193B1E720224B46521AD3401A1C43468C
:405180008B401F1C174392E7534620245646E41A3B1CB540E3401C1C2B1C2343CDE7524620239B1A2A1C9A40271C131C5246D7401F43BBE720230022581A002300920193A2
:4051C0000132C240019284E710B5002903D1FFF739FE203002E0081CFFF734FE10BDC046014B18687047C0465005002070B50D4E0D4D0024AD1BAD1005D0A300F3580134C3
:405200009847A542F9D104F07FF9084E084D0024AD1BAD1005D0A300F35801349847A542F9D170BD1495000014950000149500002095000070B50F2A32D9041C0C430B1CBA
:40524000A40731D1151C041C103D2D0901352D0149191E6826605E6866609E68A660DE681033E66010349942F3D10F2345191340032B1BD91C1F0023A4080134A400CE5883
:40528000EE500433A342FAD1ED18C91803231A4005D00023CC5CEC5401339342FAD170BD051C002AF5D1FAE7051CF2E71A1CF8E770B583073FD0541E002A3BD0CEB2031CFD
:4052C000032503E0621E002C34D0141C01335A1E16702B42F6D1032C24D9FF250D402A0215432A0415430F2C11D9261C103E3609013636011A1C9B19156055609560D56016
:4053000010329342F8D10F221440032C0AD9261FB6080136B6001A1C9B1920C29342FCD103221440002C05D0C9B21C1919700133A342FBD170BD141C031CCCE70CB410B54C
:405340001E4B9CB01C68002932DB82220B1C920002A98A8102900861002B11D0013B8B604B6101235B42CB81201C1FAB1E9A019300F026F8431C18DB0023029A13700CE0E4
:405380008B604B6101235B42CB81201C1FAB1E9A019300F015F8431C04DB1CB010BC08BC02B018478B232360F7E78B232360E3E78B23012023604042EFE7C0465005002020
:4053C000F0B55F46444656464D46F0B4C3B00C1C079193460F93099002F018FB0368181C199303F03DF91A90A3891B0606D5079B1B690893002B01D101F086F832AB2593B2
:405400000023DA4625AFBB607B6016931793189332AE10931B930B9353461B785446002B1CD0252B02D119E0252B03D001342378002BF9D15346E51A10D053463360BB68EA
:405440007560EB18BB607B6801337B60072B27DC08360B9B9C46AC4463460B932378002B27D0002316A90120621CCB7763781024404200218046A446002070344025A14623
:4054800092460A90834608912030514601311A1C203A582A00D904E3D64C9200A2589746099807993A1C03F00FF9002809D132AECFE7BB68002B04D0099807993A1C03F0CC
:4054C00003F9079B9B895B0607D40B9843B03CBC90469946A246AB46F0BD01204042F5E78A4604235A461A4393460B78CDE70B784A1C2A2B01D101F0A0F9302149428A461C
:405500009A445446111C0022092C12D8B046161C5246B3009B195B000131D6184B1E1B781A1C303A092AF4D9321E464601DA00F0E6FF9046ABE75B464A4613439B468A461B
:405540000B78A2E70022141C303A92469A445246B246261CB3009B195B0001319E184B1E1B781A1C303A092AF4D90A9656468EE78A460899149316AB5A46D97710231A438B
:4055800093465B469B0600D48FE107230F9A07329A4301339C46944463460F93536812680D930C92002B00DA8EE10C980D9916ABDD7F4346021C139301230A4341460029AE
:4055C00003DB5846802188438346002A00D09FE34246002A01D100F09CFC012B00D1C9E3022B01D100F0D0FC32AB1C1CB1465B46AB4608930C9A0D9B5807D6080721DD083D
:4056000030432B1C051C1140013C30312170021C1D43F1D10C920D930B1C08995D4611944E468B46221CC90700D49FE3302B01D100F08FFF119B013A013B191C11933023BE
:40564000137032AA531A0E930E9A131E434500DA4346089300231593002D02D0089B0133089302235A461A40914602D0089B0233089384235A461A40129200D026E20A9B25
:40568000089A9C1A002C00DC20E2BA687B685A4D102C20DD10218846311C099E03E0103C0831102C16DD4046103201330D604860BA607B60072BF2DD301C07993A1C03F0DD
:4056C00003F8002800D0FCE6103CBA687B6832A9102CE8DC0E1C74600133A4183560BC607B60072B01DD00F0BCFC16AB0836DD7FEDE107228A460899149316ABD9770F9B52
:40570000454607339343013294469C4462460F921A6817925B68179818931899FDF7CCF8012801D000F0A3FD1798189900220023FDF7B6FB002801D000F0ACFF16ABDD7F62
:40574000149B472B01DC00F0D6FE2C4B11935A4680239A439346032308930E9300231393159379E75B46082213439B468A460B788BE65A46149310231A4393465B468A4639
:405780009B0600D463E107220F9B07339343013294469C4462465C681B68181C211C0F92021C00230C900D912243002116A8C17741460025139101E75A46149310231A4359
:4057C00093465B468A469B0600D458E107220F9B07339343013294469C4462465C681B68181C0F92211C021C0C900D9101232243DBE7C04628920000E0930000A0930000D7
:405800008A460899149316ABD977CC4B10935B469B0600D4FCE007220F9B07339343013294469C4462465C681B680C930D945B460F92DB0700D4FEE00C9B0D9C1A1C022313
:405840002243B2D030201EA9087050246846001900784870594619438B46A6E78A460F990B1C0A6804330F9300230C925A460D9302331A43934630221EAB1A7048325A70AF
:40588000AF4B149210930C9A02238EE75B4603439B468A460B78F8E58A460899149316ABD9775B469B0600D56FE65B46DB0601D400F00BFD0F9A136808930C930432DB1703
:4058C0000D930F9200D470E60C990D9A00244B429441191C2D2316A8221CC377081C43460C910D92021C13932D250123224365E65B462B439B468A460B78C6E50B786C2BD5
:4059000001D100F062FD5A466446224393468A46BBE58A46089916ABD9775B469B0601D400F0BAFC0F990B9A0B681A60D2175A600B1C04330F936FE58A460F9914930B684C
:4059400028AA1370002304310F9116A9CB77013308930E930023002513931593119280E6089B002B01D000F0BAFC20220B788A4608928AE501235A461A4393460B788A469A
:4059800083E50F9B1A1D1B680A93002B01DA00F015FD0B780F928A4677E52B220B788A46089272E514930F9B8A461C1D1B6816A91A1C11930023CB77002A01D100F053FE7D
:4059C00043461198002B01DA00F0E3FD0021424602F0BEFA002801D100F076FE119BC31A1A1C0E93DB43DB171A40002316A9CD7F08920F94139315932EE68A46089914933F
:405A000016ABD9774E4B10935B469B0600D502E75B46DB0600D587E35B465B0600D483E30F9B1A8804330C9200220F930D925B46DB0700D500E70C980D99021C02230A437F
:405A4000B3E614935B468A469B0600D59BE65B46DB0600D55DE35B465B0600D459E30F9B1A8804330C9200220F930D9200230C9A9BE614935B468A469B0600D5A6E65B464C
:405A8000DB0600D558E35B465B0600D454E30F9B1A8804330C9200220F930D9201230C9A83E68A46089916A81A1E1493C17700D1FFE428AB1A700022C277013208920E9212
:405AC00000220025139215921193CAE5BC68002D0FD016AA1F23944663443360012373607B6801340133BC607B60072B00DD2DE208364B46002B0CD01EAB336002237360F8
:405B00007B6802340133BC607B60072B00DD29E20836129B802B00D197E1139B0E9A9D1A002D3ADD074A7B689046102D2ADD1022211C9146099C321C464609E0AC9300009C
:405B4000C09300008C930000103D0832102D16DD48461031013316605060B9607B60072BF2DD201C07993A1C02F0AEFD002800D0A7E4103DB9687B6832AA102DE8DCB04668
:405B80000C1C161C42466419013332607560BC607B60072B00DDC7E108365B46DB0500D5F6E0119B33600E9B9C4673607B6864440133BC607B60072B00DD9DE008365B4615
:405BC0005B0746D50A9B089A9B1A9846002B40DD102B01DC00F05AFD1022D94D9146211C321C7B684646099CA846079D03E0103E0832102E17DDD24810311060484601331D
:405C00005060B9607B60072BF1DD201C291C3A1C02F05AFD002800D053E4103EB9687B6832AA102EE7DC45460C1CB046161C42464444013335607260BC607B60072B08DDAE
:405C4000099807993A1C02F03FFD002800D038E4BC68089B0A9A934200DA131C0B9A94469C4463460B93002C00D048E1002332AE7B60FFF7D1FB169B012B00DC22E1119B2F
:405C800001343360012373607B68BC605D1C7D60072D00DDC5E20836199B013533601A9B7D609C4664447360BC60072D00DDC5E208361798189900220023FDF7EBF80028B8
:405CC00000D0DCE1119B013501333360169B7D60013BE4187360BC60072D00DD02E1083621AB33601B9B01359C4664447360BC607D60072D00DC61E7099807993A1C02F005
:405D0000E3FC002801D0FFF7DCFBBC6832AE56E7012B00D064E40D9B002B02D10C9B092B28D95B4632AC0893B146AB46261C0C9C0D9D201C291C0A22002303F051F9013ED5
:405D400030323270201C291C00230A2203F048F9031C041C0D1C0B43EBD10C940D95341C089B5D464E469B46221C119432AB9B1A0E9369E427220C9B28A930338B546F2364
:405D800016AA944632AA6344D21A0E9211935BE4149B652B00DC6EE71798189900220023FDF778F8002800D10EE1664B01343360012373607B68BC6001337B60072B00DD69
:405DC000A0E208361F9B169A934203DB5B46DB0700D4F4E6199B33601A9B9C4673607B6864440133BC607B60072B00DD77E30836169B5D1E002D00DCE1E6534A7B68904635
:405E0000102D00DC7AE11022211C9146099C321C464604E00832103D102D00DC6BE148461031013316605060B9607B60072BF1DD201C07993A1C02F047FC002801D0FFF7E6
:405E400040FBB9687B6832AAE5E70A9B089A9D1A002D00DC61E63C4A7B689046102D25DD1022211C9146099C321C464603E0103D0832102D17DD48461031013316605060E6
:405E8000B9607B60072BF2DD201C07993A1C02F01BFC002801D0FFF714FB103DB9687B6832AA102DE7DCB0460C1C161C42466419013332607560BC607B60072B00DDCAE1E6
:405EC00008362AE601235A46134200D0D7E673607B68119A01345D1C3260BC607D60072D00DCFCE6099807993A1C02F0EDFB002801D0FFF7E6FABC687D6832AEF0E6099882
:405F000007993A1C02F0E0FB002800D1AEE6FFF7D8FA002B32D15B46DB072FD52723302128AAD15448332BE7099807993A1C02F0CBFB002801D0FFF7C4FABC6832AE2CE663
:405F4000E0930000DC9300008C930000099807993A1C02F0B9FB002801D0FFF7B2FABC6832AEC6E5099807993A1C02F0ADFB002801D0FFF7A6FABC6832AECAE500230E9362
:405F800032AB1193FFF760FB0F20B446A94632AB191C0C9A0D9B041C109D14402C5D1E07150901392E430C701C09231C341C321C1C43F0D10C920D9332AA531A66464D469B
:405FC00011910E93FFF740FB1F9D002D00DCA5E1119B169A191C9446159B61440E91151E9D4200DD1D1C002D0BDD119B641933607B6875600133BC607B60072B00DDFDE2B9
:406000000836EB43DB171D40159B5D1B002D00DCA8E0DA4A7B689046102D00DC66E11022211C9146099C321C464604E00832103D102D00DC57E14846103101331660506005
:40604000B9607B60072BF1DD201C07993A1C02F03BFB002801D0FFF734FAB9687B6832AAE5E7099807993A1C02F02EFB002801D0FFF727FA16ABDD7FBC6832AE27E5169B69
:40608000013B9946002B00DC2AE6102B00DCBCE3BA4B221C9846331C44464E4603E0103E0833102E17DD1021103201351C605960BA607D60072DF2DD099807993A1C02F06B
:4060C00003FB002801D0FFF7FCF9103EBA687D6832AB102EE7DCB146A0461E1C141C434633604B464C4401357360BC607D60072D00DCF4E5F6E6B0460C1C161C42466419EB
:40610000013332607560BC607B60072B00DC55E5F2E50F9B1A6804330C9200220F930D9200230C9AFFF741FB0F9B1A6804330C9200220F930D927AE40F9B1A6804330C928C
:4061400000220F930D9201230C9AFFF72EFB099807993A1C02F0B8FA002801D0FFF7B1F9BC6832AE159A119B944663449846169A1F9B934246DB5A46D20743D441460E9A22
:40618000521A1699CB1A1D1E954200DD151C002D0BDD424632607A68641901327560BC607A60072A00DD4FE20836EA43D21715405D1B002D00DC02E5704A7B689046102D33
:4061C0009CDD1022211C9146099C321C464603E00832103D102D8EDD48461031013316605060B9607B60072BF2DD201C07993A1C02F06AFA002801D0FFF763F9B9687B685A
:4062000032AAE6E7199A32601A9A944672607A6864440132BC607A60072A00DDFAE10836ACE7099807993A1C02F04EFA002801D0FFF747F9BC687D6832AE2DE50998079967
:406240003A1C02F041FA002801D0FFF73AF9BC687D6832AE2DE5099807993A1C02F034FA002801D0FFF72DF9BC6832AE55E417981899FCF721FB002800D0AEE0149B472B5F
:4062800000DC50E13E4B119380235A469A4316AB9346DD7FFFF75FFA5B46DB060CD45B465B0609D569460F9B898D1A680433089211800F93FFF7B0F80F9A0B991368196029
:4062C000131C04330F93FFF7A7F85B460F9A5B0601D4FFF7F0FA0021535EFFF7EEFA0B788A46FFF7D2F8B0460C1C161C42466419013332607560BC607B60072B00DD26E7DB
:4063000008362FE7099807993A1C02F0DDF9002801D0FFF7D6F8BC6832AE53E5194B01343360012373607B68BC6001337B60072B00DDFBE00836002D06D1169B002B03D1A4
:406340005B46DB0700D43AE4199B33601A9BE21873607B68BA6001337B60072B00DD12E208366D42002D00DC05E104498846102D00DC5EE1311C102446460AE08C9300006B
:40638000A8930000DC9300000831103D102D00DC4DE1103201330E604C60BA607B60072BF2DD099807993A1C02F08EF9002801D0FFF787F8BA687B6832A9E6E70A9B8A4640
:4063C0005B420A930F92FFF78CF84B1C9A465B4603439B464B78FFF758F84346013300D1B1E02023149A9A430E92472A00D1D8E180235A465B001A43189B1292002B00DA51
:40640000E2E1179A9846002391461393149C662C00D1C5E0462C00D1C2E00E9B0998453B594259416B181A1C0893022300931FAB029320AB039323AB019204934A464346F1
:4064400000F0F0FA1190672C02D0472C00D0B7E0119A089B944663441C1C5B46DB0700D4CAE10023484641460022FCF713FD231C002809D1239B9C4206D930215A1C2392C4
:406480001970239B9C42F9D8119A9B1A16930E9B472B00D104E1149B652B00DC00E2149B662B00D19BE11F9B1593169B159A934200DD7BE15B46DB0700D5A9E1D343DB17C8
:4064C00013400E92139A002A00D0F2E00893129B16AA9B460023D57F1393FFF7BDF8099807993A1C02F0F0F8002801D0FEF7E9FFBC6832AE7CE4DC4B1193FFF728F90122CF
:4065000052429046FEF7C3FF0998402101F082FA079B18601861002800D1BBE14023079A5361FEF76BFFD14B1193ADE6099807993A1C02F0C9F8002801D0FEF7C2FF1F9D84
:40654000BC6832AEF7E62023149A06259A430E924EE7119A32AB9B1A0E93FFF775F8099807993A1C02F0B0F8002801D0FEF7A9FFBA687B6832AE11990133316016997B6086
:4065800054187160BC60072B01DCFFF717FBFFF7B3FB02F065F8021C0E90031CFFF722FA032300931FAB029320AB039323AB0493019509984A46434600F034FA0895119001
:4065C000089A119B944663441C1C0E9B462B00D047E7119B1B78302B02D01F9BE41840E74846414600220023FCF754FC0028F4D10123089A9B1A1F93E41832E70998079926
:406600003A1C02F061F8002801D0FEF75AFFBC6832AEF6E4099807993A1C02F055F8002801D0FEF74EFF1F9BBC6832AEA6E5B0460E1C41465219013331607560BA607B6099
:40664000072B8CDC083696E7099807993A1C02F03BF8002801D0FEF734FF169B1F9ABC689B1A32AEA1E54046062800D90620C343021CDB171A400023139315937C4B0E9046
:4066800008920F9400251193FEF7EBFF7B68794DFFF7CDFA2D2316AAD3772D25FFF750F81F9CE31C1BDBA54219DB672315941493FBE60893129B2D229B46002316A9CA77C4
:4066C0002D251393FEF7CAFF16ABDD7F434608930E9300230F9413931593FEF7BDFF149B023B14936A4650215218127821AB013C1F9498461A70002C00DA90E02B23424625
:406700005370092C7ADD16AA3B239446634499461D1C201C0A21FCF7A1FB013D30312970201C0A21FCF7B4FA041E092CF1DC30346A1EE4B214704A4500D3A6E0791B4346EE
:40674000414400E014789C70013301328B42F9D116AA94462E2363449C467D1B654443461699EB1A0A1C9C4662441B930E9201296EDD0E9B01331A1C0E93DB43DB171340A4
:40678000002215929EE6099807993A1C01F09CFF002801D0FEF795FE1F9DBA687B6832AEDFE5002D00D023E6012521E6159B0120002B55DD031C169A944663441A1C0E93FB
:4067C000DB43DB1713407DE6802212069446179B9946189B634498462D23139316E61F9B1593002B20DD002D15D15B46DB0712D4159A131C0E9265E6239B45E642463023F1
:4068000030349370D47022ADA9E71B4B984666E4159B0133D2E701352B1C159ACCE72D234246644253706CE7002D17D15B46DB0714D4012201230E9244E60F9B92461A1D66
:406840001B689846002B19DB4B780F92FEF71DFE5B46DB078DD40E9A131C8EE7AB1CADE70130C01AA6E7C0469C930000A4930000D4930000E09300008C9300000F920122D8
:4068800052424B789046FEF700FE16AB2E259C46654464E70C23099A01381360FEF716FE1F9C1FE708B5034B002B02D0024800F005F808BD00000000D979000008B5011C56
:4068C00000220020002301F095FF08BDF0B54D4644465F465646F0B403690C6985B000259C4200DD95E00B1C1422013C1433A6009F1902939446031C634498463B68464458
:4069000003910190591C3068FCF732F9B346051E45D0029B002699460020231CBC46041C2F1C4846351C9946464604C81104090C7943120C7A4369180B0C9A18336809049F
:406940001B041B0C1C19090C631A3168150C1204090C120C8A1A191452181B0414141B0C1204134308C68445DFD25B461B683D1C4C466746002B12D15E46043EB0450CD227
:406980003368002B09D1434602E03268002A03D1043E013CB342F8D39846019B1C610198039901F05BFD002833DB029B00209C466646A4463C1C47460135396804CE0B0478
:4069C0001B0C181813041B0CC31A090C120C18148A1A12181B0410141B0C1204134308C7B442EAD26446A30043441A68002A10D1043B98450BD21A68002A08D1424602E058
:406A00001968002903D1043B013C9A42F8D3019B1C61281C05B03CBC90469946A246AB46F0BDC046F0B556465F464D464446F0B4016C99B082461D1C161C1F1C002909D09D
:406A40000123426C93404A608B6001F0EFFA002352461364B846002F32DB0023259A13604246D84B1A409A4218D0301C391C00220023FCF70FFA00282AD00123249A13601F
:406A8000269B002B00D13FE2CF481860013819B03CBC90469946A246AB46F0BDCB4B249A1360002E00D10BE2C948269B002BEED0C278C31C002A00D00533269A1360E6E7FB
:406AC0000123259A13606B005B0898461F1CC7E717AB009316AB019350463B1C321C01F04FFD43468346180D00D1EFE13903B94C090B0C43B849321C88461699231C8946F3
:406B0000002180440991101C191C0022B34BFDF797FCB34AB34BFDF7F9F9B34AB34BFCF78FFA041C40460D1CFEF73AF8B04AB14BFDF7ECF9021C0B1C201C291CFCF780FA7E
:406B4000041C0D1CFDF7F6FF291C03900022201C0023FCF7A5F9002800D0CBE201230C93039B162B11D8A44ADB00D31818685968321C3B1CFCF7A8F9002801D100F0F9FBBD
:406B8000039B013B039300230C9342464B469B1A00220692013B049300D5B8E2039B002B00DA9EE2049A9C46111C0D930023614404910A93229B092B00D9A7E10124052BC8
:406BC00002DD0024043B2293229B032B01D100F02EFD01DC00F0ACFC229B042B01D100F03FFC01230B93229B052B01D000F0A5FC039A239B9446634412930133079398462A
:406C0000002B01DC00F08BFC079B1D1C98460023524600215364172D0AD9012204335B00181C1430111C01328542F8D253465964504601F0D3F953461864434608900E2B2C
:406C400000D975E1002C00D172E1039810961197031E01DC00F042FD0F2267491340DB00CB1806111C685D68F30601D400F0EDFC10981199614B16401A6A5B6AFCF708FDF1
:406C8000032398460E900F91002E14D00123291C9946201C4546594F4B46334204D03A687B680135FDF732F976100837002EF3D1A846041C0D1C0E980F99221C2B1CFCF761
:406CC000E7FC061C0F1C0C9B002B09D0301C391C0022404BFCF7E4F8002801D000F0E1FD4046FDF75DFF321C3B1CFDF70FF90022434BFCF7A5F9434A0B1C944663440E904A
:406D00000F910F93079B002B01D100F065FC039B1493079B13930B9B002B01D100F02EFD139B354A013BDB00D3181A685B6800203549FCF7ADFC0E9A0F9BFDF781FB0E90C8
:406D40000F91391C301CFDF7F5FE051CFDF728FF021C0B1C301C391CFDF772FB061C0F1C089A3035E9B21170541C88460E980F99151C3B1C321CFCF7A7F8002801D000F01B
:406D8000CDFD321C3B1C00201249FDF759FB021C0B1C0E980F99FCF797F8002801D000F002FE139B012B01DC00F089FCAC46634499465B4613935346A2460E9C0F9D159339
:406DC00036E0C0460000F07FDD9300000F270000FC9300000000F03F01FCFFFF0000F83F61436F63A787D23FB3C8608B288AC63FFB799F501344D33F18940000E0940000B4
:406E000000001C400000C0FC0000E03F321C3B1C0020C249FDF714FB221C2B1CFCF740F8002801D000F093FDCA4501D100F043FC201C291C0022BA4BFDF768F80022B84BEE
:406E4000041C0D1C301C391CFDF760F80F1C061CFDF770FE8046FDF7A3FE021C0B1C301C391CFDF7EDFA01239C4643463033DBB2984601234246E2445B4253441A709B4643
:406E8000221C2B1C061C0F1CFCF70AF80028BDD0139B54469B46159B9A46149B03935046594601F0C3F800232370039B249A01331360269B002B00D137E31C600898E6E500
:406EC00043461B0300D0EFE59648EEE5169B9946179B4B441C1E944B9C4200DA44E24246924B1B1B9A40131C914AA018321CC240101C1843FDF790FE8E4D021C4B19611E62
:406F0000884601210991FEE58B48C0E50023524650465364002101F061F85346186401230B93002322932393013B089007931293179B002B00DAAFE0039A0E2A00DDABE0FE
:406F4000D3007E4AD3185C681B6804930594239B002B00DA8FE2341C3D1C301C391C049E059F321C3B1CFCF793FBFDF7E3FD8046FDF716FE321C3B1CFCF7C8FF021C0B1CE4
:406F8000201C291C4546FDF75BFA089E3035341C3570079D021C0B1C0134012D4ED000225F4BFCF7B3FF00220023061C0F1CFBF771FF002800D072E7089B079A9D1C9C467D
:406FC0005B46069353466244AA46049C059D914607930FE00022524BFCF798FF01239C4600220023061C0F1CE244FBF753FF002800D0D9E2221C2B1C301C391CFCF748FB2C
:40700000FDF798FD8046FDF7CBFD221C2B1CFCF77DFF021C0B1C301C391C56464746FDF70FFA013E3037021C0B1CD3463770CA45D0D1069954468B4607998A46101C191C0F
:40704000FBF7FEFF061C0F1C04980599321C3B1CFBF726FF00280CD104980599321C3B1CFBF718FF002800D119E74346DB0700D415E7651E2B78089906E0A94200D15AE317
:40708000023C23782C1C013D2A1C392BF5D01D1C0135EBB2137002E70B9A002A50D0229A012A00DC22E2079B5C1E0A9BA34200DAC1E21C1B079B002B00DAD5E3069B0993DE
:4070C000079B069A504694469C4462460692049A012194469C446346049301F043F8814633E0069A039BD21A5B420A93002306920D935FE50398FDF753FD221C2B1CFBF7A5
:40710000C9FE43424341039AD31A039326E5049B5B4206930023049340E5C0460000F03F00002440F0930000EFFBFFFF0EFCFFFF12040000000010FEDC9300001894000055
:40714000069B0A9C099300239946099A002A0ED004990B1E0BDD914200DD7FE1069AD21A0692099AD21A0992049AD31A04930A9B002B1ADD0B9B002B00D151E2002C10DD9C
:407180004946221C504601F0A5F881465A464946504600F0F1FF051C5946504600F046FFAB460A9B1A1B00D086E15046012100F0D9FF0D9B8046002B15DD41461A1C504687
:4071C00001F088F8229B8046012B00DC7AE1002443461B6903339B004344586800F076FF2023181A08E0229B0024012B00DCD0E10D9B0120002BEBD1049B9C461F2360447C
:40720000184000D1AEE001331B1A042B00DCD1E31C23181A069B9C46844463460693099B9C46844463460993049B9C46844463460493069B002B05DD594650461A1C01F04B
