:400000000040002011000000C9020000C902000008B500F05BF9C04608B51222164B1A60302000F0A5FA154A154B1A6080229200144B1A60144B154A1A6080214900144A41
:400040001160144A1A6080221206134B1A608022D202124B1A604122114B1A60013A114B1A600720104900F0BFF9072000F0A6F900220E4B1A6008BD300010400600008070
:4000800004010B40040301400000014041FF00800003014040FF008008010B4000010B401401014008010140B10600000C020B4010B572B6002410E0214863001A19520002
:4000C000821891881B195B001A5AC31858880004104300F059F90134E4B2012CECD9EE221202184B1A60EE23174A1360174A136099221204164B1A60164B197802220A4370
:400100001A70154802783C218A4328390A430270197816220A431A70D82212010F4B1A6003220F4B1A6024230E490B600E490A600E4A1360FFF770FF00F016F910BDC046CE
:400140007813000000030240000402400006024030500F4000700F4001700F40080304400004044008040440000604400806044010B5064C2378002B07D1054B002B02D04E
:40018000044800E000BF0123237010BDE0000020000000007413000008B5084B002B03D00748084900E000BF07480368002B00D108BD064B002BFBD09847F9E7000000007B
:4001C00074130000E4000020C80000200000000070B582B0061C0D1C141C00F063FBC0B26B46D87107331B78301C291C221C002300F078FBC0B26B46D87107331B78002B7A
:4002000009D100F037FBC0B26B46D87107331B789B07F6D502E000226B46DA716B46D879C0B202B070BDC04600B583B06B46991D00230B70009308200122FFF7C9FF6B4689
:40024000D87107331B7800F02DFBC0B26B46D87107331B78082069460422002300F0B8FBC0B26B46D87107331B78002B0BD100F001FBC0B26B46D87107331B78DB07F6D542
:40028000009BD8B203E000226B46DA71FF2003B000BDC04608B562B60A4A0023136052600420042100F098FC00F026FC00F068FA044A136801331360642000F0CDF8FFF742
:4002C000B3FFF5E7FC000020FEE7C04670B50F4E0F4D13E029686B68AC68002202E001C901C30432A242FAD1E868002202E0002102C304328242FAD11035013E002EE9D13E
:4003000001F00AF8FFF7C6FFFEE7C04601000000F013000008B50F4A136801218B43136000230AE0032B03D89A000B49505800E00A4899000A4A885001332F2BF2D9FFF73A
:40034000B7FE0022074B1A60024A116801230B43136008BD0000104000000000C902000000000020C00000200323044A1360044A13600022034B1A607047C0463000304061
:4003800030003140000E3F4008B50A1C002100F0E9FF08BD024A1168024B0B401360704700002240FFFFFFBF034B18688023DB05184000D001207047000022401F2318407C
:4003C0001E3B8340181C014B1860704700E100E01F2318401E3B8340181C014B1860704780E100E001BE704738B5041C0D1C1F2802D90020FFF7F6FFA400034B9C46644476
:400400002068256038BDC0464000002070B5041C0E1E032E02D90020FFF7E4FF1F2C02D90020FFF7DFFF03252540ED00063500F088FDA408A400074B9C46644423680322BE
:40044000AA409343AE40351C1D43256000F07DFD70BDC04600E400E010B5041C06E0084B186800F065FD074B9C46644480231B029C42F4D8024B5868604300F059FD10BD3E
:40048000CC0000200080FFFF30B583B000F0BAF8002856D000F055FD041C00230AE02A4A11683F220A402949C95C8A4201D1033303E001332D2BF2D90323254A1268D20637
:4004C00006D1234802681F218A4313390A430260204A1168204A1140204A5A438020C00184466244D20B013A5205520D0A43A02149031143192B02D819490A430BE0194A3B
:400500009A1812781148C3189B7DD218FF2A00D9FF2292050A430F4B1A60134D2B680193302000F015FD114A13688021C9050B4313601420FFF790FF019B2B60201C00F083
:4005400004FD03B030BDC0462CFF0B408413000034FF0B400800224000F800C040420F000000D43FCDF1FF0F300010400000224030B587B0041C00F0E4FC051CFFF714FF9F
:40058000002803D0FFF706FF012100E00021104B1B6800930F4B1B680193033C0E4B1B5D02930E4B1B68039304AA0D4B04936B4605930C4B1A600C480C4A10601B680129AB
:4005C00001D1FFF761FF281C00F0BFFC07B030BD08010B4000010B408413000030001040B6EA0000080010401700008004001040034B1868C0231B02184000D001207047D8
:4006000000010B40034B1B68002B01DA012000E0002070470000224008B500F092FC044A1368C02109020B43136000F08EFC08BD00010B4010B500F084FC08490A68084BD6
:400640001A408024E40122430A600A6813408022120213430B6000F078FC10BD00010B40FF3FFFFF70B5061C00F06BFC041CFFF7BFFF002803D0FFF7DDFF012500E0002569
:400680000848331C0340084A106808490840184310601368012D01D1FFF7BEFF201C00F054FC70BD0404040010020B40FBFBFBFF10B5244B1B685B0715D5234B1B685B07A4
:4006C0000ED5224B9969042001401F4C22688A4322609A6982439A61DB68002B00D098470420FFF7BFFF174B1B685B0518D5164B1B685B0510D5154B99698022D2001140C5
:40070000114802688A4302609969114A0A409A611B69002B00D098478020C000FFF7A2FF084B1B685B030CD5074B1B685B0304D5064B5B69002B00D098478020C002FFF768
:4007400091FF10BD10020B40DC00002004010020FFFBFFFF08B50B20FFF730FE08BDC04608B500F01DF808BD08B5044A1368802109060B431360FFF7EDFF08BD0000274043
:4007800008B5064B1B78002B04D1FFF7E9FF0122024B1A70FFF7E8FF08BDC0462001002010B51D4A11681D4B0B40136000241C4B1C601C4A1C4B1A601C4A1D4B1A601D4B0E
:4007C0001C601D4B1C601D4A1D4B1A601D4B1C600B20FFF7FDFD0B200321FFF717FE0B201949FFF701FE194B1C60194B1C60194B1C601422FF32184B1A60184B1C60184B4F
:400800001C60043AFF3A174B1A70174B1C80174B1C60174B1C6010BD70002740EFEFFFFF0000274096080080600027400703008000032740040327401003274007010080EF
:400840000002274004022740A50F0000C80E2740880E2740480F2740080F2740C80F2740880F274032010020400100203C0100204401002010B50B20FFF7AAFD074B1B8844
:400880009BB21C1C064A1278920601D504241C430B20FFF793FD201C10BDC046400100203201002010B50B20FFF792FD044B1C88A4B200221A800B20FFF780FD201C10BD4F
:4008C00040010020054B1B682022134000D0082301221343024A13607047C0466400274068002740F0B583B001900C1C171C1D1C002919D0284B1B78102B0AD10B20FFF759
:4009000067FD264B1B68DB0701D508260FE000260DE0214B1B78602B08D1214A138808218B431380002602E0042600E00426002E2BD12822184B1A7000231A4A13601A4A89
:4009400013601A4B1F601A4B1C60EAB2194B1A70019B5C00FF231C40114A138802218B431380154A154B1A604023154A1360154A1360EB0704D5FFF7A5FF134B1C6004E062
:40098000114B1C600222114B1A600B20FFF716FD301C03B0F0BDC0463201002064002740400100204C0100204401002054010020380100204801002017030000000F274067
:4009C000800F2740880F27404002274068002740F0B583B001900C1C171C1D1C002919D02D4B1B78102B0AD10B20FFF7F1FC2B4B1B68DB0701D508260FE000260DE0264BFB
:400A00001B78602B08D1264A138808218B431380002602E0042600E00426002E35D129221D4B1A7000221F4B1A601F4A17601F4B1C60EBB21E490B70019B5C00FF231C40BC
:400A40000120044316490B8883430B8019491A4B19601368072B03D80422184B1A6008E0174A1368802149000B4313600822134B1A60EB0704D5FFF725FF124B1C6004E0ED
:400A8000104B1C600222104B1A600B20FFF796FC301C03B0F0BDC0463201002064002740400100203C01002050010020340100204801002017030000000F2740C80F274028
:400AC00060002740400227406800274008B50820FFF774FC08BDC04608B500F01DF808BD08B5044A1368802109060B431360FFF7EDFF08BD0000244008B5064B1B78002B4C
:400B000004D1FFF7E9FF0122024B1A70FFF7E8FF08BDC0462801002010B50024194B1C60194A1A4B1A601A4B1A4A13601A4A14601A491B4A11601B4A13601B4B1C600820DD
:400B4000FFF746FC08200321FFF760FC08201749FFF74AFC164B1C60164B1C605222FF32154B1A60154B1C60154B1C60154B1C60154B1C70154B1C70154B1C80154B0022B8
:400B80001A7010BD0000244000080040600024400701008000032440040324401000FE00100324400002244004022440090C0000C80E2440880E2440480F2440080F244040
:400BC000C80F2440880F24405C010020600100205A0100205801002070B5061C0D1C141E0BD00820FFF7F4FB044B1C60044B1E80044B1D800820FFF7E1FB70BD64010020F3
:400C0000680100205E01002070B5A94B1B68002B00D09847A74B1C88A74B1D68A74B1E680223FF331D4235D0A54A13685B005B081360A44B1A7820218A431A70197810227F
:400C40000A431A70A04B1B68DB060BD49F4B1A78984B1B889A420AD09A4A117808230B43137004E0974A117802230B431370984A1168984B0B4013600023974A1360924ABB
:400C80001360964A13708E4A1368802109060B43136009E1F30602D50022914B1A600A23334200D192E08F4B1B685B0758D58E4B1A688A4B1B78002B17D0012B49D18B4BA6
:400CC0001B88002B0DD00121894B1960894B1B681B19D2B21A700134844A1388013B13803AE00222824B1A6036E0834B1B8893422BD901217E4B1960804B1B88934202D96D
:400D00009B1A9BB200E0002378490B80072B03D80121724B197014E0082B09D16C490B68A020000203430B6000216B4B196008E067490B688020800103430B600821664B4A
:400D40001960624B1A70141C06E00222684B1A6002E00020FFF746FB0422694B1A6035E05B4B1B689B0431D5B3070DD5654B1B681F211940564A1068564B034013600120F4
:400D800014E00821012011E0584B1988083989B219800829F5D8002008E0564B1B681B19514A1268D2B21A70013401390029F4D1002808D1464A1368802109020B43136054
:400DC0000022454B1A600C224D4B1A60B3074AD5EB0615D50023404A13603B4A13603B4B1B78A34201D1022300E00A232B40354A11780B4320218B4313700022374B1A7038
:400E00006B062ED52F4A117820230B4313702F4B1B781C1C3C4A1268D20612D5364A1288D31A324A1380394B1A68802149020A431A601968364A0A401A601022224B1A6077
:400E400002E00422244B1A600122324B1A603249194B196031490868102303430B60244B1A60154B1D60154B1B685B071CD51F4B1B88002B0CD01F4B1B681B191B78DBB2F0
:400E8000274A13600134194A1388013B138002E0FF22234B1A60234B1B681F221340082BE5D10F3A204B1A60024B1C8070BDC0462C0100205A010020400F2440000E2440BC
:400EC0000000244060010020880F24405801002060002440FF5FFFFFC80F24405C010020880E2440CC0F244040032440300100206C00244064010020680100205E01002033
:400F0000C00F2440080324406400244004022440FFFFFEFF800E2440FF0F0000480F24404002244008022440800F2440000000000230800803D00138FDD1C046C046C0467A
:400F40007047EFF3108072B6704780F31088704738B5041CFFF7F5FF051C102C05D8104A136803218B43136016E0202C07D80C490B6803229343023A13430B600CE0302C13
:400F800007D807490B6803229343013A13430B6002E00020FFF726FA281CFFF7D6FF38BD3000104010B5B94B1B68002B00D09847B74B1B68DB0702D50022B64B1A60B64BFA
:400FC0001B789B0628D5B54B1B68DB0507D5B44A1188C0239B000B431380012300E00023AE4A1268D20706D5AD4A118890239B000B4313800123002B0FD0A74A1278D207FD
:4010000001D5012200E00222A549088802430A800021A14A117000E000239F4A1278920600D417E19D4A1268D20611D510229D4B1A60994B1B78DB0701D5012300E00223F4
:40104000974A11880B4313801022934B1A701BE1914A1278120720D5904A126892070AD50222904B1A608E4A118888239B000B431380012311E0884A1278D20703D52521C7
:40108000854A117009E02421834A1170864A1268002A02D01439854A11607F4A1278520700D4AEE07C4A1278D20749D5804A1268120727D57F4A12687F4909681F240C40D8
:4010C0007E4909686418141B082C09D8002C16D17B4A11687B4B0B401360012308340EE008240CE0754A116877480068411877480068C0B20870116801311160013C002C6F
:40110000F0D119E06A4A1268520715D56B4A11686D48006841186D480068C0B208701168013111601168634A1268914203D20421674A116000E001236649674A116060E019
:40114000564A1268920726D50222564B1A60634A13681F211940136880221202134000D00123CB185E4A1168CB1A136012685D4B1A604B4A118884239B000B4313805A4B5B
:401180001A68802149020A431A601968574A0A401A60012335E0564A1268D2061ED427E04F4A1168404A126891421DD23E4A1268013A4B4909688A4204D140224D490A60D3
:4011C0003A490A60464A11684B48006841180978C9B24A4801601168013111603F4A12681F210A40082ADBD11021424A116008E03F4A1268520604D5394B1A68394B1A60E1
:401200000123002B40D02E4A11682E4B0B40136000233B4A1360254A13603A4B1B789B070ED51D4B1B78DB0701D5092300E00A231B4A11880B4313806022174B1A7023E051
:40124000314B1B689B0601D5182200E01022204B1A6019E0104B1B78DB0615D42B4A13685B005B08136010210B4B1970144B186827490140196018682649014019601368B8
:40128000802109060B43136010BDC046240100208C0E2740880E2740320100200C0F274040010020000F274054010020880F2740CC0F274050010020080327403C01002006
:4012C00060002740FFFEFFFF340100204003274068002740ED0F0000C00F2740080227404C0100204401002004022740FFFFFEFF8C0F2740800F2740380100204002274087
:40130000C80F2740480100206400274000002740FF5FFFFFFFFCFFFF0E4B70B500251E1C0D4CE41AA410A54204D0AB00F35898470135F8E700F04AF8084B00251E1C084CBA
:40134000E41AA410A54204D0AB00F35898470135F8E770BDD8130000D8130000D8130000E0130000031C8218934202D019700133FAE770470000000000300F4000040040BD
:401380000F400004030405060708090A0B0C0E0F101112131415161718191B1C1D1E1F2021222325262728292A2B2E2F3031323334350000EEDBC9B9AA9B8E82766B6056B3
:4013C0004D443B332C241D17100A0400F8B5C046F8BC08BC9E4670479901000015030000F8B5C046F8BC08BC9E4670477101000000140000C80000201800000090000000F8
:40140000000000000000C05D80BB000030000000006CDC020404040000000000000000000000000000000000000000000000000000000000000000000000000000000000CE
:40144000000000000000000000000000000000000000000000000000000000000000000000000000000000000000000000000000000000000000000000000000000000006C
:40148000000000000000000000000000000000000000000000000000000000000000000000000000000000000000000000000000000000000000000000000000000000002C
:4014C00000000000000000000000000000000000000000000000000000000000000000000000000000000000000000000000000000000000000000000000000000000000EC
:4015000000000000000000000000000000000000000000000000000000000000000000000000000000000000000000000000000000000000000000000000000000000000AB
:020000040001F9
:0200000490303A
:02000000E837DF
:0200000490402A
:4000000000000000000000000000000000000000000000000000000000000000000000000000000000000000000000000000000000000000000000000000000000000000C0
:400040000000000000000000000000000000000000000000000000000000000000000000000000000000000000000000000000000000000000000000000000000000000080
:0200000490501A
:0C0000000002112D11A100011132F9D8ED
:0200000490600A
:0100000001FE
:00000001FF